{
	"message/concensus/Leader.sol": {
		"Leader": {
			"abi": [
				{
					"inputs": [
						{
							"internalType": "address",
							"name": "_messageRouter",
							"type": "address"
						}
					],
					"stateMutability": "nonpayable",
					"type": "constructor"
				},
				{
					"inputs": [],
					"name": "addStake",
					"outputs": [],
					"stateMutability": "payable",
					"type": "function"
				},
				{
					"inputs": [
						{
							"internalType": "uint256",
							"name": "slotNumber",
							"type": "uint256"
						}
					],
					"name": "castVote",
					"outputs": [],
					"stateMutability": "nonpayable",
					"type": "function"
				},
				{
					"inputs": [],
					"name": "finishRecommendation",
					"outputs": [],
					"stateMutability": "nonpayable",
					"type": "function"
				},
				{
					"inputs": [],
					"name": "finishVoting",
					"outputs": [],
					"stateMutability": "nonpayable",
					"type": "function"
				},
				{
					"inputs": [],
					"name": "getMaximumCandidateNumber",
					"outputs": [
						{
							"internalType": "uint256",
							"name": "",
							"type": "uint256"
						}
					],
					"stateMutability": "view",
					"type": "function"
				},
				{
					"inputs": [],
					"name": "getTopCandidates",
					"outputs": [
						{
							"components": [
								{
									"internalType": "string",
									"name": "value",
									"type": "string"
								},
								{
									"internalType": "address",
									"name": "recommender",
									"type": "address"
								},
								{
									"internalType": "uint256",
									"name": "totalVote",
									"type": "uint256"
								}
							],
							"internalType": "struct Leader.Candidate[]",
							"name": "",
							"type": "tuple[]"
						}
					],
					"stateMutability": "view",
					"type": "function"
				},
				{
					"inputs": [
						{
							"internalType": "string",
							"name": "value",
							"type": "string"
						}
					],
					"name": "recieveRecommender",
					"outputs": [],
					"stateMutability": "nonpayable",
					"type": "function"
				},
				{
					"inputs": [],
					"name": "selectRandomMiner",
					"outputs": [
						{
							"internalType": "address[]",
							"name": "",
							"type": "address[]"
						}
					],
					"stateMutability": "view",
					"type": "function"
				},
				{
					"inputs": [
						{
							"internalType": "uint256",
							"name": "_maxCandiateNumber",
							"type": "uint256"
						}
					],
					"name": "setMaximumCandidateNumber",
					"outputs": [],
					"stateMutability": "nonpayable",
					"type": "function"
				},
				{
					"inputs": [],
					"name": "startVoting",
					"outputs": [],
					"stateMutability": "nonpayable",
					"type": "function"
				}
			],
			"devdoc": {
				"kind": "dev",
				"methods": {},
				"version": 1
			},
			"evm": {
				"assembly": "    /* \"message/concensus/Leader.sol\":69:6757  contract Leader{... */\n  mstore(0x40, 0x80)\n    /* \"message/concensus/Leader.sol\":112:113  0 */\n  0x00\n    /* \"message/concensus/Leader.sol\":91:113  uint256 turnNumber = 0 */\n  dup1\n  sstore\n    /* \"message/concensus/Leader.sol\":148:150  10 */\n  0x0a\n    /* \"message/concensus/Leader.sol\":119:150  uint256 maxCandidateNumber = 10 */\n  0x01\n  sstore\n    /* \"message/concensus/Leader.sol\":715:821  constructor(address _messageRouter){... */\n  callvalue\n  dup1\n  iszero\n  tag_1\n  jumpi\n  0x00\n  dup1\n  revert\ntag_1:\n  pop\n  mload(0x40)\n  sub(codesize, bytecodeSize)\n  dup1\n  bytecodeSize\n  dup4\n  codecopy\n  dup2\n  dup2\n  add\n  0x40\n  mstore\n  dup2\n  add\n  swap1\n  tag_2\n  swap2\n  swap1\n  tag_3\n  jump\t// in\ntag_2:\n    /* \"message/concensus/Leader.sol\":773:774  0 */\n  0x00\n    /* \"message/concensus/Leader.sol\":760:770  totalStake */\n  0x03\n    /* \"message/concensus/Leader.sol\":760:774  totalStake = 0 */\n  dup2\n  swap1\n  sstore\n  pop\n    /* \"message/concensus/Leader.sol\":800:814  _messageRouter */\n  dup1\n    /* \"message/concensus/Leader.sol\":784:797  messageRouter */\n  0x04\n  0x00\n    /* \"message/concensus/Leader.sol\":784:814  messageRouter = _messageRouter */\n  0x0100\n  exp\n  dup2\n  sload\n  dup2\n  0xffffffffffffffffffffffffffffffffffffffff\n  mul\n  not\n  and\n  swap1\n  dup4\n  0xffffffffffffffffffffffffffffffffffffffff\n  and\n  mul\n  or\n  swap1\n  sstore\n  pop\n    /* \"message/concensus/Leader.sol\":715:821  constructor(address _messageRouter){... */\n  pop\n    /* \"message/concensus/Leader.sol\":69:6757  contract Leader{... */\n  jump(tag_6)\n    /* \"#utility.yul\":88:205   */\ntag_8:\n    /* \"#utility.yul\":197:198   */\n  0x00\n    /* \"#utility.yul\":194:195   */\n  dup1\n    /* \"#utility.yul\":187:199   */\n  revert\n    /* \"#utility.yul\":334:460   */\ntag_10:\n    /* \"#utility.yul\":371:378   */\n  0x00\n    /* \"#utility.yul\":411:453   */\n  0xffffffffffffffffffffffffffffffffffffffff\n    /* \"#utility.yul\":404:409   */\n  dup3\n    /* \"#utility.yul\":400:454   */\n  and\n    /* \"#utility.yul\":389:454   */\n  swap1\n  pop\n    /* \"#utility.yul\":334:460   */\n  swap2\n  swap1\n  pop\n  jump\t// out\n    /* \"#utility.yul\":466:562   */\ntag_11:\n    /* \"#utility.yul\":503:510   */\n  0x00\n    /* \"#utility.yul\":532:556   */\n  tag_20\n    /* \"#utility.yul\":550:555   */\n  dup3\n    /* \"#utility.yul\":532:556   */\n  tag_10\n  jump\t// in\ntag_20:\n    /* \"#utility.yul\":521:556   */\n  swap1\n  pop\n    /* \"#utility.yul\":466:562   */\n  swap2\n  swap1\n  pop\n  jump\t// out\n    /* \"#utility.yul\":568:690   */\ntag_12:\n    /* \"#utility.yul\":641:665   */\n  tag_22\n    /* \"#utility.yul\":659:664   */\n  dup2\n    /* \"#utility.yul\":641:665   */\n  tag_11\n  jump\t// in\ntag_22:\n    /* \"#utility.yul\":634:639   */\n  dup2\n    /* \"#utility.yul\":631:666   */\n  eq\n    /* \"#utility.yul\":621:684   */\n  tag_23\n  jumpi\n    /* \"#utility.yul\":680:681   */\n  0x00\n    /* \"#utility.yul\":677:678   */\n  dup1\n    /* \"#utility.yul\":670:682   */\n  revert\n    /* \"#utility.yul\":621:684   */\ntag_23:\n    /* \"#utility.yul\":568:690   */\n  pop\n  jump\t// out\n    /* \"#utility.yul\":696:839   */\ntag_13:\n    /* \"#utility.yul\":753:758   */\n  0x00\n    /* \"#utility.yul\":784:790   */\n  dup2\n    /* \"#utility.yul\":778:791   */\n  mload\n    /* \"#utility.yul\":769:791   */\n  swap1\n  pop\n    /* \"#utility.yul\":800:833   */\n  tag_25\n    /* \"#utility.yul\":827:832   */\n  dup2\n    /* \"#utility.yul\":800:833   */\n  tag_12\n  jump\t// in\ntag_25:\n    /* \"#utility.yul\":696:839   */\n  swap3\n  swap2\n  pop\n  pop\n  jump\t// out\n    /* \"#utility.yul\":845:1196   */\ntag_3:\n    /* \"#utility.yul\":915:921   */\n  0x00\n    /* \"#utility.yul\":964:966   */\n  0x20\n    /* \"#utility.yul\":952:961   */\n  dup3\n    /* \"#utility.yul\":943:950   */\n  dup5\n    /* \"#utility.yul\":939:962   */\n  sub\n    /* \"#utility.yul\":935:967   */\n  slt\n    /* \"#utility.yul\":932:1051   */\n  iszero\n  tag_27\n  jumpi\n    /* \"#utility.yul\":970:1049   */\n  tag_28\n  tag_8\n  jump\t// in\ntag_28:\n    /* \"#utility.yul\":932:1051   */\ntag_27:\n    /* \"#utility.yul\":1090:1091   */\n  0x00\n    /* \"#utility.yul\":1115:1179   */\n  tag_29\n    /* \"#utility.yul\":1171:1178   */\n  dup5\n    /* \"#utility.yul\":1162:1168   */\n  dup3\n    /* \"#utility.yul\":1151:1160   */\n  dup6\n    /* \"#utility.yul\":1147:1169   */\n  add\n    /* \"#utility.yul\":1115:1179   */\n  tag_13\n  jump\t// in\ntag_29:\n    /* \"#utility.yul\":1105:1179   */\n  swap2\n  pop\n    /* \"#utility.yul\":1061:1189   */\n  pop\n    /* \"#utility.yul\":845:1196   */\n  swap3\n  swap2\n  pop\n  pop\n  jump\t// out\n    /* \"message/concensus/Leader.sol\":69:6757  contract Leader{... */\ntag_6:\n  dataSize(sub_0)\n  dup1\n  dataOffset(sub_0)\n  0x00\n  codecopy\n  0x00\n  return\nstop\n\nsub_0: assembly {\n        /* \"message/concensus/Leader.sol\":69:6757  contract Leader{... */\n      mstore(0x40, 0x80)\n      jumpi(tag_1, lt(calldatasize, 0x04))\n      shr(0xe0, calldataload(0x00))\n      dup1\n      0x8aa9b98c\n      gt\n      tag_12\n      jumpi\n      dup1\n      0x8aa9b98c\n      eq\n      tag_7\n      jumpi\n      dup1\n      0xa815a06f\n      eq\n      tag_8\n      jumpi\n      dup1\n      0xb7bc7f1c\n      eq\n      tag_9\n      jumpi\n      dup1\n      0xf2ad54ca\n      eq\n      tag_10\n      jumpi\n      dup1\n      0xf9094303\n      eq\n      tag_11\n      jumpi\n      jump(tag_1)\n    tag_12:\n      dup1\n      0x1ec6b60a\n      eq\n      tag_2\n      jumpi\n      dup1\n      0x3eb76b9c\n      eq\n      tag_3\n      jumpi\n      dup1\n      0x5a627dbc\n      eq\n      tag_4\n      jumpi\n      dup1\n      0x6019aef1\n      eq\n      tag_5\n      jumpi\n      dup1\n      0x801d570d\n      eq\n      tag_6\n      jumpi\n    tag_1:\n      0x00\n      dup1\n      revert\n        /* \"message/concensus/Leader.sol\":2393:2468  function startVoting() external votingOff{... */\n    tag_2:\n      callvalue\n      dup1\n      iszero\n      tag_13\n      jumpi\n      0x00\n      dup1\n      revert\n    tag_13:\n      pop\n      tag_14\n      tag_15\n      jump\t// in\n    tag_14:\n      stop\n        /* \"message/concensus/Leader.sol\":3090:3238  function castVote(uint256 slotNumber) public onlyMiner notCasted votingOn{... */\n    tag_3:\n      callvalue\n      dup1\n      iszero\n      tag_16\n      jumpi\n      0x00\n      dup1\n      revert\n    tag_16:\n      pop\n      tag_17\n      0x04\n      dup1\n      calldatasize\n      sub\n      dup2\n      add\n      swap1\n      tag_18\n      swap2\n      swap1\n      tag_19\n      jump\t// in\n    tag_18:\n      tag_20\n      jump\t// in\n    tag_17:\n      stop\n        /* \"message/concensus/Leader.sol\":3244:3537  function addStake() external payable{... */\n    tag_4:\n      tag_21\n      tag_22\n      jump\t// in\n    tag_21:\n      stop\n        /* \"message/concensus/Leader.sol\":5765:6492  function selectRandomMiner() public view returns(address[] memory) {... */\n    tag_5:\n      callvalue\n      dup1\n      iszero\n      tag_23\n      jumpi\n      0x00\n      dup1\n      revert\n    tag_23:\n      pop\n      tag_24\n      tag_25\n      jump\t// in\n    tag_24:\n      mload(0x40)\n      tag_26\n      swap2\n      swap1\n      tag_27\n      jump\t// in\n    tag_26:\n      mload(0x40)\n      dup1\n      swap2\n      sub\n      swap1\n      return\n        /* \"message/concensus/Leader.sol\":6498:6641  function setMaximumCandidateNumber(uint256 _maxCandiateNumber) public recommendationOff{... */\n    tag_6:\n      callvalue\n      dup1\n      iszero\n      tag_28\n      jumpi\n      0x00\n      dup1\n      revert\n    tag_28:\n      pop\n      tag_29\n      0x04\n      dup1\n      calldatasize\n      sub\n      dup2\n      add\n      swap1\n      tag_30\n      swap2\n      swap1\n      tag_19\n      jump\t// in\n    tag_30:\n      tag_31\n      jump\t// in\n    tag_29:\n      stop\n        /* \"message/concensus/Leader.sol\":2783:3084  function finishRecommendation() public {... */\n    tag_7:\n      callvalue\n      dup1\n      iszero\n      tag_32\n      jumpi\n      0x00\n      dup1\n      revert\n    tag_32:\n      pop\n      tag_33\n      tag_34\n      jump\t// in\n    tag_33:\n      stop\n        /* \"message/concensus/Leader.sol\":6647:6754  function getMaximumCandidateNumber() public view returns(uint256){... */\n    tag_8:\n      callvalue\n      dup1\n      iszero\n      tag_35\n      jumpi\n      0x00\n      dup1\n      revert\n    tag_35:\n      pop\n      tag_36\n      tag_37\n      jump\t// in\n    tag_36:\n      mload(0x40)\n      tag_38\n      swap2\n      swap1\n      tag_39\n      jump\t// in\n    tag_38:\n      mload(0x40)\n      dup1\n      swap2\n      sub\n      swap1\n      return\n        /* \"message/concensus/Leader.sol\":3543:4974  function getTopCandidates() public view returns (Candidate[] memory) {... */\n    tag_9:\n      callvalue\n      dup1\n      iszero\n      tag_40\n      jumpi\n      0x00\n      dup1\n      revert\n    tag_40:\n      pop\n      tag_41\n      tag_42\n      jump\t// in\n    tag_41:\n      mload(0x40)\n      tag_43\n      swap2\n      swap1\n      tag_44\n      jump\t// in\n    tag_43:\n      mload(0x40)\n      dup1\n      swap2\n      sub\n      swap1\n      return\n        /* \"message/concensus/Leader.sol\":5563:5759  function recieveRecommender(string calldata value) external cannotOfferMoreThanOne lessThanMaxCandidate recommendationOn {... */\n    tag_10:\n      callvalue\n      dup1\n      iszero\n      tag_45\n      jumpi\n      0x00\n      dup1\n      revert\n    tag_45:\n      pop\n      tag_46\n      0x04\n      dup1\n      calldatasize\n      sub\n      dup2\n      add\n      swap1\n      tag_47\n      swap2\n      swap1\n      tag_48\n      jump\t// in\n    tag_47:\n      tag_49\n      jump\t// in\n    tag_46:\n      stop\n        /* \"message/concensus/Leader.sol\":2474:2626  function finishVoting() external votingOn{... */\n    tag_11:\n      callvalue\n      dup1\n      iszero\n      tag_50\n      jumpi\n      0x00\n      dup1\n      revert\n    tag_50:\n      pop\n      tag_51\n      tag_52\n      jump\t// in\n    tag_51:\n      stop\n        /* \"message/concensus/Leader.sol\":2393:2468  function startVoting() external votingOff{... */\n    tag_15:\n        /* \"message/concensus/Leader.sol\":2103:2113  isVotingOn */\n      0x02\n      0x00\n      swap1\n      sload\n      swap1\n      0x0100\n      exp\n      swap1\n      div\n      0xff\n      and\n        /* \"message/concensus/Leader.sol\":2102:2113  !isVotingOn */\n      iszero\n        /* \"message/concensus/Leader.sol\":2094:2133  require(!isVotingOn,\"Voting is active\") */\n      tag_54\n      jumpi\n      mload(0x40)\n      0x08c379a000000000000000000000000000000000000000000000000000000000\n      dup2\n      mstore\n      0x04\n      add\n      tag_55\n      swap1\n      tag_56\n      jump\t// in\n    tag_55:\n      mload(0x40)\n      dup1\n      swap2\n      sub\n      swap1\n      revert\n    tag_54:\n        /* \"message/concensus/Leader.sol\":2457:2461  true */\n      0x01\n        /* \"message/concensus/Leader.sol\":2444:2454  isVotingOn */\n      0x02\n      0x00\n        /* \"message/concensus/Leader.sol\":2444:2461  isVotingOn = true */\n      0x0100\n      exp\n      dup2\n      sload\n      dup2\n      0xff\n      mul\n      not\n      and\n      swap1\n      dup4\n      iszero\n      iszero\n      mul\n      or\n      swap1\n      sstore\n      pop\n        /* \"message/concensus/Leader.sol\":2393:2468  function startVoting() external votingOff{... */\n      jump\t// out\n        /* \"message/concensus/Leader.sol\":3090:3238  function castVote(uint256 slotNumber) public onlyMiner notCasted votingOn{... */\n    tag_20:\n        /* \"message/concensus/Leader.sol\":857:866  bool flag */\n      0x00\n        /* \"message/concensus/Leader.sol\":889:899  uint index */\n      dup1\n        /* \"message/concensus/Leader.sol\":884:1051  for (uint index=0; index<miners.length;index++) ... */\n    tag_59:\n        /* \"message/concensus/Leader.sol\":909:915  miners */\n      0x05\n        /* \"message/concensus/Leader.sol\":909:922  miners.length */\n      dup1\n      sload\n      swap1\n      pop\n        /* \"message/concensus/Leader.sol\":903:908  index */\n      dup2\n        /* \"message/concensus/Leader.sol\":903:922  index<miners.length */\n      lt\n        /* \"message/concensus/Leader.sol\":884:1051  for (uint index=0; index<miners.length;index++) ... */\n      iszero\n      tag_60\n      jumpi\n        /* \"message/concensus/Leader.sol\":986:996  msg.sender */\n      caller\n        /* \"message/concensus/Leader.sol\":958:996  miners[index].minerAddress==msg.sender */\n      0xffffffffffffffffffffffffffffffffffffffff\n      and\n        /* \"message/concensus/Leader.sol\":958:964  miners */\n      0x05\n        /* \"message/concensus/Leader.sol\":965:970  index */\n      dup3\n        /* \"message/concensus/Leader.sol\":958:971  miners[index] */\n      dup2\n      sload\n      dup2\n      lt\n      tag_62\n      jumpi\n      tag_63\n      tag_64\n      jump\t// in\n    tag_63:\n    tag_62:\n      swap1\n      0x00\n      mstore\n      keccak256(0x00, 0x20)\n      swap1\n      0x02\n      mul\n      add\n        /* \"message/concensus/Leader.sol\":958:984  miners[index].minerAddress */\n      0x00\n      add\n      0x00\n      swap1\n      sload\n      swap1\n      0x0100\n      exp\n      swap1\n      div\n      0xffffffffffffffffffffffffffffffffffffffff\n      and\n        /* \"message/concensus/Leader.sol\":958:996  miners[index].minerAddress==msg.sender */\n      0xffffffffffffffffffffffffffffffffffffffff\n      and\n      sub\n        /* \"message/concensus/Leader.sol\":955:1041  if(miners[index].minerAddress==msg.sender){... */\n      tag_66\n      jumpi\n        /* \"message/concensus/Leader.sol\":1022:1026  true */\n      0x01\n        /* \"message/concensus/Leader.sol\":1015:1026  flag = true */\n      swap2\n      pop\n        /* \"message/concensus/Leader.sol\":955:1041  if(miners[index].minerAddress==msg.sender){... */\n    tag_66:\n        /* \"message/concensus/Leader.sol\":923:930  index++ */\n      dup1\n      dup1\n      tag_67\n      swap1\n      tag_68\n      jump\t// in\n    tag_67:\n      swap2\n      pop\n      pop\n        /* \"message/concensus/Leader.sol\":884:1051  for (uint index=0; index<miners.length;index++) ... */\n      jump(tag_59)\n    tag_60:\n      pop\n        /* \"message/concensus/Leader.sol\":1068:1072  flag */\n      dup1\n        /* \"message/concensus/Leader.sol\":1060:1115  require(flag,\"This function is allowed for only mines\") */\n      tag_69\n      jumpi\n      mload(0x40)\n      0x08c379a000000000000000000000000000000000000000000000000000000000\n      dup2\n      mstore\n      0x04\n      add\n      tag_70\n      swap1\n      tag_71\n      jump\t// in\n    tag_70:\n      mload(0x40)\n      dup1\n      swap2\n      sub\n      swap1\n      revert\n    tag_69:\n        /* \"message/concensus/Leader.sol\":1169:1178  bool flag */\n      0x00\n        /* \"message/concensus/Leader.sol\":1181:1185  true */\n      0x01\n        /* \"message/concensus/Leader.sol\":1169:1185  bool flag = true */\n      swap1\n      pop\n        /* \"message/concensus/Leader.sol\":1200:1210  uint index */\n      0x00\n        /* \"message/concensus/Leader.sol\":1195:1394  for (uint index=0; index<votesOfTurns[turnNumber].length;index++) ... */\n    tag_73:\n        /* \"message/concensus/Leader.sol\":1220:1232  votesOfTurns */\n      0x06\n        /* \"message/concensus/Leader.sol\":1220:1244  votesOfTurns[turnNumber] */\n      0x00\n        /* \"message/concensus/Leader.sol\":1233:1243  turnNumber */\n      dup1\n      sload\n        /* \"message/concensus/Leader.sol\":1220:1244  votesOfTurns[turnNumber] */\n      dup2\n      mstore\n      0x20\n      add\n      swap1\n      dup2\n      mstore\n      0x20\n      add\n      0x00\n      keccak256\n        /* \"message/concensus/Leader.sol\":1220:1251  votesOfTurns[turnNumber].length */\n      dup1\n      sload\n      swap1\n      pop\n        /* \"message/concensus/Leader.sol\":1214:1219  index */\n      dup2\n        /* \"message/concensus/Leader.sol\":1214:1251  index<votesOfTurns[turnNumber].length */\n      lt\n        /* \"message/concensus/Leader.sol\":1195:1394  for (uint index=0; index<votesOfTurns[turnNumber].length;index++) ... */\n      iszero\n      tag_74\n      jumpi\n        /* \"message/concensus/Leader.sol\":1328:1338  msg.sender */\n      caller\n        /* \"message/concensus/Leader.sol\":1287:1338  votesOfTurns[turnNumber][index].miner == msg.sender */\n      0xffffffffffffffffffffffffffffffffffffffff\n      and\n        /* \"message/concensus/Leader.sol\":1287:1299  votesOfTurns */\n      0x06\n        /* \"message/concensus/Leader.sol\":1287:1311  votesOfTurns[turnNumber] */\n      0x00\n        /* \"message/concensus/Leader.sol\":1300:1310  turnNumber */\n      dup1\n      sload\n        /* \"message/concensus/Leader.sol\":1287:1311  votesOfTurns[turnNumber] */\n      dup2\n      mstore\n      0x20\n      add\n      swap1\n      dup2\n      mstore\n      0x20\n      add\n      0x00\n      keccak256\n        /* \"message/concensus/Leader.sol\":1312:1317  index */\n      dup3\n        /* \"message/concensus/Leader.sol\":1287:1318  votesOfTurns[turnNumber][index] */\n      dup2\n      sload\n      dup2\n      lt\n      tag_76\n      jumpi\n      tag_77\n      tag_64\n      jump\t// in\n    tag_77:\n    tag_76:\n      swap1\n      0x00\n      mstore\n      keccak256(0x00, 0x20)\n      swap1\n      0x02\n      mul\n      add\n        /* \"message/concensus/Leader.sol\":1287:1324  votesOfTurns[turnNumber][index].miner */\n      0x00\n      add\n      0x00\n      swap1\n      sload\n      swap1\n      0x0100\n      exp\n      swap1\n      div\n      0xffffffffffffffffffffffffffffffffffffffff\n      and\n        /* \"message/concensus/Leader.sol\":1287:1338  votesOfTurns[turnNumber][index].miner == msg.sender */\n      0xffffffffffffffffffffffffffffffffffffffff\n      and\n      sub\n        /* \"message/concensus/Leader.sol\":1284:1384  if(votesOfTurns[turnNumber][index].miner == msg.sender){... */\n      tag_79\n      jumpi\n        /* \"message/concensus/Leader.sol\":1364:1369  false */\n      0x00\n        /* \"message/concensus/Leader.sol\":1357:1369  flag = false */\n      swap2\n      pop\n        /* \"message/concensus/Leader.sol\":1284:1384  if(votesOfTurns[turnNumber][index].miner == msg.sender){... */\n    tag_79:\n        /* \"message/concensus/Leader.sol\":1252:1259  index++ */\n      dup1\n      dup1\n      tag_80\n      swap1\n      tag_68\n      jump\t// in\n    tag_80:\n      swap2\n      pop\n      pop\n        /* \"message/concensus/Leader.sol\":1195:1394  for (uint index=0; index<votesOfTurns[turnNumber].length;index++) ... */\n      jump(tag_73)\n    tag_74:\n      pop\n        /* \"message/concensus/Leader.sol\":1412:1416  flag */\n      dup1\n        /* \"message/concensus/Leader.sol\":1411:1416  !flag */\n      iszero\n        /* \"message/concensus/Leader.sol\":1403:1444  require(!flag,\"You casted a vote before\") */\n      tag_81\n      jumpi\n      mload(0x40)\n      0x08c379a000000000000000000000000000000000000000000000000000000000\n      dup2\n      mstore\n      0x04\n      add\n      tag_82\n      swap1\n      tag_83\n      jump\t// in\n    tag_82:\n      mload(0x40)\n      dup1\n      swap2\n      sub\n      swap1\n      revert\n    tag_81:\n        /* \"message/concensus/Leader.sol\":2006:2016  isVotingOn */\n      0x02\n      0x00\n      swap1\n      sload\n      swap1\n      0x0100\n      exp\n      swap1\n      div\n      0xff\n      and\n        /* \"message/concensus/Leader.sol\":1998:2040  require(isVotingOn,\"Voting is not active\") */\n      tag_85\n      jumpi\n      mload(0x40)\n      0x08c379a000000000000000000000000000000000000000000000000000000000\n      dup2\n      mstore\n      0x04\n      add\n      tag_86\n      swap1\n      tag_87\n      jump\t// in\n    tag_86:\n      mload(0x40)\n      dup1\n      swap2\n      sub\n      swap1\n      revert\n    tag_85:\n        /* \"message/concensus/Leader.sol\":3173:3185  votesOfTurns */\n      0x06\n        /* \"message/concensus/Leader.sol\":3173:3197  votesOfTurns[turnNumber] */\n      0x00\n        /* \"message/concensus/Leader.sol\":3186:3196  turnNumber */\n      dup1\n      sload\n        /* \"message/concensus/Leader.sol\":3173:3197  votesOfTurns[turnNumber] */\n      dup2\n      mstore\n      0x20\n      add\n      swap1\n      dup2\n      mstore\n      0x20\n      add\n      0x00\n      keccak256\n        /* \"message/concensus/Leader.sol\":3203:3230  Vote(msg.sender,slotNumber) */\n      mload(0x40)\n      dup1\n      0x40\n      add\n      0x40\n      mstore\n      dup1\n        /* \"message/concensus/Leader.sol\":3208:3218  msg.sender */\n      caller\n        /* \"message/concensus/Leader.sol\":3203:3230  Vote(msg.sender,slotNumber) */\n      0xffffffffffffffffffffffffffffffffffffffff\n      and\n      dup2\n      mstore\n      0x20\n      add\n        /* \"message/concensus/Leader.sol\":3219:3229  slotNumber */\n      dup6\n        /* \"message/concensus/Leader.sol\":3203:3230  Vote(msg.sender,slotNumber) */\n      dup2\n      mstore\n      pop\n        /* \"message/concensus/Leader.sol\":3173:3231  votesOfTurns[turnNumber].push(Vote(msg.sender,slotNumber)) */\n      swap1\n      dup1\n      0x01\n      dup2\n      sload\n      add\n      dup1\n      dup3\n      sstore\n      dup1\n      swap2\n      pop\n      pop\n      0x01\n      swap1\n      sub\n      swap1\n      0x00\n      mstore\n      keccak256(0x00, 0x20)\n      swap1\n      0x02\n      mul\n      add\n      0x00\n      swap1\n      swap2\n      swap1\n      swap2\n      swap1\n      swap2\n      pop\n      0x00\n      dup3\n      add\n      mload\n      dup2\n      0x00\n      add\n      exp(0x0100, 0x00)\n      dup2\n      sload\n      dup2\n      0xffffffffffffffffffffffffffffffffffffffff\n      mul\n      not\n      and\n      swap1\n      dup4\n      0xffffffffffffffffffffffffffffffffffffffff\n      and\n      mul\n      or\n      swap1\n      sstore\n      pop\n      0x20\n      dup3\n      add\n      mload\n      dup2\n      0x01\n      add\n      sstore\n      pop\n      pop\n        /* \"message/concensus/Leader.sol\":1159:1462  {... */\n      pop\n        /* \"message/concensus/Leader.sol\":847:1133  {... */\n      pop\n        /* \"message/concensus/Leader.sol\":3090:3238  function castVote(uint256 slotNumber) public onlyMiner notCasted votingOn{... */\n      pop\n      jump\t// out\n        /* \"message/concensus/Leader.sol\":3244:3537  function addStake() external payable{... */\n    tag_22:\n        /* \"message/concensus/Leader.sol\":3295:3308  uint256 index */\n      0x00\n        /* \"message/concensus/Leader.sol\":3290:3531  for (uint256 index=0; index<miners.length; index++) ... */\n    tag_91:\n        /* \"message/concensus/Leader.sol\":3318:3324  miners */\n      0x05\n        /* \"message/concensus/Leader.sol\":3318:3331  miners.length */\n      dup1\n      sload\n      swap1\n      pop\n        /* \"message/concensus/Leader.sol\":3312:3317  index */\n      dup2\n        /* \"message/concensus/Leader.sol\":3312:3331  index<miners.length */\n      lt\n        /* \"message/concensus/Leader.sol\":3290:3531  for (uint256 index=0; index<miners.length; index++) ... */\n      iszero\n      tag_92\n      jumpi\n        /* \"message/concensus/Leader.sol\":3382:3388  miners */\n      0x05\n        /* \"message/concensus/Leader.sol\":3389:3394  index */\n      dup2\n        /* \"message/concensus/Leader.sol\":3382:3395  miners[index] */\n      dup2\n      sload\n      dup2\n      lt\n      tag_94\n      jumpi\n      tag_95\n      tag_64\n      jump\t// in\n    tag_95:\n    tag_94:\n      swap1\n      0x00\n      mstore\n      keccak256(0x00, 0x20)\n      swap1\n      0x02\n      mul\n      add\n        /* \"message/concensus/Leader.sol\":3382:3408  miners[index].minerAddress */\n      0x00\n      add\n      0x00\n      swap1\n      sload\n      swap1\n      0x0100\n      exp\n      swap1\n      div\n      0xffffffffffffffffffffffffffffffffffffffff\n      and\n        /* \"message/concensus/Leader.sol\":3368:3408  msg.sender == miners[index].minerAddress */\n      0xffffffffffffffffffffffffffffffffffffffff\n      and\n        /* \"message/concensus/Leader.sol\":3368:3378  msg.sender */\n      caller\n        /* \"message/concensus/Leader.sol\":3368:3408  msg.sender == miners[index].minerAddress */\n      0xffffffffffffffffffffffffffffffffffffffff\n      and\n      sub\n        /* \"message/concensus/Leader.sol\":3365:3521  if(msg.sender == miners[index].minerAddress){... */\n      tag_97\n      jumpi\n        /* \"message/concensus/Leader.sol\":3456:3465  msg.value */\n      callvalue\n        /* \"message/concensus/Leader.sol\":3427:3433  miners */\n      0x05\n        /* \"message/concensus/Leader.sol\":3434:3439  index */\n      dup3\n        /* \"message/concensus/Leader.sol\":3427:3440  miners[index] */\n      dup2\n      sload\n      dup2\n      lt\n      tag_98\n      jumpi\n      tag_99\n      tag_64\n      jump\t// in\n    tag_99:\n    tag_98:\n      swap1\n      0x00\n      mstore\n      keccak256(0x00, 0x20)\n      swap1\n      0x02\n      mul\n      add\n        /* \"message/concensus/Leader.sol\":3427:3452  miners[index].stakeAmount */\n      0x01\n      add\n      0x00\n        /* \"message/concensus/Leader.sol\":3427:3465  miners[index].stakeAmount += msg.value */\n      dup3\n      dup3\n      sload\n      tag_101\n      swap2\n      swap1\n      tag_102\n      jump\t// in\n    tag_101:\n      swap3\n      pop\n      pop\n      dup2\n      swap1\n      sstore\n      pop\n        /* \"message/concensus/Leader.sol\":3497:3506  msg.value */\n      callvalue\n        /* \"message/concensus/Leader.sol\":3483:3493  totalStake */\n      0x03\n      0x00\n        /* \"message/concensus/Leader.sol\":3483:3506  totalStake += msg.value */\n      dup3\n      dup3\n      sload\n      tag_103\n      swap2\n      swap1\n      tag_102\n      jump\t// in\n    tag_103:\n      swap3\n      pop\n      pop\n      dup2\n      swap1\n      sstore\n      pop\n        /* \"message/concensus/Leader.sol\":3365:3521  if(msg.sender == miners[index].minerAddress){... */\n    tag_97:\n        /* \"message/concensus/Leader.sol\":3333:3340  index++ */\n      dup1\n      dup1\n      tag_104\n      swap1\n      tag_68\n      jump\t// in\n    tag_104:\n      swap2\n      pop\n      pop\n        /* \"message/concensus/Leader.sol\":3290:3531  for (uint256 index=0; index<miners.length; index++) ... */\n      jump(tag_91)\n    tag_92:\n      pop\n        /* \"message/concensus/Leader.sol\":3244:3537  function addStake() external payable{... */\n      jump\t// out\n        /* \"message/concensus/Leader.sol\":5765:6492  function selectRandomMiner() public view returns(address[] memory) {... */\n    tag_25:\n        /* \"message/concensus/Leader.sol\":5814:5830  address[] memory */\n      0x60\n        /* \"message/concensus/Leader.sol\":5842:5861  uint256 randomValue */\n      0x00\n        /* \"message/concensus/Leader.sol\":5864:5878  pseudoRandom() */\n      tag_106\n        /* \"message/concensus/Leader.sol\":5864:5876  pseudoRandom */\n      tag_107\n        /* \"message/concensus/Leader.sol\":5864:5878  pseudoRandom() */\n      jump\t// in\n    tag_106:\n        /* \"message/concensus/Leader.sol\":5842:5878  uint256 randomValue = pseudoRandom() */\n      swap1\n      pop\n        /* \"message/concensus/Leader.sol\":5888:5917  uint256 cumulativeProbability */\n      0x00\n        /* \"message/concensus/Leader.sol\":5931:5961  address[] memory selectedItems */\n      dup1\n        /* \"message/concensus/Leader.sol\":5978:5984  miners */\n      0x05\n        /* \"message/concensus/Leader.sol\":5978:5991  miners.length */\n      dup1\n      sload\n      swap1\n      pop\n        /* \"message/concensus/Leader.sol\":5964:5992  new address[](miners.length) */\n      0xffffffffffffffff\n      dup2\n      gt\n      iszero\n      tag_108\n      jumpi\n      tag_109\n      tag_110\n      jump\t// in\n    tag_109:\n    tag_108:\n      mload(0x40)\n      swap1\n      dup1\n      dup3\n      mstore\n      dup1\n      0x20\n      mul\n      0x20\n      add\n      dup3\n      add\n      0x40\n      mstore\n      dup1\n      iszero\n      tag_111\n      jumpi\n      dup2\n      0x20\n      add\n      0x20\n      dup3\n      mul\n      dup1\n      calldatasize\n      dup4\n      calldatacopy\n      dup1\n      dup3\n      add\n      swap2\n      pop\n      pop\n      swap1\n      pop\n    tag_111:\n      pop\n        /* \"message/concensus/Leader.sol\":5931:5992  address[] memory selectedItems = new address[](miners.length) */\n      swap1\n      pop\n        /* \"message/concensus/Leader.sol\":6002:6028  bool[] memory isItemChosen */\n      0x00\n        /* \"message/concensus/Leader.sol\":6042:6048  miners */\n      0x05\n        /* \"message/concensus/Leader.sol\":6042:6055  miners.length */\n      dup1\n      sload\n      swap1\n      pop\n        /* \"message/concensus/Leader.sol\":6031:6056  new bool[](miners.length) */\n      0xffffffffffffffff\n      dup2\n      gt\n      iszero\n      tag_112\n      jumpi\n      tag_113\n      tag_110\n      jump\t// in\n    tag_113:\n    tag_112:\n      mload(0x40)\n      swap1\n      dup1\n      dup3\n      mstore\n      dup1\n      0x20\n      mul\n      0x20\n      add\n      dup3\n      add\n      0x40\n      mstore\n      dup1\n      iszero\n      tag_114\n      jumpi\n      dup2\n      0x20\n      add\n      0x20\n      dup3\n      mul\n      dup1\n      calldatasize\n      dup4\n      calldatacopy\n      dup1\n      dup3\n      add\n      swap2\n      pop\n      pop\n      swap1\n      pop\n    tag_114:\n      pop\n        /* \"message/concensus/Leader.sol\":6002:6056  bool[] memory isItemChosen = new bool[](miners.length) */\n      swap1\n      pop\n        /* \"message/concensus/Leader.sol\":6070:6079  uint256 i */\n      0x00\n        /* \"message/concensus/Leader.sol\":6066:6456  for(uint256 i = 0; i < miners.length; i++) {... */\n    tag_115:\n        /* \"message/concensus/Leader.sol\":6089:6095  miners */\n      0x05\n        /* \"message/concensus/Leader.sol\":6089:6102  miners.length */\n      dup1\n      sload\n      swap1\n      pop\n        /* \"message/concensus/Leader.sol\":6085:6086  i */\n      dup2\n        /* \"message/concensus/Leader.sol\":6085:6102  i < miners.length */\n      lt\n        /* \"message/concensus/Leader.sol\":6066:6456  for(uint256 i = 0; i < miners.length; i++) {... */\n      iszero\n      tag_116\n      jumpi\n        /* \"message/concensus/Leader.sol\":6127:6139  isItemChosen */\n      dup2\n        /* \"message/concensus/Leader.sol\":6140:6141  i */\n      dup2\n        /* \"message/concensus/Leader.sol\":6127:6142  isItemChosen[i] */\n      dup2\n      mload\n      dup2\n      lt\n      tag_118\n      jumpi\n      tag_119\n      tag_64\n      jump\t// in\n    tag_119:\n    tag_118:\n      0x20\n      mul\n      0x20\n      add\n      add\n      mload\n        /* \"message/concensus/Leader.sol\":6162:6170  continue */\n      tag_117\n        /* \"message/concensus/Leader.sol\":6123:6185  if (isItemChosen[i]) {... */\n      jumpi\n        /* \"message/concensus/Leader.sol\":6245:6255  totalStake */\n      sload(0x03)\n        /* \"message/concensus/Leader.sol\":6223:6229  miners */\n      0x05\n        /* \"message/concensus/Leader.sol\":6230:6231  i */\n      dup3\n        /* \"message/concensus/Leader.sol\":6223:6232  miners[i] */\n      dup2\n      sload\n      dup2\n      lt\n      tag_121\n      jumpi\n      tag_122\n      tag_64\n      jump\t// in\n    tag_122:\n    tag_121:\n      swap1\n      0x00\n      mstore\n      keccak256(0x00, 0x20)\n      swap1\n      0x02\n      mul\n      add\n        /* \"message/concensus/Leader.sol\":6223:6244  miners[i].stakeAmount */\n      0x01\n      add\n      sload\n        /* \"message/concensus/Leader.sol\":6223:6255  miners[i].stakeAmount/totalStake */\n      tag_124\n      swap2\n      swap1\n      tag_125\n      jump\t// in\n    tag_124:\n        /* \"message/concensus/Leader.sol\":6198:6255  cumulativeProbability += miners[i].stakeAmount/totalStake */\n      dup5\n      tag_126\n      swap2\n      swap1\n      tag_102\n      jump\t// in\n    tag_126:\n      swap4\n      pop\n        /* \"message/concensus/Leader.sol\":6286:6307  cumulativeProbability */\n      dup4\n        /* \"message/concensus/Leader.sol\":6272:6283  randomValue */\n      dup6\n        /* \"message/concensus/Leader.sol\":6272:6307  randomValue < cumulativeProbability */\n      lt\n        /* \"message/concensus/Leader.sol\":6269:6446  if(randomValue < cumulativeProbability) {... */\n      iszero\n      tag_127\n      jumpi\n        /* \"message/concensus/Leader.sol\":6346:6352  miners */\n      0x05\n        /* \"message/concensus/Leader.sol\":6353:6354  i */\n      dup2\n        /* \"message/concensus/Leader.sol\":6346:6355  miners[i] */\n      dup2\n      sload\n      dup2\n      lt\n      tag_128\n      jumpi\n      tag_129\n      tag_64\n      jump\t// in\n    tag_129:\n    tag_128:\n      swap1\n      0x00\n      mstore\n      keccak256(0x00, 0x20)\n      swap1\n      0x02\n      mul\n      add\n        /* \"message/concensus/Leader.sol\":6346:6368  miners[i].minerAddress */\n      0x00\n      add\n      0x00\n      swap1\n      sload\n      swap1\n      0x0100\n      exp\n      swap1\n      div\n      0xffffffffffffffffffffffffffffffffffffffff\n      and\n        /* \"message/concensus/Leader.sol\":6327:6340  selectedItems */\n      dup4\n        /* \"message/concensus/Leader.sol\":6341:6342  i */\n      dup3\n        /* \"message/concensus/Leader.sol\":6327:6343  selectedItems[i] */\n      dup2\n      mload\n      dup2\n      lt\n      tag_131\n      jumpi\n      tag_132\n      tag_64\n      jump\t// in\n    tag_132:\n    tag_131:\n      0x20\n      mul\n      0x20\n      add\n      add\n        /* \"message/concensus/Leader.sol\":6327:6368  selectedItems[i] = miners[i].minerAddress */\n      swap1\n      0xffffffffffffffffffffffffffffffffffffffff\n      and\n      swap1\n      dup2\n      0xffffffffffffffffffffffffffffffffffffffff\n      and\n      dup2\n      mstore\n      pop\n      pop\n        /* \"message/concensus/Leader.sol\":6404:6408  true */\n      0x01\n        /* \"message/concensus/Leader.sol\":6386:6398  isItemChosen */\n      dup3\n        /* \"message/concensus/Leader.sol\":6399:6400  i */\n      dup3\n        /* \"message/concensus/Leader.sol\":6386:6401  isItemChosen[i] */\n      dup2\n      mload\n      dup2\n      lt\n      tag_133\n      jumpi\n      tag_134\n      tag_64\n      jump\t// in\n    tag_134:\n    tag_133:\n      0x20\n      mul\n      0x20\n      add\n      add\n        /* \"message/concensus/Leader.sol\":6386:6408  isItemChosen[i] = true */\n      swap1\n      iszero\n      iszero\n      swap1\n      dup2\n      iszero\n      iszero\n      dup2\n      mstore\n      pop\n      pop\n        /* \"message/concensus/Leader.sol\":6426:6431  break */\n      jump(tag_116)\n        /* \"message/concensus/Leader.sol\":6269:6446  if(randomValue < cumulativeProbability) {... */\n    tag_127:\n        /* \"message/concensus/Leader.sol\":6066:6456  for(uint256 i = 0; i < miners.length; i++) {... */\n    tag_117:\n        /* \"message/concensus/Leader.sol\":6104:6107  i++ */\n      dup1\n      dup1\n      tag_135\n      swap1\n      tag_68\n      jump\t// in\n    tag_135:\n      swap2\n      pop\n      pop\n        /* \"message/concensus/Leader.sol\":6066:6456  for(uint256 i = 0; i < miners.length; i++) {... */\n      jump(tag_115)\n    tag_116:\n      pop\n        /* \"message/concensus/Leader.sol\":6472:6485  selectedItems */\n      dup2\n        /* \"message/concensus/Leader.sol\":6465:6485  return selectedItems */\n      swap5\n      pop\n      pop\n      pop\n      pop\n      pop\n        /* \"message/concensus/Leader.sol\":5765:6492  function selectRandomMiner() public view returns(address[] memory) {... */\n      swap1\n      jump\t// out\n        /* \"message/concensus/Leader.sol\":6498:6641  function setMaximumCandidateNumber(uint256 _maxCandiateNumber) public recommendationOff{... */\n    tag_31:\n        /* \"message/concensus/Leader.sol\":2323:2341  isRecommendationOn */\n      0x02\n      0x01\n      swap1\n      sload\n      swap1\n      0x0100\n      exp\n      swap1\n      div\n      0xff\n      and\n        /* \"message/concensus/Leader.sol\":2322:2341  !isRecommendationOn */\n      iszero\n        /* \"message/concensus/Leader.sol\":2314:2369  require(!isRecommendationOn,\"Recommendation is active\") */\n      tag_137\n      jumpi\n      mload(0x40)\n      0x08c379a000000000000000000000000000000000000000000000000000000000\n      dup2\n      mstore\n      0x04\n      add\n      tag_138\n      swap1\n      tag_139\n      jump\t// in\n    tag_138:\n      mload(0x40)\n      dup1\n      swap2\n      sub\n      swap1\n      revert\n    tag_137:\n        /* \"message/concensus/Leader.sol\":6616:6634  _maxCandiateNumber */\n      dup1\n        /* \"message/concensus/Leader.sol\":6595:6613  maxCandidateNumber */\n      0x01\n        /* \"message/concensus/Leader.sol\":6595:6634  maxCandidateNumber = _maxCandiateNumber */\n      dup2\n      swap1\n      sstore\n      pop\n        /* \"message/concensus/Leader.sol\":6498:6641  function setMaximumCandidateNumber(uint256 _maxCandiateNumber) public recommendationOff{... */\n      pop\n      jump\t// out\n        /* \"message/concensus/Leader.sol\":2783:3084  function finishRecommendation() public {... */\n    tag_34:\n        /* \"message/concensus/Leader.sol\":2853:2858  false */\n      0x00\n        /* \"message/concensus/Leader.sol\":2832:2850  isRecommendationOn */\n      0x02\n      0x01\n        /* \"message/concensus/Leader.sol\":2832:2858  isRecommendationOn = false */\n      0x0100\n      exp\n      dup2\n      sload\n      dup2\n      0xff\n      mul\n      not\n      and\n      swap1\n      dup4\n      iszero\n      iszero\n      mul\n      or\n      swap1\n      sstore\n      pop\n        /* \"message/concensus/Leader.sol\":2868:2900  Candidate[] memory topCandidates */\n      0x00\n        /* \"message/concensus/Leader.sol\":2903:2921  getTopCandidates() */\n      tag_142\n        /* \"message/concensus/Leader.sol\":2903:2919  getTopCandidates */\n      tag_42\n        /* \"message/concensus/Leader.sol\":2903:2921  getTopCandidates() */\n      jump\t// in\n    tag_142:\n        /* \"message/concensus/Leader.sol\":2868:2921  Candidate[] memory topCandidates = getTopCandidates() */\n      swap1\n      pop\n        /* \"message/concensus/Leader.sol\":2936:2949  uint256 index */\n      0x00\n        /* \"message/concensus/Leader.sol\":2931:3078  for (uint256 index=0; index < topCandidates.length; index++) ... */\n    tag_143:\n        /* \"message/concensus/Leader.sol\":2961:2974  topCandidates */\n      dup2\n        /* \"message/concensus/Leader.sol\":2961:2981  topCandidates.length */\n      mload\n        /* \"message/concensus/Leader.sol\":2953:2958  index */\n      dup2\n        /* \"message/concensus/Leader.sol\":2953:2981  index < topCandidates.length */\n      lt\n        /* \"message/concensus/Leader.sol\":2931:3078  for (uint256 index=0; index < topCandidates.length; index++) ... */\n      iszero\n      tag_144\n      jumpi\n        /* \"message/concensus/Leader.sol\":3015:3028  topicsForVote */\n      0x07\n        /* \"message/concensus/Leader.sol\":3015:3040  topicsForVote[turnNumber] */\n      0x00\n        /* \"message/concensus/Leader.sol\":3029:3039  turnNumber */\n      dup1\n      sload\n        /* \"message/concensus/Leader.sol\":3015:3040  topicsForVote[turnNumber] */\n      dup2\n      mstore\n      0x20\n      add\n      swap1\n      dup2\n      mstore\n      0x20\n      add\n      0x00\n      keccak256\n        /* \"message/concensus/Leader.sol\":3046:3059  topCandidates */\n      dup3\n        /* \"message/concensus/Leader.sol\":3060:3065  index */\n      dup3\n        /* \"message/concensus/Leader.sol\":3046:3066  topCandidates[index] */\n      dup2\n      mload\n      dup2\n      lt\n      tag_146\n      jumpi\n      tag_147\n      tag_64\n      jump\t// in\n    tag_147:\n    tag_146:\n      0x20\n      mul\n      0x20\n      add\n      add\n      mload\n        /* \"message/concensus/Leader.sol\":3015:3067  topicsForVote[turnNumber].push(topCandidates[index]) */\n      swap1\n      dup1\n      0x01\n      dup2\n      sload\n      add\n      dup1\n      dup3\n      sstore\n      dup1\n      swap2\n      pop\n      pop\n      0x01\n      swap1\n      sub\n      swap1\n      0x00\n      mstore\n      keccak256(0x00, 0x20)\n      swap1\n      0x03\n      mul\n      add\n      0x00\n      swap1\n      swap2\n      swap1\n      swap2\n      swap1\n      swap2\n      pop\n      0x00\n      dup3\n      add\n      mload\n      dup2\n      0x00\n      add\n      swap1\n      dup2\n      tag_149\n      swap2\n      swap1\n      tag_150\n      jump\t// in\n    tag_149:\n      pop\n      0x20\n      dup3\n      add\n      mload\n      dup2\n      0x01\n      add\n      exp(0x0100, 0x00)\n      dup2\n      sload\n      dup2\n      0xffffffffffffffffffffffffffffffffffffffff\n      mul\n      not\n      and\n      swap1\n      dup4\n      0xffffffffffffffffffffffffffffffffffffffff\n      and\n      mul\n      or\n      swap1\n      sstore\n      pop\n      0x40\n      dup3\n      add\n      mload\n      dup2\n      0x02\n      add\n      sstore\n      pop\n      pop\n        /* \"message/concensus/Leader.sol\":2983:2990  index++ */\n      dup1\n      dup1\n      tag_151\n      swap1\n      tag_68\n      jump\t// in\n    tag_151:\n      swap2\n      pop\n      pop\n        /* \"message/concensus/Leader.sol\":2931:3078  for (uint256 index=0; index < topCandidates.length; index++) ... */\n      jump(tag_143)\n    tag_144:\n      pop\n        /* \"message/concensus/Leader.sol\":2822:3084  {... */\n      pop\n        /* \"message/concensus/Leader.sol\":2783:3084  function finishRecommendation() public {... */\n      jump\t// out\n        /* \"message/concensus/Leader.sol\":6647:6754  function getMaximumCandidateNumber() public view returns(uint256){... */\n    tag_37:\n        /* \"message/concensus/Leader.sol\":6704:6711  uint256 */\n      0x00\n        /* \"message/concensus/Leader.sol\":6729:6747  maxCandidateNumber */\n      sload(0x01)\n        /* \"message/concensus/Leader.sol\":6722:6747  return maxCandidateNumber */\n      swap1\n      pop\n        /* \"message/concensus/Leader.sol\":6647:6754  function getMaximumCandidateNumber() public view returns(uint256){... */\n      swap1\n      jump\t// out\n        /* \"message/concensus/Leader.sol\":3543:4974  function getTopCandidates() public view returns (Candidate[] memory) {... */\n    tag_42:\n        /* \"message/concensus/Leader.sol\":3592:3610  Candidate[] memory */\n      0x60\n        /* \"message/concensus/Leader.sol\":3682:3683  2 */\n      0x02\n        /* \"message/concensus/Leader.sol\":3663:3681  maxCandidateNumber */\n      sload(0x01)\n        /* \"message/concensus/Leader.sol\":3663:3683  maxCandidateNumber/2 */\n      tag_154\n      swap2\n      swap1\n      tag_125\n      jump\t// in\n    tag_154:\n        /* \"message/concensus/Leader.sol\":3630:3640  candidates */\n      0x08\n        /* \"message/concensus/Leader.sol\":3630:3652  candidates[turnNumber] */\n      0x00\n        /* \"message/concensus/Leader.sol\":3641:3651  turnNumber */\n      dup1\n      sload\n        /* \"message/concensus/Leader.sol\":3630:3652  candidates[turnNumber] */\n      dup2\n      mstore\n      0x20\n      add\n      swap1\n      dup2\n      mstore\n      0x20\n      add\n      0x00\n      keccak256\n        /* \"message/concensus/Leader.sol\":3630:3659  candidates[turnNumber].length */\n      dup1\n      sload\n      swap1\n      pop\n        /* \"message/concensus/Leader.sol\":3630:3683  candidates[turnNumber].length >= maxCandidateNumber/2 */\n      lt\n      iszero\n        /* \"message/concensus/Leader.sol\":3622:3709  require(candidates[turnNumber].length >= maxCandidateNumber/2, \"Not enough candidates\") */\n      tag_155\n      jumpi\n      mload(0x40)\n      0x08c379a000000000000000000000000000000000000000000000000000000000\n      dup2\n      mstore\n      0x04\n      add\n      tag_156\n      swap1\n      tag_157\n      jump\t// in\n    tag_156:\n      mload(0x40)\n      dup1\n      swap2\n      sub\n      swap1\n      revert\n    tag_155:\n        /* \"message/concensus/Leader.sol\":3719:3746  uint256 totalSelectedAmount */\n      0x00\n        /* \"message/concensus/Leader.sol\":3768:3769  2 */\n      0x02\n        /* \"message/concensus/Leader.sol\":3749:3767  maxCandidateNumber */\n      sload(0x01)\n        /* \"message/concensus/Leader.sol\":3749:3769  maxCandidateNumber/2 */\n      tag_158\n      swap2\n      swap1\n      tag_125\n      jump\t// in\n    tag_158:\n        /* \"message/concensus/Leader.sol\":3719:3769  uint256 totalSelectedAmount = maxCandidateNumber/2 */\n      swap1\n      pop\n        /* \"message/concensus/Leader.sol\":3779:3811  Candidate[] memory topCandidates */\n      0x00\n        /* \"message/concensus/Leader.sol\":3830:3849  totalSelectedAmount */\n      dup2\n        /* \"message/concensus/Leader.sol\":3814:3850  new Candidate[](totalSelectedAmount) */\n      0xffffffffffffffff\n      dup2\n      gt\n      iszero\n      tag_159\n      jumpi\n      tag_160\n      tag_110\n      jump\t// in\n    tag_160:\n    tag_159:\n      mload(0x40)\n      swap1\n      dup1\n      dup3\n      mstore\n      dup1\n      0x20\n      mul\n      0x20\n      add\n      dup3\n      add\n      0x40\n      mstore\n      dup1\n      iszero\n      tag_161\n      jumpi\n      dup2\n      0x20\n      add\n    tag_162:\n      tag_163\n      tag_164\n      jump\t// in\n    tag_163:\n      dup2\n      mstore\n      0x20\n      add\n      swap1\n      0x01\n      swap1\n      sub\n      swap1\n      dup2\n      tag_162\n      jumpi\n      swap1\n      pop\n    tag_161:\n      pop\n        /* \"message/concensus/Leader.sol\":3779:3850  Candidate[] memory topCandidates = new Candidate[](totalSelectedAmount) */\n      swap1\n      pop\n        /* \"message/concensus/Leader.sol\":3860:3885  uint256[] memory maxVotes */\n      0x00\n        /* \"message/concensus/Leader.sol\":3902:3921  totalSelectedAmount */\n      dup3\n        /* \"message/concensus/Leader.sol\":3888:3922  new uint256[](totalSelectedAmount) */\n      0xffffffffffffffff\n      dup2\n      gt\n      iszero\n      tag_165\n      jumpi\n      tag_166\n      tag_110\n      jump\t// in\n    tag_166:\n    tag_165:\n      mload(0x40)\n      swap1\n      dup1\n      dup3\n      mstore\n      dup1\n      0x20\n      mul\n      0x20\n      add\n      dup3\n      add\n      0x40\n      mstore\n      dup1\n      iszero\n      tag_167\n      jumpi\n      dup2\n      0x20\n      add\n      0x20\n      dup3\n      mul\n      dup1\n      calldatasize\n      dup4\n      calldatacopy\n      dup1\n      dup3\n      add\n      swap2\n      pop\n      pop\n      swap1\n      pop\n    tag_167:\n      pop\n        /* \"message/concensus/Leader.sol\":3860:3922  uint256[] memory maxVotes = new uint256[](totalSelectedAmount) */\n      swap1\n      pop\n        /* \"message/concensus/Leader.sol\":4021:4030  uint256 i */\n      0x00\n        /* \"message/concensus/Leader.sol\":4016:4198  for (uint256 i = 0; i < totalSelectedAmount; i++) {... */\n    tag_168:\n        /* \"message/concensus/Leader.sol\":4040:4059  totalSelectedAmount */\n      dup4\n        /* \"message/concensus/Leader.sol\":4036:4037  i */\n      dup2\n        /* \"message/concensus/Leader.sol\":4036:4059  i < totalSelectedAmount */\n      lt\n        /* \"message/concensus/Leader.sol\":4016:4198  for (uint256 i = 0; i < totalSelectedAmount; i++) {... */\n      iszero\n      tag_169\n      jumpi\n        /* \"message/concensus/Leader.sol\":4099:4109  candidates */\n      0x08\n        /* \"message/concensus/Leader.sol\":4099:4121  candidates[turnNumber] */\n      0x00\n        /* \"message/concensus/Leader.sol\":4110:4120  turnNumber */\n      dup1\n      sload\n        /* \"message/concensus/Leader.sol\":4099:4121  candidates[turnNumber] */\n      dup2\n      mstore\n      0x20\n      add\n      swap1\n      dup2\n      mstore\n      0x20\n      add\n      0x00\n      keccak256\n        /* \"message/concensus/Leader.sol\":4122:4123  i */\n      dup2\n        /* \"message/concensus/Leader.sol\":4099:4124  candidates[turnNumber][i] */\n      dup2\n      sload\n      dup2\n      lt\n      tag_171\n      jumpi\n      tag_172\n      tag_64\n      jump\t// in\n    tag_172:\n    tag_171:\n      swap1\n      0x00\n      mstore\n      keccak256(0x00, 0x20)\n      swap1\n      0x03\n      mul\n      add\n        /* \"message/concensus/Leader.sol\":4080:4124  topCandidates[i] = candidates[turnNumber][i] */\n      mload(0x40)\n      dup1\n      0x60\n      add\n      0x40\n      mstore\n      swap1\n      dup2\n      0x00\n      dup3\n      add\n      dup1\n      sload\n      tag_174\n      swap1\n      tag_175\n      jump\t// in\n    tag_174:\n      dup1\n      0x1f\n      add\n      0x20\n      dup1\n      swap2\n      div\n      mul\n      0x20\n      add\n      mload(0x40)\n      swap1\n      dup2\n      add\n      0x40\n      mstore\n      dup1\n      swap3\n      swap2\n      swap1\n      dup2\n      dup2\n      mstore\n      0x20\n      add\n      dup3\n      dup1\n      sload\n      tag_176\n      swap1\n      tag_175\n      jump\t// in\n    tag_176:\n      dup1\n      iszero\n      tag_177\n      jumpi\n      dup1\n      0x1f\n      lt\n      tag_178\n      jumpi\n      0x0100\n      dup1\n      dup4\n      sload\n      div\n      mul\n      dup4\n      mstore\n      swap2\n      0x20\n      add\n      swap2\n      jump(tag_177)\n    tag_178:\n      dup3\n      add\n      swap2\n      swap1\n      0x00\n      mstore\n      keccak256(0x00, 0x20)\n      swap1\n    tag_179:\n      dup2\n      sload\n      dup2\n      mstore\n      swap1\n      0x01\n      add\n      swap1\n      0x20\n      add\n      dup1\n      dup4\n      gt\n      tag_179\n      jumpi\n      dup3\n      swap1\n      sub\n      0x1f\n      and\n      dup3\n      add\n      swap2\n    tag_177:\n      pop\n      pop\n      pop\n      pop\n      pop\n      dup2\n      mstore\n      0x20\n      add\n      0x01\n      dup3\n      add\n      0x00\n      swap1\n      sload\n      swap1\n      0x0100\n      exp\n      swap1\n      div\n      0xffffffffffffffffffffffffffffffffffffffff\n      and\n      0xffffffffffffffffffffffffffffffffffffffff\n      and\n      0xffffffffffffffffffffffffffffffffffffffff\n      and\n      dup2\n      mstore\n      0x20\n      add\n      0x02\n      dup3\n      add\n      sload\n      dup2\n      mstore\n      pop\n      pop\n        /* \"message/concensus/Leader.sol\":4080:4093  topCandidates */\n      dup4\n        /* \"message/concensus/Leader.sol\":4094:4095  i */\n      dup3\n        /* \"message/concensus/Leader.sol\":4080:4096  topCandidates[i] */\n      dup2\n      mload\n      dup2\n      lt\n      tag_180\n      jumpi\n      tag_181\n      tag_64\n      jump\t// in\n    tag_181:\n    tag_180:\n      0x20\n      mul\n      0x20\n      add\n      add\n        /* \"message/concensus/Leader.sol\":4080:4124  topCandidates[i] = candidates[turnNumber][i] */\n      dup2\n      swap1\n      mstore\n      pop\n        /* \"message/concensus/Leader.sol\":4152:4162  candidates */\n      0x08\n        /* \"message/concensus/Leader.sol\":4152:4174  candidates[turnNumber] */\n      0x00\n        /* \"message/concensus/Leader.sol\":4163:4173  turnNumber */\n      dup1\n      sload\n        /* \"message/concensus/Leader.sol\":4152:4174  candidates[turnNumber] */\n      dup2\n      mstore\n      0x20\n      add\n      swap1\n      dup2\n      mstore\n      0x20\n      add\n      0x00\n      keccak256\n        /* \"message/concensus/Leader.sol\":4175:4176  i */\n      dup2\n        /* \"message/concensus/Leader.sol\":4152:4177  candidates[turnNumber][i] */\n      dup2\n      sload\n      dup2\n      lt\n      tag_182\n      jumpi\n      tag_183\n      tag_64\n      jump\t// in\n    tag_183:\n    tag_182:\n      swap1\n      0x00\n      mstore\n      keccak256(0x00, 0x20)\n      swap1\n      0x03\n      mul\n      add\n        /* \"message/concensus/Leader.sol\":4152:4187  candidates[turnNumber][i].totalVote */\n      0x02\n      add\n      sload\n        /* \"message/concensus/Leader.sol\":4138:4146  maxVotes */\n      dup3\n        /* \"message/concensus/Leader.sol\":4147:4148  i */\n      dup3\n        /* \"message/concensus/Leader.sol\":4138:4149  maxVotes[i] */\n      dup2\n      mload\n      dup2\n      lt\n      tag_185\n      jumpi\n      tag_186\n      tag_64\n      jump\t// in\n    tag_186:\n    tag_185:\n      0x20\n      mul\n      0x20\n      add\n      add\n        /* \"message/concensus/Leader.sol\":4138:4187  maxVotes[i] = candidates[turnNumber][i].totalVote */\n      dup2\n      dup2\n      mstore\n      pop\n      pop\n        /* \"message/concensus/Leader.sol\":4061:4064  i++ */\n      dup1\n      dup1\n      tag_187\n      swap1\n      tag_68\n      jump\t// in\n    tag_187:\n      swap2\n      pop\n      pop\n        /* \"message/concensus/Leader.sol\":4016:4198  for (uint256 i = 0; i < totalSelectedAmount; i++) {... */\n      jump(tag_168)\n    tag_169:\n      pop\n        /* \"message/concensus/Leader.sol\":4221:4234  uint256 index */\n      0x00\n        /* \"message/concensus/Leader.sol\":4237:4256  totalSelectedAmount */\n      dup4\n        /* \"message/concensus/Leader.sol\":4221:4256  uint256 index = totalSelectedAmount */\n      swap1\n      pop\n        /* \"message/concensus/Leader.sol\":4216:4938  for (uint256 index = totalSelectedAmount; index<candidates[turnNumber].length; index++) ... */\n    tag_188:\n        /* \"message/concensus/Leader.sol\":4264:4274  candidates */\n      0x08\n        /* \"message/concensus/Leader.sol\":4264:4286  candidates[turnNumber] */\n      0x00\n        /* \"message/concensus/Leader.sol\":4275:4285  turnNumber */\n      dup1\n      sload\n        /* \"message/concensus/Leader.sol\":4264:4286  candidates[turnNumber] */\n      dup2\n      mstore\n      0x20\n      add\n      swap1\n      dup2\n      mstore\n      0x20\n      add\n      0x00\n      keccak256\n        /* \"message/concensus/Leader.sol\":4264:4293  candidates[turnNumber].length */\n      dup1\n      sload\n      swap1\n      pop\n        /* \"message/concensus/Leader.sol\":4258:4263  index */\n      dup2\n        /* \"message/concensus/Leader.sol\":4258:4293  index<candidates[turnNumber].length */\n      lt\n        /* \"message/concensus/Leader.sol\":4216:4938  for (uint256 index = totalSelectedAmount; index<candidates[turnNumber].length; index++) ... */\n      iszero\n      tag_189\n      jumpi\n        /* \"message/concensus/Leader.sol\":4327:4343  uint256 minIndex */\n      0x00\n        /* \"message/concensus/Leader.sol\":4361:4377  uint256 minValue */\n      dup1\n        /* \"message/concensus/Leader.sol\":4380:4388  maxVotes */\n      dup4\n        /* \"message/concensus/Leader.sol\":4389:4390  0 */\n      0x00\n        /* \"message/concensus/Leader.sol\":4380:4391  maxVotes[0] */\n      dup2\n      mload\n      dup2\n      lt\n      tag_191\n      jumpi\n      tag_192\n      tag_64\n      jump\t// in\n    tag_192:\n    tag_191:\n      0x20\n      mul\n      0x20\n      add\n      add\n      mload\n        /* \"message/concensus/Leader.sol\":4361:4391  uint256 minValue = maxVotes[0] */\n      swap1\n      pop\n        /* \"message/concensus/Leader.sol\":4495:4504  uint256 j */\n      0x00\n        /* \"message/concensus/Leader.sol\":4507:4508  1 */\n      0x01\n        /* \"message/concensus/Leader.sol\":4495:4508  uint256 j = 1 */\n      swap1\n      pop\n        /* \"message/concensus/Leader.sol\":4490:4679  for (uint256 j = 1; j < 5; j++) {... */\n    tag_193:\n        /* \"message/concensus/Leader.sol\":4514:4515  5 */\n      0x05\n        /* \"message/concensus/Leader.sol\":4510:4511  j */\n      dup2\n        /* \"message/concensus/Leader.sol\":4510:4515  j < 5 */\n      lt\n        /* \"message/concensus/Leader.sol\":4490:4679  for (uint256 j = 1; j < 5; j++) {... */\n      iszero\n      tag_194\n      jumpi\n        /* \"message/concensus/Leader.sol\":4558:4566  minValue */\n      dup2\n        /* \"message/concensus/Leader.sol\":4544:4552  maxVotes */\n      dup6\n        /* \"message/concensus/Leader.sol\":4553:4554  j */\n      dup3\n        /* \"message/concensus/Leader.sol\":4544:4555  maxVotes[j] */\n      dup2\n      mload\n      dup2\n      lt\n      tag_196\n      jumpi\n      tag_197\n      tag_64\n      jump\t// in\n    tag_197:\n    tag_196:\n      0x20\n      mul\n      0x20\n      add\n      add\n      mload\n        /* \"message/concensus/Leader.sol\":4544:4566  maxVotes[j] < minValue */\n      lt\n        /* \"message/concensus/Leader.sol\":4540:4665  if (maxVotes[j] < minValue) {... */\n      iszero\n      tag_198\n      jumpi\n        /* \"message/concensus/Leader.sol\":4601:4609  maxVotes */\n      dup5\n        /* \"message/concensus/Leader.sol\":4610:4611  j */\n      dup2\n        /* \"message/concensus/Leader.sol\":4601:4612  maxVotes[j] */\n      dup2\n      mload\n      dup2\n      lt\n      tag_199\n      jumpi\n      tag_200\n      tag_64\n      jump\t// in\n    tag_200:\n    tag_199:\n      0x20\n      mul\n      0x20\n      add\n      add\n      mload\n        /* \"message/concensus/Leader.sol\":4590:4612  minValue = maxVotes[j] */\n      swap2\n      pop\n        /* \"message/concensus/Leader.sol\":4645:4646  j */\n      dup1\n        /* \"message/concensus/Leader.sol\":4634:4646  minIndex = j */\n      swap3\n      pop\n        /* \"message/concensus/Leader.sol\":4540:4665  if (maxVotes[j] < minValue) {... */\n    tag_198:\n        /* \"message/concensus/Leader.sol\":4517:4520  j++ */\n      dup1\n      dup1\n      tag_201\n      swap1\n      tag_68\n      jump\t// in\n    tag_201:\n      swap2\n      pop\n      pop\n        /* \"message/concensus/Leader.sol\":4490:4679  for (uint256 j = 1; j < 5; j++) {... */\n      jump(tag_193)\n    tag_194:\n      pop\n        /* \"message/concensus/Leader.sol\":4739:4747  minValue */\n      dup1\n        /* \"message/concensus/Leader.sol\":4697:4707  candidates */\n      0x08\n        /* \"message/concensus/Leader.sol\":4697:4719  candidates[turnNumber] */\n      0x00\n        /* \"message/concensus/Leader.sol\":4708:4718  turnNumber */\n      dup1\n      sload\n        /* \"message/concensus/Leader.sol\":4697:4719  candidates[turnNumber] */\n      dup2\n      mstore\n      0x20\n      add\n      swap1\n      dup2\n      mstore\n      0x20\n      add\n      0x00\n      keccak256\n        /* \"message/concensus/Leader.sol\":4720:4725  index */\n      dup5\n        /* \"message/concensus/Leader.sol\":4697:4726  candidates[turnNumber][index] */\n      dup2\n      sload\n      dup2\n      lt\n      tag_202\n      jumpi\n      tag_203\n      tag_64\n      jump\t// in\n    tag_203:\n    tag_202:\n      swap1\n      0x00\n      mstore\n      keccak256(0x00, 0x20)\n      swap1\n      0x03\n      mul\n      add\n        /* \"message/concensus/Leader.sol\":4697:4736  candidates[turnNumber][index].totalVote */\n      0x02\n      add\n      sload\n        /* \"message/concensus/Leader.sol\":4697:4747  candidates[turnNumber][index].totalVote > minValue */\n      gt\n        /* \"message/concensus/Leader.sol\":4693:4915  if (candidates[turnNumber][index].totalVote > minValue) {... */\n      iszero\n      tag_205\n      jumpi\n        /* \"message/concensus/Leader.sol\":4788:4798  candidates */\n      0x08\n        /* \"message/concensus/Leader.sol\":4788:4810  candidates[turnNumber] */\n      0x00\n        /* \"message/concensus/Leader.sol\":4799:4809  turnNumber */\n      dup1\n      sload\n        /* \"message/concensus/Leader.sol\":4788:4810  candidates[turnNumber] */\n      dup2\n      mstore\n      0x20\n      add\n      swap1\n      dup2\n      mstore\n      0x20\n      add\n      0x00\n      keccak256\n        /* \"message/concensus/Leader.sol\":4811:4816  index */\n      dup4\n        /* \"message/concensus/Leader.sol\":4788:4817  candidates[turnNumber][index] */\n      dup2\n      sload\n      dup2\n      lt\n      tag_206\n      jumpi\n      tag_207\n      tag_64\n      jump\t// in\n    tag_207:\n    tag_206:\n      swap1\n      0x00\n      mstore\n      keccak256(0x00, 0x20)\n      swap1\n      0x03\n      mul\n      add\n        /* \"message/concensus/Leader.sol\":4788:4827  candidates[turnNumber][index].totalVote */\n      0x02\n      add\n      sload\n        /* \"message/concensus/Leader.sol\":4767:4775  maxVotes */\n      dup5\n        /* \"message/concensus/Leader.sol\":4776:4784  minIndex */\n      dup4\n        /* \"message/concensus/Leader.sol\":4767:4785  maxVotes[minIndex] */\n      dup2\n      mload\n      dup2\n      lt\n      tag_209\n      jumpi\n      tag_210\n      tag_64\n      jump\t// in\n    tag_210:\n    tag_209:\n      0x20\n      mul\n      0x20\n      add\n      add\n        /* \"message/concensus/Leader.sol\":4767:4827  maxVotes[minIndex] = candidates[turnNumber][index].totalVote */\n      dup2\n      dup2\n      mstore\n      pop\n      pop\n        /* \"message/concensus/Leader.sol\":4871:4881  candidates */\n      0x08\n        /* \"message/concensus/Leader.sol\":4871:4893  candidates[turnNumber] */\n      0x00\n        /* \"message/concensus/Leader.sol\":4882:4892  turnNumber */\n      dup1\n      sload\n        /* \"message/concensus/Leader.sol\":4871:4893  candidates[turnNumber] */\n      dup2\n      mstore\n      0x20\n      add\n      swap1\n      dup2\n      mstore\n      0x20\n      add\n      0x00\n      keccak256\n        /* \"message/concensus/Leader.sol\":4894:4899  index */\n      dup4\n        /* \"message/concensus/Leader.sol\":4871:4900  candidates[turnNumber][index] */\n      dup2\n      sload\n      dup2\n      lt\n      tag_211\n      jumpi\n      tag_212\n      tag_64\n      jump\t// in\n    tag_212:\n    tag_211:\n      swap1\n      0x00\n      mstore\n      keccak256(0x00, 0x20)\n      swap1\n      0x03\n      mul\n      add\n        /* \"message/concensus/Leader.sol\":4845:4900  topCandidates[minIndex] = candidates[turnNumber][index] */\n      mload(0x40)\n      dup1\n      0x60\n      add\n      0x40\n      mstore\n      swap1\n      dup2\n      0x00\n      dup3\n      add\n      dup1\n      sload\n      tag_214\n      swap1\n      tag_175\n      jump\t// in\n    tag_214:\n      dup1\n      0x1f\n      add\n      0x20\n      dup1\n      swap2\n      div\n      mul\n      0x20\n      add\n      mload(0x40)\n      swap1\n      dup2\n      add\n      0x40\n      mstore\n      dup1\n      swap3\n      swap2\n      swap1\n      dup2\n      dup2\n      mstore\n      0x20\n      add\n      dup3\n      dup1\n      sload\n      tag_215\n      swap1\n      tag_175\n      jump\t// in\n    tag_215:\n      dup1\n      iszero\n      tag_216\n      jumpi\n      dup1\n      0x1f\n      lt\n      tag_217\n      jumpi\n      0x0100\n      dup1\n      dup4\n      sload\n      div\n      mul\n      dup4\n      mstore\n      swap2\n      0x20\n      add\n      swap2\n      jump(tag_216)\n    tag_217:\n      dup3\n      add\n      swap2\n      swap1\n      0x00\n      mstore\n      keccak256(0x00, 0x20)\n      swap1\n    tag_218:\n      dup2\n      sload\n      dup2\n      mstore\n      swap1\n      0x01\n      add\n      swap1\n      0x20\n      add\n      dup1\n      dup4\n      gt\n      tag_218\n      jumpi\n      dup3\n      swap1\n      sub\n      0x1f\n      and\n      dup3\n      add\n      swap2\n    tag_216:\n      pop\n      pop\n      pop\n      pop\n      pop\n      dup2\n      mstore\n      0x20\n      add\n      0x01\n      dup3\n      add\n      0x00\n      swap1\n      sload\n      swap1\n      0x0100\n      exp\n      swap1\n      div\n      0xffffffffffffffffffffffffffffffffffffffff\n      and\n      0xffffffffffffffffffffffffffffffffffffffff\n      and\n      0xffffffffffffffffffffffffffffffffffffffff\n      and\n      dup2\n      mstore\n      0x20\n      add\n      0x02\n      dup3\n      add\n      sload\n      dup2\n      mstore\n      pop\n      pop\n        /* \"message/concensus/Leader.sol\":4845:4858  topCandidates */\n      dup6\n        /* \"message/concensus/Leader.sol\":4859:4867  minIndex */\n      dup4\n        /* \"message/concensus/Leader.sol\":4845:4868  topCandidates[minIndex] */\n      dup2\n      mload\n      dup2\n      lt\n      tag_219\n      jumpi\n      tag_220\n      tag_64\n      jump\t// in\n    tag_220:\n    tag_219:\n      0x20\n      mul\n      0x20\n      add\n      add\n        /* \"message/concensus/Leader.sol\":4845:4900  topCandidates[minIndex] = candidates[turnNumber][index] */\n      dup2\n      swap1\n      mstore\n      pop\n        /* \"message/concensus/Leader.sol\":4693:4915  if (candidates[turnNumber][index].totalVote > minValue) {... */\n    tag_205:\n        /* \"message/concensus/Leader.sol\":4313:4938  {... */\n      pop\n      pop\n        /* \"message/concensus/Leader.sol\":4295:4302  index++ */\n      dup1\n      dup1\n      tag_221\n      swap1\n      tag_68\n      jump\t// in\n    tag_221:\n      swap2\n      pop\n      pop\n        /* \"message/concensus/Leader.sol\":4216:4938  for (uint256 index = totalSelectedAmount; index<candidates[turnNumber].length; index++) ... */\n      jump(tag_188)\n    tag_189:\n      pop\n        /* \"message/concensus/Leader.sol\":4954:4967  topCandidates */\n      dup2\n        /* \"message/concensus/Leader.sol\":4947:4967  return topCandidates */\n      swap4\n      pop\n      pop\n      pop\n      pop\n        /* \"message/concensus/Leader.sol\":3543:4974  function getTopCandidates() public view returns (Candidate[] memory) {... */\n      swap1\n      jump\t// out\n        /* \"message/concensus/Leader.sol\":5563:5759  function recieveRecommender(string calldata value) external cannotOfferMoreThanOne lessThanMaxCandidate recommendationOn {... */\n    tag_49:\n        /* \"message/concensus/Leader.sol\":1653:1662  bool flag */\n      0x00\n        /* \"message/concensus/Leader.sol\":1685:1698  uint256 index */\n      dup1\n        /* \"message/concensus/Leader.sol\":1680:1884  for (uint256 index=0; index<candidates[turnNumber].length; index++) ... */\n    tag_223:\n        /* \"message/concensus/Leader.sol\":1708:1718  candidates */\n      0x08\n        /* \"message/concensus/Leader.sol\":1708:1730  candidates[turnNumber] */\n      0x00\n        /* \"message/concensus/Leader.sol\":1719:1729  turnNumber */\n      dup1\n      sload\n        /* \"message/concensus/Leader.sol\":1708:1730  candidates[turnNumber] */\n      dup2\n      mstore\n      0x20\n      add\n      swap1\n      dup2\n      mstore\n      0x20\n      add\n      0x00\n      keccak256\n        /* \"message/concensus/Leader.sol\":1708:1737  candidates[turnNumber].length */\n      dup1\n      sload\n      swap1\n      pop\n        /* \"message/concensus/Leader.sol\":1702:1707  index */\n      dup2\n        /* \"message/concensus/Leader.sol\":1702:1737  index<candidates[turnNumber].length */\n      lt\n        /* \"message/concensus/Leader.sol\":1680:1884  for (uint256 index=0; index<candidates[turnNumber].length; index++) ... */\n      iszero\n      tag_224\n      jumpi\n        /* \"message/concensus/Leader.sol\":1819:1829  msg.sender */\n      caller\n        /* \"message/concensus/Leader.sol\":1774:1829  candidates[turnNumber][index].recommender == msg.sender */\n      0xffffffffffffffffffffffffffffffffffffffff\n      and\n        /* \"message/concensus/Leader.sol\":1774:1784  candidates */\n      0x08\n        /* \"message/concensus/Leader.sol\":1774:1796  candidates[turnNumber] */\n      0x00\n        /* \"message/concensus/Leader.sol\":1785:1795  turnNumber */\n      dup1\n      sload\n        /* \"message/concensus/Leader.sol\":1774:1796  candidates[turnNumber] */\n      dup2\n      mstore\n      0x20\n      add\n      swap1\n      dup2\n      mstore\n      0x20\n      add\n      0x00\n      keccak256\n        /* \"message/concensus/Leader.sol\":1797:1802  index */\n      dup3\n        /* \"message/concensus/Leader.sol\":1774:1803  candidates[turnNumber][index] */\n      dup2\n      sload\n      dup2\n      lt\n      tag_226\n      jumpi\n      tag_227\n      tag_64\n      jump\t// in\n    tag_227:\n    tag_226:\n      swap1\n      0x00\n      mstore\n      keccak256(0x00, 0x20)\n      swap1\n      0x03\n      mul\n      add\n        /* \"message/concensus/Leader.sol\":1774:1815  candidates[turnNumber][index].recommender */\n      0x01\n      add\n      0x00\n      swap1\n      sload\n      swap1\n      0x0100\n      exp\n      swap1\n      div\n      0xffffffffffffffffffffffffffffffffffffffff\n      and\n        /* \"message/concensus/Leader.sol\":1774:1829  candidates[turnNumber][index].recommender == msg.sender */\n      0xffffffffffffffffffffffffffffffffffffffff\n      and\n      sub\n        /* \"message/concensus/Leader.sol\":1771:1874  if(candidates[turnNumber][index].recommender == msg.sender){... */\n      tag_229\n      jumpi\n        /* \"message/concensus/Leader.sol\":1855:1859  true */\n      0x01\n        /* \"message/concensus/Leader.sol\":1848:1859  flag = true */\n      swap2\n      pop\n        /* \"message/concensus/Leader.sol\":1771:1874  if(candidates[turnNumber][index].recommender == msg.sender){... */\n    tag_229:\n        /* \"message/concensus/Leader.sol\":1739:1746  index++ */\n      dup1\n      dup1\n      tag_230\n      swap1\n      tag_68\n      jump\t// in\n    tag_230:\n      swap2\n      pop\n      pop\n        /* \"message/concensus/Leader.sol\":1680:1884  for (uint256 index=0; index<candidates[turnNumber].length; index++) ... */\n      jump(tag_223)\n    tag_224:\n      pop\n        /* \"message/concensus/Leader.sol\":1902:1906  flag */\n      dup1\n        /* \"message/concensus/Leader.sol\":1901:1906  !flag */\n      iszero\n        /* \"message/concensus/Leader.sol\":1893:1945  require(!flag,\"User made the recommendation before\") */\n      tag_231\n      jumpi\n      mload(0x40)\n      0x08c379a000000000000000000000000000000000000000000000000000000000\n      dup2\n      mstore\n      0x04\n      add\n      tag_232\n      swap1\n      tag_233\n      jump\t// in\n    tag_232:\n      mload(0x40)\n      dup1\n      swap2\n      sub\n      swap1\n      revert\n    tag_231:\n        /* \"message/concensus/Leader.sol\":1547:1565  maxCandidateNumber */\n      sload(0x01)\n        /* \"message/concensus/Leader.sol\":1517:1527  candidates */\n      0x08\n        /* \"message/concensus/Leader.sol\":1517:1539  candidates[turnNumber] */\n      0x00\n        /* \"message/concensus/Leader.sol\":1528:1538  turnNumber */\n      dup1\n      sload\n        /* \"message/concensus/Leader.sol\":1517:1539  candidates[turnNumber] */\n      dup2\n      mstore\n      0x20\n      add\n      swap1\n      dup2\n      mstore\n      0x20\n      add\n      0x00\n      keccak256\n        /* \"message/concensus/Leader.sol\":1517:1546  candidates[turnNumber].length */\n      dup1\n      sload\n      swap1\n      pop\n        /* \"message/concensus/Leader.sol\":1517:1565  candidates[turnNumber].length<maxCandidateNumber */\n      lt\n        /* \"message/concensus/Leader.sol\":1509:1586  require(candidates[turnNumber].length<maxCandidateNumber,\"No more candidate\") */\n      tag_235\n      jumpi\n      mload(0x40)\n      0x08c379a000000000000000000000000000000000000000000000000000000000\n      dup2\n      mstore\n      0x04\n      add\n      tag_236\n      swap1\n      tag_237\n      jump\t// in\n    tag_236:\n      mload(0x40)\n      dup1\n      swap2\n      sub\n      swap1\n      revert\n    tag_235:\n        /* \"message/concensus/Leader.sol\":2202:2220  isRecommendationOn */\n      0x02\n      0x01\n      swap1\n      sload\n      swap1\n      0x0100\n      exp\n      swap1\n      div\n      0xff\n      and\n        /* \"message/concensus/Leader.sol\":2194:2252  require(isRecommendationOn,\"Recommendation is not active\") */\n      tag_239\n      jumpi\n      mload(0x40)\n      0x08c379a000000000000000000000000000000000000000000000000000000000\n      dup2\n      mstore\n      0x04\n      add\n      tag_240\n      swap1\n      tag_241\n      jump\t// in\n    tag_240:\n      mload(0x40)\n      dup1\n      swap2\n      sub\n      swap1\n      revert\n    tag_239:\n        /* \"message/concensus/Leader.sol\":5694:5704  candidates */\n      0x08\n        /* \"message/concensus/Leader.sol\":5694:5716  candidates[turnNumber] */\n      0x00\n        /* \"message/concensus/Leader.sol\":5705:5715  turnNumber */\n      dup1\n      sload\n        /* \"message/concensus/Leader.sol\":5694:5716  candidates[turnNumber] */\n      dup2\n      mstore\n      0x20\n      add\n      swap1\n      dup2\n      mstore\n      0x20\n      add\n      0x00\n      keccak256\n        /* \"message/concensus/Leader.sol\":5722:5751  Candidate(value,msg.sender,0) */\n      mload(0x40)\n      dup1\n      0x60\n      add\n      0x40\n      mstore\n      dup1\n        /* \"message/concensus/Leader.sol\":5732:5737  value */\n      dup6\n      dup6\n        /* \"message/concensus/Leader.sol\":5722:5751  Candidate(value,msg.sender,0) */\n      dup1\n      dup1\n      0x1f\n      add\n      0x20\n      dup1\n      swap2\n      div\n      mul\n      0x20\n      add\n      mload(0x40)\n      swap1\n      dup2\n      add\n      0x40\n      mstore\n      dup1\n      swap4\n      swap3\n      swap2\n      swap1\n      dup2\n      dup2\n      mstore\n      0x20\n      add\n      dup4\n      dup4\n      dup1\n      dup3\n      dup5\n      calldatacopy\n      0x00\n      dup2\n      dup5\n      add\n      mstore\n      not(0x1f)\n      0x1f\n      dup3\n      add\n      and\n      swap1\n      pop\n      dup1\n      dup4\n      add\n      swap3\n      pop\n      pop\n      pop\n      pop\n      pop\n      pop\n      pop\n      dup2\n      mstore\n      0x20\n      add\n        /* \"message/concensus/Leader.sol\":5738:5748  msg.sender */\n      caller\n        /* \"message/concensus/Leader.sol\":5722:5751  Candidate(value,msg.sender,0) */\n      0xffffffffffffffffffffffffffffffffffffffff\n      and\n      dup2\n      mstore\n      0x20\n      add\n        /* \"message/concensus/Leader.sol\":5749:5750  0 */\n      0x00\n        /* \"message/concensus/Leader.sol\":5722:5751  Candidate(value,msg.sender,0) */\n      dup2\n      mstore\n      pop\n        /* \"message/concensus/Leader.sol\":5694:5752  candidates[turnNumber].push(Candidate(value,msg.sender,0)) */\n      swap1\n      dup1\n      0x01\n      dup2\n      sload\n      add\n      dup1\n      dup3\n      sstore\n      dup1\n      swap2\n      pop\n      pop\n      0x01\n      swap1\n      sub\n      swap1\n      0x00\n      mstore\n      keccak256(0x00, 0x20)\n      swap1\n      0x03\n      mul\n      add\n      0x00\n      swap1\n      swap2\n      swap1\n      swap2\n      swap1\n      swap2\n      pop\n      0x00\n      dup3\n      add\n      mload\n      dup2\n      0x00\n      add\n      swap1\n      dup2\n      tag_244\n      swap2\n      swap1\n      tag_150\n      jump\t// in\n    tag_244:\n      pop\n      0x20\n      dup3\n      add\n      mload\n      dup2\n      0x01\n      add\n      exp(0x0100, 0x00)\n      dup2\n      sload\n      dup2\n      0xffffffffffffffffffffffffffffffffffffffff\n      mul\n      not\n      and\n      swap1\n      dup4\n      0xffffffffffffffffffffffffffffffffffffffff\n      and\n      mul\n      or\n      swap1\n      sstore\n      pop\n      0x40\n      dup3\n      add\n      mload\n      dup2\n      0x02\n      add\n      sstore\n      pop\n      pop\n        /* \"message/concensus/Leader.sol\":1643:1963  {... */\n      pop\n        /* \"message/concensus/Leader.sol\":5563:5759  function recieveRecommender(string calldata value) external cannotOfferMoreThanOne lessThanMaxCandidate recommendationOn {... */\n      pop\n      pop\n      jump\t// out\n        /* \"message/concensus/Leader.sol\":2474:2626  function finishVoting() external votingOn{... */\n    tag_52:\n        /* \"message/concensus/Leader.sol\":2006:2016  isVotingOn */\n      0x02\n      0x00\n      swap1\n      sload\n      swap1\n      0x0100\n      exp\n      swap1\n      div\n      0xff\n      and\n        /* \"message/concensus/Leader.sol\":1998:2040  require(isVotingOn,\"Voting is not active\") */\n      tag_246\n      jumpi\n      mload(0x40)\n      0x08c379a000000000000000000000000000000000000000000000000000000000\n      dup2\n      mstore\n      0x04\n      add\n      tag_247\n      swap1\n      tag_87\n      jump\t// in\n    tag_247:\n      mload(0x40)\n      dup1\n      swap2\n      sub\n      swap1\n      revert\n    tag_246:\n        /* \"message/concensus/Leader.sol\":2538:2543  false */\n      0x00\n        /* \"message/concensus/Leader.sol\":2525:2535  isVotingOn */\n      0x02\n      0x00\n        /* \"message/concensus/Leader.sol\":2525:2543  isVotingOn = false */\n      0x0100\n      exp\n      dup2\n      sload\n      dup2\n      0xff\n      mul\n      not\n      and\n      swap1\n      dup4\n      iszero\n      iszero\n      mul\n      or\n      swap1\n      sstore\n      pop\n        /* \"message/concensus/Leader.sol\":2598:2619  startRecommendation() */\n      tag_249\n        /* \"message/concensus/Leader.sol\":2598:2617  startRecommendation */\n      tag_250\n        /* \"message/concensus/Leader.sol\":2598:2619  startRecommendation() */\n      jump\t// in\n    tag_249:\n        /* \"message/concensus/Leader.sol\":2474:2626  function finishVoting() external votingOn{... */\n      jump\t// out\n        /* \"message/concensus/Leader.sol\":5375:5557  function pseudoRandom() private view returns(uint256) {... */\n    tag_107:\n        /* \"message/concensus/Leader.sol\":5420:5427  uint256 */\n      0x00\n        /* \"message/concensus/Leader.sol\":5532:5550  maxCandidateNumber */\n      sload(0x01)\n        /* \"message/concensus/Leader.sol\":5481:5496  block.timestamp */\n      timestamp\n        /* \"message/concensus/Leader.sol\":5498:5514  block.difficulty */\n      prevrandao\n        /* \"message/concensus/Leader.sol\":5516:5526  msg.sender */\n      caller\n        /* \"message/concensus/Leader.sol\":5464:5527  abi.encodePacked(block.timestamp, block.difficulty, msg.sender) */\n      add(0x20, mload(0x40))\n      tag_252\n      swap4\n      swap3\n      swap2\n      swap1\n      tag_253\n      jump\t// in\n    tag_252:\n      mload(0x40)\n      0x20\n      dup2\n      dup4\n      sub\n      sub\n      dup2\n      mstore\n      swap1\n      0x40\n      mstore\n        /* \"message/concensus/Leader.sol\":5454:5528  keccak256(abi.encodePacked(block.timestamp, block.difficulty, msg.sender)) */\n      dup1\n      mload\n      swap1\n      0x20\n      add\n      keccak256\n        /* \"message/concensus/Leader.sol\":5446:5529  uint256(keccak256(abi.encodePacked(block.timestamp, block.difficulty, msg.sender))) */\n      0x00\n      shr\n        /* \"message/concensus/Leader.sol\":5446:5550  uint256(keccak256(abi.encodePacked(block.timestamp, block.difficulty, msg.sender))) % maxCandidateNumber */\n      tag_254\n      swap2\n      swap1\n      tag_255\n      jump\t// in\n    tag_254:\n        /* \"message/concensus/Leader.sol\":5439:5550  return uint256(keccak256(abi.encodePacked(block.timestamp, block.difficulty, msg.sender))) % maxCandidateNumber */\n      swap1\n      pop\n        /* \"message/concensus/Leader.sol\":5375:5557  function pseudoRandom() private view returns(uint256) {... */\n      swap1\n      jump\t// out\n        /* \"message/concensus/Leader.sol\":2632:2777  function startRecommendation() private {... */\n    tag_250:\n        /* \"message/concensus/Leader.sol\":2693:2694  1 */\n      0x01\n        /* \"message/concensus/Leader.sol\":2681:2691  turnNumber */\n      0x00\n      dup1\n        /* \"message/concensus/Leader.sol\":2681:2694  turnNumber+=1 */\n      dup3\n      dup3\n      sload\n      tag_257\n      swap2\n      swap1\n      tag_102\n      jump\t// in\n    tag_257:\n      swap3\n      pop\n      pop\n      dup2\n      swap1\n      sstore\n      pop\n        /* \"message/concensus/Leader.sol\":2725:2729  true */\n      0x01\n        /* \"message/concensus/Leader.sol\":2704:2722  isRecommendationOn */\n      0x02\n      0x01\n        /* \"message/concensus/Leader.sol\":2704:2729  isRecommendationOn = true */\n      0x0100\n      exp\n      dup2\n      sload\n      dup2\n      0xff\n      mul\n      not\n      and\n      swap1\n      dup4\n      iszero\n      iszero\n      mul\n      or\n      swap1\n      sstore\n      pop\n        /* \"message/concensus/Leader.sol\":2739:2770  chooseMinersForRecommendation() */\n      tag_258\n        /* \"message/concensus/Leader.sol\":2739:2768  chooseMinersForRecommendation */\n      tag_259\n        /* \"message/concensus/Leader.sol\":2739:2770  chooseMinersForRecommendation() */\n      jump\t// in\n    tag_258:\n        /* \"message/concensus/Leader.sol\":2632:2777  function startRecommendation() private {... */\n      jump\t// out\n        /* \"message/concensus/Leader.sol\":4980:5369  function chooseMinersForRecommendation() private votingOff{... */\n    tag_259:\n        /* \"message/concensus/Leader.sol\":2103:2113  isVotingOn */\n      0x02\n      0x00\n      swap1\n      sload\n      swap1\n      0x0100\n      exp\n      swap1\n      div\n      0xff\n      and\n        /* \"message/concensus/Leader.sol\":2102:2113  !isVotingOn */\n      iszero\n        /* \"message/concensus/Leader.sol\":2094:2133  require(!isVotingOn,\"Voting is active\") */\n      tag_261\n      jumpi\n      mload(0x40)\n      0x08c379a000000000000000000000000000000000000000000000000000000000\n      dup2\n      mstore\n      0x04\n      add\n      tag_262\n      swap1\n      tag_56\n      jump\t// in\n    tag_262:\n      mload(0x40)\n      dup1\n      swap2\n      sub\n      swap1\n      revert\n    tag_261:\n        /* \"message/concensus/Leader.sol\":5048:5077  address[] memory chosenMiners */\n      0x00\n        /* \"message/concensus/Leader.sol\":5080:5099  selectRandomMiner() */\n      tag_264\n        /* \"message/concensus/Leader.sol\":5080:5097  selectRandomMiner */\n      tag_25\n        /* \"message/concensus/Leader.sol\":5080:5099  selectRandomMiner() */\n      jump\t// in\n    tag_264:\n        /* \"message/concensus/Leader.sol\":5048:5099  address[] memory chosenMiners = selectRandomMiner() */\n      swap1\n      pop\n        /* \"message/concensus/Leader.sol\":5114:5127  uint256 index */\n      0x00\n        /* \"message/concensus/Leader.sol\":5109:5363  for (uint256 index; index<chosenMiners.length; index++) ... */\n    tag_265:\n        /* \"message/concensus/Leader.sol\":5135:5147  chosenMiners */\n      dup2\n        /* \"message/concensus/Leader.sol\":5135:5154  chosenMiners.length */\n      mload\n        /* \"message/concensus/Leader.sol\":5129:5134  index */\n      dup2\n        /* \"message/concensus/Leader.sol\":5129:5154  index<chosenMiners.length */\n      lt\n        /* \"message/concensus/Leader.sol\":5109:5363  for (uint256 index; index<chosenMiners.length; index++) ... */\n      iszero\n      tag_266\n      jumpi\n        /* \"message/concensus/Leader.sol\":5188:5208  bytes memory payload */\n      0x00\n        /* \"message/concensus/Leader.sol\":5211:5257  abi.encodeWithSignature(\"recommenderModeOn()\") */\n      add(0x24, mload(0x40))\n      mload(0x40)\n      0x20\n      dup2\n      dup4\n      sub\n      sub\n      dup2\n      mstore\n      swap1\n      0x40\n      mstore\n      and(not(0xffffffffffffffffffffffffffffffffffffffffffffffffffffffff), 0x802b852600000000000000000000000000000000000000000000000000000000)\n      0x20\n      dup3\n      add\n      dup1\n      mload\n      0xffffffffffffffffffffffffffffffffffffffffffffffffffffffff\n      dup4\n      dup2\n      dup4\n      and\n      or\n      dup4\n      mstore\n      pop\n      pop\n      pop\n      pop\n        /* \"message/concensus/Leader.sol\":5188:5257  bytes memory payload = abi.encodeWithSignature(\"recommenderModeOn()\") */\n      swap1\n      pop\n        /* \"message/concensus/Leader.sol\":5272:5284  bool success */\n      0x00\n        /* \"message/concensus/Leader.sol\":5289:5301  chosenMiners */\n      dup4\n        /* \"message/concensus/Leader.sol\":5302:5307  index */\n      dup4\n        /* \"message/concensus/Leader.sol\":5289:5308  chosenMiners[index] */\n      dup2\n      mload\n      dup2\n      lt\n      tag_268\n      jumpi\n      tag_269\n      tag_64\n      jump\t// in\n    tag_269:\n    tag_268:\n      0x20\n      mul\n      0x20\n      add\n      add\n      mload\n        /* \"message/concensus/Leader.sol\":5289:5313  chosenMiners[index].call */\n      0xffffffffffffffffffffffffffffffffffffffff\n      and\n        /* \"message/concensus/Leader.sol\":5314:5321  payload */\n      dup3\n        /* \"message/concensus/Leader.sol\":5289:5322  chosenMiners[index].call(payload) */\n      mload(0x40)\n      tag_270\n      swap2\n      swap1\n      tag_271\n      jump\t// in\n    tag_270:\n      0x00\n      mload(0x40)\n      dup1\n      dup4\n      sub\n      dup2\n      0x00\n      dup7\n      gas\n      call\n      swap2\n      pop\n      pop\n      returndatasize\n      dup1\n      0x00\n      dup2\n      eq\n      tag_274\n      jumpi\n      mload(0x40)\n      swap2\n      pop\n      and(add(returndatasize, 0x3f), not(0x1f))\n      dup3\n      add\n      0x40\n      mstore\n      returndatasize\n      dup3\n      mstore\n      returndatasize\n      0x00\n      0x20\n      dup5\n      add\n      returndatacopy\n      jump(tag_273)\n    tag_274:\n      0x60\n      swap2\n      pop\n    tag_273:\n      pop\n        /* \"message/concensus/Leader.sol\":5271:5322  (bool success,) = chosenMiners[index].call(payload) */\n      pop\n      swap1\n      pop\n        /* \"message/concensus/Leader.sol\":5344:5351  success */\n      dup1\n        /* \"message/concensus/Leader.sol\":5336:5352  require(success) */\n      tag_275\n      jumpi\n      0x00\n      dup1\n      revert\n    tag_275:\n        /* \"message/concensus/Leader.sol\":5174:5363  {... */\n      pop\n      pop\n        /* \"message/concensus/Leader.sol\":5156:5163  index++ */\n      dup1\n      dup1\n      tag_276\n      swap1\n      tag_68\n      jump\t// in\n    tag_276:\n      swap2\n      pop\n      pop\n        /* \"message/concensus/Leader.sol\":5109:5363  for (uint256 index; index<chosenMiners.length; index++) ... */\n      jump(tag_265)\n    tag_266:\n      pop\n        /* \"message/concensus/Leader.sol\":5038:5369  {... */\n      pop\n        /* \"message/concensus/Leader.sol\":4980:5369  function chooseMinersForRecommendation() private votingOff{... */\n      jump\t// out\n    tag_164:\n      mload(0x40)\n      dup1\n      0x60\n      add\n      0x40\n      mstore\n      dup1\n      0x60\n      dup2\n      mstore\n      0x20\n      add\n      and(0xffffffffffffffffffffffffffffffffffffffff, 0x00)\n      dup2\n      mstore\n      0x20\n      add\n      0x00\n      dup2\n      mstore\n      pop\n      swap1\n      jump\t// out\n        /* \"#utility.yul\":88:205   */\n    tag_278:\n        /* \"#utility.yul\":197:198   */\n      0x00\n        /* \"#utility.yul\":194:195   */\n      dup1\n        /* \"#utility.yul\":187:199   */\n      revert\n        /* \"#utility.yul\":211:328   */\n    tag_279:\n        /* \"#utility.yul\":320:321   */\n      0x00\n        /* \"#utility.yul\":317:318   */\n      dup1\n        /* \"#utility.yul\":310:322   */\n      revert\n        /* \"#utility.yul\":334:411   */\n    tag_280:\n        /* \"#utility.yul\":371:378   */\n      0x00\n        /* \"#utility.yul\":400:405   */\n      dup2\n        /* \"#utility.yul\":389:405   */\n      swap1\n      pop\n        /* \"#utility.yul\":334:411   */\n      swap2\n      swap1\n      pop\n      jump\t// out\n        /* \"#utility.yul\":417:539   */\n    tag_281:\n        /* \"#utility.yul\":490:514   */\n      tag_362\n        /* \"#utility.yul\":508:513   */\n      dup2\n        /* \"#utility.yul\":490:514   */\n      tag_280\n      jump\t// in\n    tag_362:\n        /* \"#utility.yul\":483:488   */\n      dup2\n        /* \"#utility.yul\":480:515   */\n      eq\n        /* \"#utility.yul\":470:533   */\n      tag_363\n      jumpi\n        /* \"#utility.yul\":529:530   */\n      0x00\n        /* \"#utility.yul\":526:527   */\n      dup1\n        /* \"#utility.yul\":519:531   */\n      revert\n        /* \"#utility.yul\":470:533   */\n    tag_363:\n        /* \"#utility.yul\":417:539   */\n      pop\n      jump\t// out\n        /* \"#utility.yul\":545:684   */\n    tag_282:\n        /* \"#utility.yul\":591:596   */\n      0x00\n        /* \"#utility.yul\":629:635   */\n      dup2\n        /* \"#utility.yul\":616:636   */\n      calldataload\n        /* \"#utility.yul\":607:636   */\n      swap1\n      pop\n        /* \"#utility.yul\":645:678   */\n      tag_365\n        /* \"#utility.yul\":672:677   */\n      dup2\n        /* \"#utility.yul\":645:678   */\n      tag_281\n      jump\t// in\n    tag_365:\n        /* \"#utility.yul\":545:684   */\n      swap3\n      swap2\n      pop\n      pop\n      jump\t// out\n        /* \"#utility.yul\":690:1019   */\n    tag_19:\n        /* \"#utility.yul\":749:755   */\n      0x00\n        /* \"#utility.yul\":798:800   */\n      0x20\n        /* \"#utility.yul\":786:795   */\n      dup3\n        /* \"#utility.yul\":777:784   */\n      dup5\n        /* \"#utility.yul\":773:796   */\n      sub\n        /* \"#utility.yul\":769:801   */\n      slt\n        /* \"#utility.yul\":766:885   */\n      iszero\n      tag_367\n      jumpi\n        /* \"#utility.yul\":804:883   */\n      tag_368\n      tag_278\n      jump\t// in\n    tag_368:\n        /* \"#utility.yul\":766:885   */\n    tag_367:\n        /* \"#utility.yul\":924:925   */\n      0x00\n        /* \"#utility.yul\":949:1002   */\n      tag_369\n        /* \"#utility.yul\":994:1001   */\n      dup5\n        /* \"#utility.yul\":985:991   */\n      dup3\n        /* \"#utility.yul\":974:983   */\n      dup6\n        /* \"#utility.yul\":970:992   */\n      add\n        /* \"#utility.yul\":949:1002   */\n      tag_282\n      jump\t// in\n    tag_369:\n        /* \"#utility.yul\":939:1002   */\n      swap2\n      pop\n        /* \"#utility.yul\":895:1012   */\n      pop\n        /* \"#utility.yul\":690:1019   */\n      swap3\n      swap2\n      pop\n      pop\n      jump\t// out\n        /* \"#utility.yul\":1025:1139   */\n    tag_283:\n        /* \"#utility.yul\":1092:1098   */\n      0x00\n        /* \"#utility.yul\":1126:1131   */\n      dup2\n        /* \"#utility.yul\":1120:1132   */\n      mload\n        /* \"#utility.yul\":1110:1132   */\n      swap1\n      pop\n        /* \"#utility.yul\":1025:1139   */\n      swap2\n      swap1\n      pop\n      jump\t// out\n        /* \"#utility.yul\":1145:1329   */\n    tag_284:\n        /* \"#utility.yul\":1244:1255   */\n      0x00\n        /* \"#utility.yul\":1278:1284   */\n      dup3\n        /* \"#utility.yul\":1273:1276   */\n      dup3\n        /* \"#utility.yul\":1266:1285   */\n      mstore\n        /* \"#utility.yul\":1318:1322   */\n      0x20\n        /* \"#utility.yul\":1313:1316   */\n      dup3\n        /* \"#utility.yul\":1309:1323   */\n      add\n        /* \"#utility.yul\":1294:1323   */\n      swap1\n      pop\n        /* \"#utility.yul\":1145:1329   */\n      swap3\n      swap2\n      pop\n      pop\n      jump\t// out\n        /* \"#utility.yul\":1335:1467   */\n    tag_285:\n        /* \"#utility.yul\":1402:1406   */\n      0x00\n        /* \"#utility.yul\":1425:1428   */\n      dup2\n        /* \"#utility.yul\":1417:1428   */\n      swap1\n      pop\n        /* \"#utility.yul\":1455:1459   */\n      0x20\n        /* \"#utility.yul\":1450:1453   */\n      dup3\n        /* \"#utility.yul\":1446:1460   */\n      add\n        /* \"#utility.yul\":1438:1460   */\n      swap1\n      pop\n        /* \"#utility.yul\":1335:1467   */\n      swap2\n      swap1\n      pop\n      jump\t// out\n        /* \"#utility.yul\":1473:1599   */\n    tag_286:\n        /* \"#utility.yul\":1510:1517   */\n      0x00\n        /* \"#utility.yul\":1550:1592   */\n      0xffffffffffffffffffffffffffffffffffffffff\n        /* \"#utility.yul\":1543:1548   */\n      dup3\n        /* \"#utility.yul\":1539:1593   */\n      and\n        /* \"#utility.yul\":1528:1593   */\n      swap1\n      pop\n        /* \"#utility.yul\":1473:1599   */\n      swap2\n      swap1\n      pop\n      jump\t// out\n        /* \"#utility.yul\":1605:1701   */\n    tag_287:\n        /* \"#utility.yul\":1642:1649   */\n      0x00\n        /* \"#utility.yul\":1671:1695   */\n      tag_375\n        /* \"#utility.yul\":1689:1694   */\n      dup3\n        /* \"#utility.yul\":1671:1695   */\n      tag_286\n      jump\t// in\n    tag_375:\n        /* \"#utility.yul\":1660:1695   */\n      swap1\n      pop\n        /* \"#utility.yul\":1605:1701   */\n      swap2\n      swap1\n      pop\n      jump\t// out\n        /* \"#utility.yul\":1707:1815   */\n    tag_288:\n        /* \"#utility.yul\":1784:1808   */\n      tag_377\n        /* \"#utility.yul\":1802:1807   */\n      dup2\n        /* \"#utility.yul\":1784:1808   */\n      tag_287\n      jump\t// in\n    tag_377:\n        /* \"#utility.yul\":1779:1782   */\n      dup3\n        /* \"#utility.yul\":1772:1809   */\n      mstore\n        /* \"#utility.yul\":1707:1815   */\n      pop\n      pop\n      jump\t// out\n        /* \"#utility.yul\":1821:2000   */\n    tag_289:\n        /* \"#utility.yul\":1890:1900   */\n      0x00\n        /* \"#utility.yul\":1911:1957   */\n      tag_379\n        /* \"#utility.yul\":1953:1956   */\n      dup4\n        /* \"#utility.yul\":1945:1951   */\n      dup4\n        /* \"#utility.yul\":1911:1957   */\n      tag_288\n      jump\t// in\n    tag_379:\n        /* \"#utility.yul\":1989:1993   */\n      0x20\n        /* \"#utility.yul\":1984:1987   */\n      dup4\n        /* \"#utility.yul\":1980:1994   */\n      add\n        /* \"#utility.yul\":1966:1994   */\n      swap1\n      pop\n        /* \"#utility.yul\":1821:2000   */\n      swap3\n      swap2\n      pop\n      pop\n      jump\t// out\n        /* \"#utility.yul\":2006:2119   */\n    tag_290:\n        /* \"#utility.yul\":2076:2080   */\n      0x00\n        /* \"#utility.yul\":2108:2112   */\n      0x20\n        /* \"#utility.yul\":2103:2106   */\n      dup3\n        /* \"#utility.yul\":2099:2113   */\n      add\n        /* \"#utility.yul\":2091:2113   */\n      swap1\n      pop\n        /* \"#utility.yul\":2006:2119   */\n      swap2\n      swap1\n      pop\n      jump\t// out\n        /* \"#utility.yul\":2155:2887   */\n    tag_291:\n        /* \"#utility.yul\":2274:2277   */\n      0x00\n        /* \"#utility.yul\":2303:2357   */\n      tag_382\n        /* \"#utility.yul\":2351:2356   */\n      dup3\n        /* \"#utility.yul\":2303:2357   */\n      tag_283\n      jump\t// in\n    tag_382:\n        /* \"#utility.yul\":2373:2459   */\n      tag_383\n        /* \"#utility.yul\":2452:2458   */\n      dup2\n        /* \"#utility.yul\":2447:2450   */\n      dup6\n        /* \"#utility.yul\":2373:2459   */\n      tag_284\n      jump\t// in\n    tag_383:\n        /* \"#utility.yul\":2366:2459   */\n      swap4\n      pop\n        /* \"#utility.yul\":2483:2539   */\n      tag_384\n        /* \"#utility.yul\":2533:2538   */\n      dup4\n        /* \"#utility.yul\":2483:2539   */\n      tag_285\n      jump\t// in\n    tag_384:\n        /* \"#utility.yul\":2562:2569   */\n      dup1\n        /* \"#utility.yul\":2593:2594   */\n      0x00\n        /* \"#utility.yul\":2578:2862   */\n    tag_385:\n        /* \"#utility.yul\":2603:2609   */\n      dup4\n        /* \"#utility.yul\":2600:2601   */\n      dup2\n        /* \"#utility.yul\":2597:2610   */\n      lt\n        /* \"#utility.yul\":2578:2862   */\n      iszero\n      tag_387\n      jumpi\n        /* \"#utility.yul\":2679:2685   */\n      dup2\n        /* \"#utility.yul\":2673:2686   */\n      mload\n        /* \"#utility.yul\":2706:2769   */\n      tag_388\n        /* \"#utility.yul\":2765:2768   */\n      dup9\n        /* \"#utility.yul\":2750:2763   */\n      dup3\n        /* \"#utility.yul\":2706:2769   */\n      tag_289\n      jump\t// in\n    tag_388:\n        /* \"#utility.yul\":2699:2769   */\n      swap8\n      pop\n        /* \"#utility.yul\":2792:2852   */\n      tag_389\n        /* \"#utility.yul\":2845:2851   */\n      dup4\n        /* \"#utility.yul\":2792:2852   */\n      tag_290\n      jump\t// in\n    tag_389:\n        /* \"#utility.yul\":2782:2852   */\n      swap3\n      pop\n        /* \"#utility.yul\":2638:2862   */\n      pop\n        /* \"#utility.yul\":2625:2626   */\n      0x01\n        /* \"#utility.yul\":2622:2623   */\n      dup2\n        /* \"#utility.yul\":2618:2627   */\n      add\n        /* \"#utility.yul\":2613:2627   */\n      swap1\n      pop\n        /* \"#utility.yul\":2578:2862   */\n      jump(tag_385)\n    tag_387:\n        /* \"#utility.yul\":2582:2596   */\n      pop\n        /* \"#utility.yul\":2878:2881   */\n      dup6\n        /* \"#utility.yul\":2871:2881   */\n      swap4\n      pop\n        /* \"#utility.yul\":2279:2887   */\n      pop\n      pop\n      pop\n        /* \"#utility.yul\":2155:2887   */\n      swap3\n      swap2\n      pop\n      pop\n      jump\t// out\n        /* \"#utility.yul\":2893:3266   */\n    tag_27:\n        /* \"#utility.yul\":3036:3040   */\n      0x00\n        /* \"#utility.yul\":3074:3076   */\n      0x20\n        /* \"#utility.yul\":3063:3072   */\n      dup3\n        /* \"#utility.yul\":3059:3077   */\n      add\n        /* \"#utility.yul\":3051:3077   */\n      swap1\n      pop\n        /* \"#utility.yul\":3123:3132   */\n      dup2\n        /* \"#utility.yul\":3117:3121   */\n      dup2\n        /* \"#utility.yul\":3113:3133   */\n      sub\n        /* \"#utility.yul\":3109:3110   */\n      0x00\n        /* \"#utility.yul\":3098:3107   */\n      dup4\n        /* \"#utility.yul\":3094:3111   */\n      add\n        /* \"#utility.yul\":3087:3134   */\n      mstore\n        /* \"#utility.yul\":3151:3259   */\n      tag_391\n        /* \"#utility.yul\":3254:3258   */\n      dup2\n        /* \"#utility.yul\":3245:3251   */\n      dup5\n        /* \"#utility.yul\":3151:3259   */\n      tag_291\n      jump\t// in\n    tag_391:\n        /* \"#utility.yul\":3143:3259   */\n      swap1\n      pop\n        /* \"#utility.yul\":2893:3266   */\n      swap3\n      swap2\n      pop\n      pop\n      jump\t// out\n        /* \"#utility.yul\":3272:3390   */\n    tag_292:\n        /* \"#utility.yul\":3359:3383   */\n      tag_393\n        /* \"#utility.yul\":3377:3382   */\n      dup2\n        /* \"#utility.yul\":3359:3383   */\n      tag_280\n      jump\t// in\n    tag_393:\n        /* \"#utility.yul\":3354:3357   */\n      dup3\n        /* \"#utility.yul\":3347:3384   */\n      mstore\n        /* \"#utility.yul\":3272:3390   */\n      pop\n      pop\n      jump\t// out\n        /* \"#utility.yul\":3396:3618   */\n    tag_39:\n        /* \"#utility.yul\":3489:3493   */\n      0x00\n        /* \"#utility.yul\":3527:3529   */\n      0x20\n        /* \"#utility.yul\":3516:3525   */\n      dup3\n        /* \"#utility.yul\":3512:3530   */\n      add\n        /* \"#utility.yul\":3504:3530   */\n      swap1\n      pop\n        /* \"#utility.yul\":3540:3611   */\n      tag_395\n        /* \"#utility.yul\":3608:3609   */\n      0x00\n        /* \"#utility.yul\":3597:3606   */\n      dup4\n        /* \"#utility.yul\":3593:3610   */\n      add\n        /* \"#utility.yul\":3584:3590   */\n      dup5\n        /* \"#utility.yul\":3540:3611   */\n      tag_292\n      jump\t// in\n    tag_395:\n        /* \"#utility.yul\":3396:3618   */\n      swap3\n      swap2\n      pop\n      pop\n      jump\t// out\n        /* \"#utility.yul\":3624:3763   */\n    tag_293:\n        /* \"#utility.yul\":3716:3722   */\n      0x00\n        /* \"#utility.yul\":3750:3755   */\n      dup2\n        /* \"#utility.yul\":3744:3756   */\n      mload\n        /* \"#utility.yul\":3734:3756   */\n      swap1\n      pop\n        /* \"#utility.yul\":3624:3763   */\n      swap2\n      swap1\n      pop\n      jump\t// out\n        /* \"#utility.yul\":3769:3978   */\n    tag_294:\n        /* \"#utility.yul\":3893:3904   */\n      0x00\n        /* \"#utility.yul\":3927:3933   */\n      dup3\n        /* \"#utility.yul\":3922:3925   */\n      dup3\n        /* \"#utility.yul\":3915:3934   */\n      mstore\n        /* \"#utility.yul\":3967:3971   */\n      0x20\n        /* \"#utility.yul\":3962:3965   */\n      dup3\n        /* \"#utility.yul\":3958:3972   */\n      add\n        /* \"#utility.yul\":3943:3972   */\n      swap1\n      pop\n        /* \"#utility.yul\":3769:3978   */\n      swap3\n      swap2\n      pop\n      pop\n      jump\t// out\n        /* \"#utility.yul\":3984:4141   */\n    tag_295:\n        /* \"#utility.yul\":4076:4080   */\n      0x00\n        /* \"#utility.yul\":4099:4102   */\n      dup2\n        /* \"#utility.yul\":4091:4102   */\n      swap1\n      pop\n        /* \"#utility.yul\":4129:4133   */\n      0x20\n        /* \"#utility.yul\":4124:4127   */\n      dup3\n        /* \"#utility.yul\":4120:4134   */\n      add\n        /* \"#utility.yul\":4112:4134   */\n      swap1\n      pop\n        /* \"#utility.yul\":3984:4141   */\n      swap2\n      swap1\n      pop\n      jump\t// out\n        /* \"#utility.yul\":4147:4246   */\n    tag_296:\n        /* \"#utility.yul\":4199:4205   */\n      0x00\n        /* \"#utility.yul\":4233:4238   */\n      dup2\n        /* \"#utility.yul\":4227:4239   */\n      mload\n        /* \"#utility.yul\":4217:4239   */\n      swap1\n      pop\n        /* \"#utility.yul\":4147:4246   */\n      swap2\n      swap1\n      pop\n      jump\t// out\n        /* \"#utility.yul\":4252:4411   */\n    tag_297:\n        /* \"#utility.yul\":4326:4337   */\n      0x00\n        /* \"#utility.yul\":4360:4366   */\n      dup3\n        /* \"#utility.yul\":4355:4358   */\n      dup3\n        /* \"#utility.yul\":4348:4367   */\n      mstore\n        /* \"#utility.yul\":4400:4404   */\n      0x20\n        /* \"#utility.yul\":4395:4398   */\n      dup3\n        /* \"#utility.yul\":4391:4405   */\n      add\n        /* \"#utility.yul\":4376:4405   */\n      swap1\n      pop\n        /* \"#utility.yul\":4252:4411   */\n      swap3\n      swap2\n      pop\n      pop\n      jump\t// out\n        /* \"#utility.yul\":4417:4663   */\n    tag_298:\n        /* \"#utility.yul\":4498:4499   */\n      0x00\n        /* \"#utility.yul\":4508:4621   */\n    tag_402:\n        /* \"#utility.yul\":4522:4528   */\n      dup4\n        /* \"#utility.yul\":4519:4520   */\n      dup2\n        /* \"#utility.yul\":4516:4529   */\n      lt\n        /* \"#utility.yul\":4508:4621   */\n      iszero\n      tag_404\n      jumpi\n        /* \"#utility.yul\":4607:4608   */\n      dup1\n        /* \"#utility.yul\":4602:4605   */\n      dup3\n        /* \"#utility.yul\":4598:4609   */\n      add\n        /* \"#utility.yul\":4592:4610   */\n      mload\n        /* \"#utility.yul\":4588:4589   */\n      dup2\n        /* \"#utility.yul\":4583:4586   */\n      dup5\n        /* \"#utility.yul\":4579:4590   */\n      add\n        /* \"#utility.yul\":4572:4611   */\n      mstore\n        /* \"#utility.yul\":4544:4546   */\n      0x20\n        /* \"#utility.yul\":4541:4542   */\n      dup2\n        /* \"#utility.yul\":4537:4547   */\n      add\n        /* \"#utility.yul\":4532:4547   */\n      swap1\n      pop\n        /* \"#utility.yul\":4508:4621   */\n      jump(tag_402)\n    tag_404:\n        /* \"#utility.yul\":4655:4656   */\n      0x00\n        /* \"#utility.yul\":4646:4652   */\n      dup5\n        /* \"#utility.yul\":4641:4644   */\n      dup5\n        /* \"#utility.yul\":4637:4653   */\n      add\n        /* \"#utility.yul\":4630:4657   */\n      mstore\n        /* \"#utility.yul\":4479:4663   */\n      pop\n        /* \"#utility.yul\":4417:4663   */\n      pop\n      pop\n      pop\n      jump\t// out\n        /* \"#utility.yul\":4669:4771   */\n    tag_299:\n        /* \"#utility.yul\":4710:4716   */\n      0x00\n        /* \"#utility.yul\":4761:4763   */\n      0x1f\n        /* \"#utility.yul\":4757:4764   */\n      not\n        /* \"#utility.yul\":4752:4754   */\n      0x1f\n        /* \"#utility.yul\":4745:4750   */\n      dup4\n        /* \"#utility.yul\":4741:4755   */\n      add\n        /* \"#utility.yul\":4737:4765   */\n      and\n        /* \"#utility.yul\":4727:4765   */\n      swap1\n      pop\n        /* \"#utility.yul\":4669:4771   */\n      swap2\n      swap1\n      pop\n      jump\t// out\n        /* \"#utility.yul\":4777:5134   */\n    tag_300:\n        /* \"#utility.yul\":4855:4858   */\n      0x00\n        /* \"#utility.yul\":4883:4922   */\n      tag_407\n        /* \"#utility.yul\":4916:4921   */\n      dup3\n        /* \"#utility.yul\":4883:4922   */\n      tag_296\n      jump\t// in\n    tag_407:\n        /* \"#utility.yul\":4938:4999   */\n      tag_408\n        /* \"#utility.yul\":4992:4998   */\n      dup2\n        /* \"#utility.yul\":4987:4990   */\n      dup6\n        /* \"#utility.yul\":4938:4999   */\n      tag_297\n      jump\t// in\n    tag_408:\n        /* \"#utility.yul\":4931:4999   */\n      swap4\n      pop\n        /* \"#utility.yul\":5008:5073   */\n      tag_409\n        /* \"#utility.yul\":5066:5072   */\n      dup2\n        /* \"#utility.yul\":5061:5064   */\n      dup6\n        /* \"#utility.yul\":5054:5058   */\n      0x20\n        /* \"#utility.yul\":5047:5052   */\n      dup7\n        /* \"#utility.yul\":5043:5059   */\n      add\n        /* \"#utility.yul\":5008:5073   */\n      tag_298\n      jump\t// in\n    tag_409:\n        /* \"#utility.yul\":5098:5127   */\n      tag_410\n        /* \"#utility.yul\":5120:5126   */\n      dup2\n        /* \"#utility.yul\":5098:5127   */\n      tag_299\n      jump\t// in\n    tag_410:\n        /* \"#utility.yul\":5093:5096   */\n      dup5\n        /* \"#utility.yul\":5089:5128   */\n      add\n        /* \"#utility.yul\":5082:5128   */\n      swap2\n      pop\n        /* \"#utility.yul\":4859:5134   */\n      pop\n        /* \"#utility.yul\":4777:5134   */\n      swap3\n      swap2\n      pop\n      pop\n      jump\t// out\n        /* \"#utility.yul\":5140:5248   */\n    tag_301:\n        /* \"#utility.yul\":5217:5241   */\n      tag_412\n        /* \"#utility.yul\":5235:5240   */\n      dup2\n        /* \"#utility.yul\":5217:5241   */\n      tag_280\n      jump\t// in\n    tag_412:\n        /* \"#utility.yul\":5212:5215   */\n      dup3\n        /* \"#utility.yul\":5205:5242   */\n      mstore\n        /* \"#utility.yul\":5140:5248   */\n      pop\n      pop\n      jump\t// out\n        /* \"#utility.yul\":5312:6095   */\n    tag_302:\n        /* \"#utility.yul\":5421:5424   */\n      0x00\n        /* \"#utility.yul\":5457:5461   */\n      0x60\n        /* \"#utility.yul\":5452:5455   */\n      dup4\n        /* \"#utility.yul\":5448:5462   */\n      add\n        /* \"#utility.yul\":5545:5549   */\n      0x00\n        /* \"#utility.yul\":5538:5543   */\n      dup4\n        /* \"#utility.yul\":5534:5550   */\n      add\n        /* \"#utility.yul\":5528:5551   */\n      mload\n        /* \"#utility.yul\":5598:5601   */\n      dup5\n        /* \"#utility.yul\":5592:5596   */\n      dup3\n        /* \"#utility.yul\":5588:5602   */\n      sub\n        /* \"#utility.yul\":5581:5585   */\n      0x00\n        /* \"#utility.yul\":5576:5579   */\n      dup7\n        /* \"#utility.yul\":5572:5586   */\n      add\n        /* \"#utility.yul\":5565:5603   */\n      mstore\n        /* \"#utility.yul\":5624:5697   */\n      tag_414\n        /* \"#utility.yul\":5692:5696   */\n      dup3\n        /* \"#utility.yul\":5678:5690   */\n      dup3\n        /* \"#utility.yul\":5624:5697   */\n      tag_300\n      jump\t// in\n    tag_414:\n        /* \"#utility.yul\":5616:5697   */\n      swap2\n      pop\n        /* \"#utility.yul\":5472:5708   */\n      pop\n        /* \"#utility.yul\":5797:5801   */\n      0x20\n        /* \"#utility.yul\":5790:5795   */\n      dup4\n        /* \"#utility.yul\":5786:5802   */\n      add\n        /* \"#utility.yul\":5780:5803   */\n      mload\n        /* \"#utility.yul\":5816:5879   */\n      tag_415\n        /* \"#utility.yul\":5873:5877   */\n      0x20\n        /* \"#utility.yul\":5868:5871   */\n      dup7\n        /* \"#utility.yul\":5864:5878   */\n      add\n        /* \"#utility.yul\":5850:5862   */\n      dup3\n        /* \"#utility.yul\":5816:5879   */\n      tag_288\n      jump\t// in\n    tag_415:\n        /* \"#utility.yul\":5718:5889   */\n      pop\n        /* \"#utility.yul\":5976:5980   */\n      0x40\n        /* \"#utility.yul\":5969:5974   */\n      dup4\n        /* \"#utility.yul\":5965:5981   */\n      add\n        /* \"#utility.yul\":5959:5982   */\n      mload\n        /* \"#utility.yul\":5995:6058   */\n      tag_416\n        /* \"#utility.yul\":6052:6056   */\n      0x40\n        /* \"#utility.yul\":6047:6050   */\n      dup7\n        /* \"#utility.yul\":6043:6057   */\n      add\n        /* \"#utility.yul\":6029:6041   */\n      dup3\n        /* \"#utility.yul\":5995:6058   */\n      tag_301\n      jump\t// in\n    tag_416:\n        /* \"#utility.yul\":5899:6068   */\n      pop\n        /* \"#utility.yul\":6085:6089   */\n      dup1\n        /* \"#utility.yul\":6078:6089   */\n      swap2\n      pop\n        /* \"#utility.yul\":5426:6095   */\n      pop\n        /* \"#utility.yul\":5312:6095   */\n      swap3\n      swap2\n      pop\n      pop\n      jump\t// out\n        /* \"#utility.yul\":6101:6357   */\n    tag_303:\n        /* \"#utility.yul\":6220:6230   */\n      0x00\n        /* \"#utility.yul\":6255:6351   */\n      tag_418\n        /* \"#utility.yul\":6347:6350   */\n      dup4\n        /* \"#utility.yul\":6339:6345   */\n      dup4\n        /* \"#utility.yul\":6255:6351   */\n      tag_302\n      jump\t// in\n    tag_418:\n        /* \"#utility.yul\":6241:6351   */\n      swap1\n      pop\n        /* \"#utility.yul\":6101:6357   */\n      swap3\n      swap2\n      pop\n      pop\n      jump\t// out\n        /* \"#utility.yul\":6363:6501   */\n    tag_304:\n        /* \"#utility.yul\":6458:6462   */\n      0x00\n        /* \"#utility.yul\":6490:6494   */\n      0x20\n        /* \"#utility.yul\":6485:6488   */\n      dup3\n        /* \"#utility.yul\":6481:6495   */\n      add\n        /* \"#utility.yul\":6473:6495   */\n      swap1\n      pop\n        /* \"#utility.yul\":6363:6501   */\n      swap2\n      swap1\n      pop\n      jump\t// out\n        /* \"#utility.yul\":6569:7680   */\n    tag_305:\n        /* \"#utility.yul\":6738:6741   */\n      0x00\n        /* \"#utility.yul\":6767:6846   */\n      tag_421\n        /* \"#utility.yul\":6840:6845   */\n      dup3\n        /* \"#utility.yul\":6767:6846   */\n      tag_293\n      jump\t// in\n    tag_421:\n        /* \"#utility.yul\":6862:6973   */\n      tag_422\n        /* \"#utility.yul\":6966:6972   */\n      dup2\n        /* \"#utility.yul\":6961:6964   */\n      dup6\n        /* \"#utility.yul\":6862:6973   */\n      tag_294\n      jump\t// in\n    tag_422:\n        /* \"#utility.yul\":6855:6973   */\n      swap4\n      pop\n        /* \"#utility.yul\":6999:7002   */\n      dup4\n        /* \"#utility.yul\":7044:7048   */\n      0x20\n        /* \"#utility.yul\":7036:7042   */\n      dup3\n        /* \"#utility.yul\":7032:7049   */\n      mul\n        /* \"#utility.yul\":7027:7030   */\n      dup6\n        /* \"#utility.yul\":7023:7050   */\n      add\n        /* \"#utility.yul\":7074:7155   */\n      tag_423\n        /* \"#utility.yul\":7149:7154   */\n      dup6\n        /* \"#utility.yul\":7074:7155   */\n      tag_295\n      jump\t// in\n    tag_423:\n        /* \"#utility.yul\":7178:7185   */\n      dup1\n        /* \"#utility.yul\":7209:7210   */\n      0x00\n        /* \"#utility.yul\":7194:7635   */\n    tag_424:\n        /* \"#utility.yul\":7219:7225   */\n      dup6\n        /* \"#utility.yul\":7216:7217   */\n      dup2\n        /* \"#utility.yul\":7213:7226   */\n      lt\n        /* \"#utility.yul\":7194:7635   */\n      iszero\n      tag_426\n      jumpi\n        /* \"#utility.yul\":7290:7299   */\n      dup5\n        /* \"#utility.yul\":7284:7288   */\n      dup5\n        /* \"#utility.yul\":7280:7300   */\n      sub\n        /* \"#utility.yul\":7275:7278   */\n      dup10\n        /* \"#utility.yul\":7268:7301   */\n      mstore\n        /* \"#utility.yul\":7341:7347   */\n      dup2\n        /* \"#utility.yul\":7335:7348   */\n      mload\n        /* \"#utility.yul\":7369:7483   */\n      tag_427\n        /* \"#utility.yul\":7478:7482   */\n      dup6\n        /* \"#utility.yul\":7463:7476   */\n      dup3\n        /* \"#utility.yul\":7369:7483   */\n      tag_303\n      jump\t// in\n    tag_427:\n        /* \"#utility.yul\":7361:7483   */\n      swap5\n      pop\n        /* \"#utility.yul\":7506:7591   */\n      tag_428\n        /* \"#utility.yul\":7584:7590   */\n      dup4\n        /* \"#utility.yul\":7506:7591   */\n      tag_304\n      jump\t// in\n    tag_428:\n        /* \"#utility.yul\":7496:7591   */\n      swap3\n      pop\n        /* \"#utility.yul\":7620:7624   */\n      0x20\n        /* \"#utility.yul\":7615:7618   */\n      dup11\n        /* \"#utility.yul\":7611:7625   */\n      add\n        /* \"#utility.yul\":7604:7625   */\n      swap10\n      pop\n        /* \"#utility.yul\":7254:7635   */\n      pop\n        /* \"#utility.yul\":7241:7242   */\n      0x01\n        /* \"#utility.yul\":7238:7239   */\n      dup2\n        /* \"#utility.yul\":7234:7243   */\n      add\n        /* \"#utility.yul\":7229:7243   */\n      swap1\n      pop\n        /* \"#utility.yul\":7194:7635   */\n      jump(tag_424)\n    tag_426:\n        /* \"#utility.yul\":7198:7212   */\n      pop\n        /* \"#utility.yul\":7651:7655   */\n      dup3\n        /* \"#utility.yul\":7644:7655   */\n      swap8\n      pop\n        /* \"#utility.yul\":7671:7674   */\n      dup8\n        /* \"#utility.yul\":7664:7674   */\n      swap6\n      pop\n        /* \"#utility.yul\":6743:7680   */\n      pop\n      pop\n      pop\n      pop\n      pop\n        /* \"#utility.yul\":6569:7680   */\n      swap3\n      swap2\n      pop\n      pop\n      jump\t// out\n        /* \"#utility.yul\":7686:8159   */\n    tag_44:\n        /* \"#utility.yul\":7879:7883   */\n      0x00\n        /* \"#utility.yul\":7917:7919   */\n      0x20\n        /* \"#utility.yul\":7906:7915   */\n      dup3\n        /* \"#utility.yul\":7902:7920   */\n      add\n        /* \"#utility.yul\":7894:7920   */\n      swap1\n      pop\n        /* \"#utility.yul\":7966:7975   */\n      dup2\n        /* \"#utility.yul\":7960:7964   */\n      dup2\n        /* \"#utility.yul\":7956:7976   */\n      sub\n        /* \"#utility.yul\":7952:7953   */\n      0x00\n        /* \"#utility.yul\":7941:7950   */\n      dup4\n        /* \"#utility.yul\":7937:7954   */\n      add\n        /* \"#utility.yul\":7930:7977   */\n      mstore\n        /* \"#utility.yul\":7994:8152   */\n      tag_430\n        /* \"#utility.yul\":8147:8151   */\n      dup2\n        /* \"#utility.yul\":8138:8144   */\n      dup5\n        /* \"#utility.yul\":7994:8152   */\n      tag_305\n      jump\t// in\n    tag_430:\n        /* \"#utility.yul\":7986:8152   */\n      swap1\n      pop\n        /* \"#utility.yul\":7686:8159   */\n      swap3\n      swap2\n      pop\n      pop\n      jump\t// out\n        /* \"#utility.yul\":8165:8282   */\n    tag_306:\n        /* \"#utility.yul\":8274:8275   */\n      0x00\n        /* \"#utility.yul\":8271:8272   */\n      dup1\n        /* \"#utility.yul\":8264:8276   */\n      revert\n        /* \"#utility.yul\":8288:8405   */\n    tag_307:\n        /* \"#utility.yul\":8397:8398   */\n      0x00\n        /* \"#utility.yul\":8394:8395   */\n      dup1\n        /* \"#utility.yul\":8387:8399   */\n      revert\n        /* \"#utility.yul\":8411:8528   */\n    tag_308:\n        /* \"#utility.yul\":8520:8521   */\n      0x00\n        /* \"#utility.yul\":8517:8518   */\n      dup1\n        /* \"#utility.yul\":8510:8522   */\n      revert\n        /* \"#utility.yul\":8548:9101   */\n    tag_309:\n        /* \"#utility.yul\":8606:8614   */\n      0x00\n        /* \"#utility.yul\":8616:8622   */\n      dup1\n        /* \"#utility.yul\":8666:8669   */\n      dup4\n        /* \"#utility.yul\":8659:8663   */\n      0x1f\n        /* \"#utility.yul\":8651:8657   */\n      dup5\n        /* \"#utility.yul\":8647:8664   */\n      add\n        /* \"#utility.yul\":8643:8670   */\n      slt\n        /* \"#utility.yul\":8633:8755   */\n      tag_435\n      jumpi\n        /* \"#utility.yul\":8674:8753   */\n      tag_436\n      tag_306\n      jump\t// in\n    tag_436:\n        /* \"#utility.yul\":8633:8755   */\n    tag_435:\n        /* \"#utility.yul\":8787:8793   */\n      dup3\n        /* \"#utility.yul\":8774:8794   */\n      calldataload\n        /* \"#utility.yul\":8764:8794   */\n      swap1\n      pop\n        /* \"#utility.yul\":8817:8835   */\n      0xffffffffffffffff\n        /* \"#utility.yul\":8809:8815   */\n      dup2\n        /* \"#utility.yul\":8806:8836   */\n      gt\n        /* \"#utility.yul\":8803:8920   */\n      iszero\n      tag_437\n      jumpi\n        /* \"#utility.yul\":8839:8918   */\n      tag_438\n      tag_307\n      jump\t// in\n    tag_438:\n        /* \"#utility.yul\":8803:8920   */\n    tag_437:\n        /* \"#utility.yul\":8953:8957   */\n      0x20\n        /* \"#utility.yul\":8945:8951   */\n      dup4\n        /* \"#utility.yul\":8941:8958   */\n      add\n        /* \"#utility.yul\":8929:8958   */\n      swap2\n      pop\n        /* \"#utility.yul\":9007:9010   */\n      dup4\n        /* \"#utility.yul\":8999:9003   */\n      0x01\n        /* \"#utility.yul\":8991:8997   */\n      dup3\n        /* \"#utility.yul\":8987:9004   */\n      mul\n        /* \"#utility.yul\":8977:8985   */\n      dup4\n        /* \"#utility.yul\":8973:9005   */\n      add\n        /* \"#utility.yul\":8970:9011   */\n      gt\n        /* \"#utility.yul\":8967:9095   */\n      iszero\n      tag_439\n      jumpi\n        /* \"#utility.yul\":9014:9093   */\n      tag_440\n      tag_308\n      jump\t// in\n    tag_440:\n        /* \"#utility.yul\":8967:9095   */\n    tag_439:\n        /* \"#utility.yul\":8548:9101   */\n      swap3\n      pop\n      swap3\n      swap1\n      pop\n      jump\t// out\n        /* \"#utility.yul\":9107:9636   */\n    tag_48:\n        /* \"#utility.yul\":9178:9184   */\n      0x00\n        /* \"#utility.yul\":9186:9192   */\n      dup1\n        /* \"#utility.yul\":9235:9237   */\n      0x20\n        /* \"#utility.yul\":9223:9232   */\n      dup4\n        /* \"#utility.yul\":9214:9221   */\n      dup6\n        /* \"#utility.yul\":9210:9233   */\n      sub\n        /* \"#utility.yul\":9206:9238   */\n      slt\n        /* \"#utility.yul\":9203:9322   */\n      iszero\n      tag_442\n      jumpi\n        /* \"#utility.yul\":9241:9320   */\n      tag_443\n      tag_278\n      jump\t// in\n    tag_443:\n        /* \"#utility.yul\":9203:9322   */\n    tag_442:\n        /* \"#utility.yul\":9389:9390   */\n      0x00\n        /* \"#utility.yul\":9378:9387   */\n      dup4\n        /* \"#utility.yul\":9374:9391   */\n      add\n        /* \"#utility.yul\":9361:9392   */\n      calldataload\n        /* \"#utility.yul\":9419:9437   */\n      0xffffffffffffffff\n        /* \"#utility.yul\":9411:9417   */\n      dup2\n        /* \"#utility.yul\":9408:9438   */\n      gt\n        /* \"#utility.yul\":9405:9522   */\n      iszero\n      tag_444\n      jumpi\n        /* \"#utility.yul\":9441:9520   */\n      tag_445\n      tag_279\n      jump\t// in\n    tag_445:\n        /* \"#utility.yul\":9405:9522   */\n    tag_444:\n        /* \"#utility.yul\":9554:9619   */\n      tag_446\n        /* \"#utility.yul\":9611:9618   */\n      dup6\n        /* \"#utility.yul\":9602:9608   */\n      dup3\n        /* \"#utility.yul\":9591:9600   */\n      dup7\n        /* \"#utility.yul\":9587:9609   */\n      add\n        /* \"#utility.yul\":9554:9619   */\n      tag_309\n      jump\t// in\n    tag_446:\n        /* \"#utility.yul\":9536:9619   */\n      swap3\n      pop\n      swap3\n      pop\n        /* \"#utility.yul\":9332:9629   */\n      pop\n        /* \"#utility.yul\":9107:9636   */\n      swap3\n      pop\n      swap3\n      swap1\n      pop\n      jump\t// out\n        /* \"#utility.yul\":9642:9811   */\n    tag_310:\n        /* \"#utility.yul\":9726:9737   */\n      0x00\n        /* \"#utility.yul\":9760:9766   */\n      dup3\n        /* \"#utility.yul\":9755:9758   */\n      dup3\n        /* \"#utility.yul\":9748:9767   */\n      mstore\n        /* \"#utility.yul\":9800:9804   */\n      0x20\n        /* \"#utility.yul\":9795:9798   */\n      dup3\n        /* \"#utility.yul\":9791:9805   */\n      add\n        /* \"#utility.yul\":9776:9805   */\n      swap1\n      pop\n        /* \"#utility.yul\":9642:9811   */\n      swap3\n      swap2\n      pop\n      pop\n      jump\t// out\n        /* \"#utility.yul\":9817:9983   */\n    tag_311:\n        /* \"#utility.yul\":9957:9975   */\n      0x566f74696e672069732061637469766500000000000000000000000000000000\n        /* \"#utility.yul\":9953:9954   */\n      0x00\n        /* \"#utility.yul\":9945:9951   */\n      dup3\n        /* \"#utility.yul\":9941:9955   */\n      add\n        /* \"#utility.yul\":9934:9976   */\n      mstore\n        /* \"#utility.yul\":9817:9983   */\n      pop\n      jump\t// out\n        /* \"#utility.yul\":9989:10355   */\n    tag_312:\n        /* \"#utility.yul\":10131:10134   */\n      0x00\n        /* \"#utility.yul\":10152:10219   */\n      tag_450\n        /* \"#utility.yul\":10216:10218   */\n      0x10\n        /* \"#utility.yul\":10211:10214   */\n      dup4\n        /* \"#utility.yul\":10152:10219   */\n      tag_310\n      jump\t// in\n    tag_450:\n        /* \"#utility.yul\":10145:10219   */\n      swap2\n      pop\n        /* \"#utility.yul\":10228:10321   */\n      tag_451\n        /* \"#utility.yul\":10317:10320   */\n      dup3\n        /* \"#utility.yul\":10228:10321   */\n      tag_311\n      jump\t// in\n    tag_451:\n        /* \"#utility.yul\":10346:10348   */\n      0x20\n        /* \"#utility.yul\":10341:10344   */\n      dup3\n        /* \"#utility.yul\":10337:10349   */\n      add\n        /* \"#utility.yul\":10330:10349   */\n      swap1\n      pop\n        /* \"#utility.yul\":9989:10355   */\n      swap2\n      swap1\n      pop\n      jump\t// out\n        /* \"#utility.yul\":10361:10780   */\n    tag_56:\n        /* \"#utility.yul\":10527:10531   */\n      0x00\n        /* \"#utility.yul\":10565:10567   */\n      0x20\n        /* \"#utility.yul\":10554:10563   */\n      dup3\n        /* \"#utility.yul\":10550:10568   */\n      add\n        /* \"#utility.yul\":10542:10568   */\n      swap1\n      pop\n        /* \"#utility.yul\":10614:10623   */\n      dup2\n        /* \"#utility.yul\":10608:10612   */\n      dup2\n        /* \"#utility.yul\":10604:10624   */\n      sub\n        /* \"#utility.yul\":10600:10601   */\n      0x00\n        /* \"#utility.yul\":10589:10598   */\n      dup4\n        /* \"#utility.yul\":10585:10602   */\n      add\n        /* \"#utility.yul\":10578:10625   */\n      mstore\n        /* \"#utility.yul\":10642:10773   */\n      tag_453\n        /* \"#utility.yul\":10768:10772   */\n      dup2\n        /* \"#utility.yul\":10642:10773   */\n      tag_312\n      jump\t// in\n    tag_453:\n        /* \"#utility.yul\":10634:10773   */\n      swap1\n      pop\n        /* \"#utility.yul\":10361:10780   */\n      swap2\n      swap1\n      pop\n      jump\t// out\n        /* \"#utility.yul\":10786:10966   */\n    tag_64:\n        /* \"#utility.yul\":10834:10911   */\n      0x4e487b7100000000000000000000000000000000000000000000000000000000\n        /* \"#utility.yul\":10831:10832   */\n      0x00\n        /* \"#utility.yul\":10824:10912   */\n      mstore\n        /* \"#utility.yul\":10931:10935   */\n      0x32\n        /* \"#utility.yul\":10928:10929   */\n      0x04\n        /* \"#utility.yul\":10921:10936   */\n      mstore\n        /* \"#utility.yul\":10955:10959   */\n      0x24\n        /* \"#utility.yul\":10952:10953   */\n      0x00\n        /* \"#utility.yul\":10945:10960   */\n      revert\n        /* \"#utility.yul\":10972:11152   */\n    tag_313:\n        /* \"#utility.yul\":11020:11097   */\n      0x4e487b7100000000000000000000000000000000000000000000000000000000\n        /* \"#utility.yul\":11017:11018   */\n      0x00\n        /* \"#utility.yul\":11010:11098   */\n      mstore\n        /* \"#utility.yul\":11117:11121   */\n      0x11\n        /* \"#utility.yul\":11114:11115   */\n      0x04\n        /* \"#utility.yul\":11107:11122   */\n      mstore\n        /* \"#utility.yul\":11141:11145   */\n      0x24\n        /* \"#utility.yul\":11138:11139   */\n      0x00\n        /* \"#utility.yul\":11131:11146   */\n      revert\n        /* \"#utility.yul\":11158:11391   */\n    tag_68:\n        /* \"#utility.yul\":11197:11200   */\n      0x00\n        /* \"#utility.yul\":11220:11244   */\n      tag_457\n        /* \"#utility.yul\":11238:11243   */\n      dup3\n        /* \"#utility.yul\":11220:11244   */\n      tag_280\n      jump\t// in\n    tag_457:\n        /* \"#utility.yul\":11211:11244   */\n      swap2\n      pop\n        /* \"#utility.yul\":11266:11332   */\n      0xffffffffffffffffffffffffffffffffffffffffffffffffffffffffffffffff\n        /* \"#utility.yul\":11259:11264   */\n      dup3\n        /* \"#utility.yul\":11256:11333   */\n      sub\n        /* \"#utility.yul\":11253:11356   */\n      tag_458\n      jumpi\n        /* \"#utility.yul\":11336:11354   */\n      tag_459\n      tag_313\n      jump\t// in\n    tag_459:\n        /* \"#utility.yul\":11253:11356   */\n    tag_458:\n        /* \"#utility.yul\":11383:11384   */\n      0x01\n        /* \"#utility.yul\":11376:11381   */\n      dup3\n        /* \"#utility.yul\":11372:11385   */\n      add\n        /* \"#utility.yul\":11365:11385   */\n      swap1\n      pop\n        /* \"#utility.yul\":11158:11391   */\n      swap2\n      swap1\n      pop\n      jump\t// out\n        /* \"#utility.yul\":11397:11623   */\n    tag_314:\n        /* \"#utility.yul\":11537:11571   */\n      0x546869732066756e6374696f6e20697320616c6c6f77656420666f72206f6e6c\n        /* \"#utility.yul\":11533:11534   */\n      0x00\n        /* \"#utility.yul\":11525:11531   */\n      dup3\n        /* \"#utility.yul\":11521:11535   */\n      add\n        /* \"#utility.yul\":11514:11572   */\n      mstore\n        /* \"#utility.yul\":11606:11615   */\n      0x79206d696e657300000000000000000000000000000000000000000000000000\n        /* \"#utility.yul\":11601:11603   */\n      0x20\n        /* \"#utility.yul\":11593:11599   */\n      dup3\n        /* \"#utility.yul\":11589:11604   */\n      add\n        /* \"#utility.yul\":11582:11616   */\n      mstore\n        /* \"#utility.yul\":11397:11623   */\n      pop\n      jump\t// out\n        /* \"#utility.yul\":11629:11995   */\n    tag_315:\n        /* \"#utility.yul\":11771:11774   */\n      0x00\n        /* \"#utility.yul\":11792:11859   */\n      tag_462\n        /* \"#utility.yul\":11856:11858   */\n      0x27\n        /* \"#utility.yul\":11851:11854   */\n      dup4\n        /* \"#utility.yul\":11792:11859   */\n      tag_310\n      jump\t// in\n    tag_462:\n        /* \"#utility.yul\":11785:11859   */\n      swap2\n      pop\n        /* \"#utility.yul\":11868:11961   */\n      tag_463\n        /* \"#utility.yul\":11957:11960   */\n      dup3\n        /* \"#utility.yul\":11868:11961   */\n      tag_314\n      jump\t// in\n    tag_463:\n        /* \"#utility.yul\":11986:11988   */\n      0x40\n        /* \"#utility.yul\":11981:11984   */\n      dup3\n        /* \"#utility.yul\":11977:11989   */\n      add\n        /* \"#utility.yul\":11970:11989   */\n      swap1\n      pop\n        /* \"#utility.yul\":11629:11995   */\n      swap2\n      swap1\n      pop\n      jump\t// out\n        /* \"#utility.yul\":12001:12420   */\n    tag_71:\n        /* \"#utility.yul\":12167:12171   */\n      0x00\n        /* \"#utility.yul\":12205:12207   */\n      0x20\n        /* \"#utility.yul\":12194:12203   */\n      dup3\n        /* \"#utility.yul\":12190:12208   */\n      add\n        /* \"#utility.yul\":12182:12208   */\n      swap1\n      pop\n        /* \"#utility.yul\":12254:12263   */\n      dup2\n        /* \"#utility.yul\":12248:12252   */\n      dup2\n        /* \"#utility.yul\":12244:12264   */\n      sub\n        /* \"#utility.yul\":12240:12241   */\n      0x00\n        /* \"#utility.yul\":12229:12238   */\n      dup4\n        /* \"#utility.yul\":12225:12242   */\n      add\n        /* \"#utility.yul\":12218:12265   */\n      mstore\n        /* \"#utility.yul\":12282:12413   */\n      tag_465\n        /* \"#utility.yul\":12408:12412   */\n      dup2\n        /* \"#utility.yul\":12282:12413   */\n      tag_315\n      jump\t// in\n    tag_465:\n        /* \"#utility.yul\":12274:12413   */\n      swap1\n      pop\n        /* \"#utility.yul\":12001:12420   */\n      swap2\n      swap1\n      pop\n      jump\t// out\n        /* \"#utility.yul\":12426:12600   */\n    tag_316:\n        /* \"#utility.yul\":12566:12592   */\n      0x596f7520636173746564206120766f7465206265666f72650000000000000000\n        /* \"#utility.yul\":12562:12563   */\n      0x00\n        /* \"#utility.yul\":12554:12560   */\n      dup3\n        /* \"#utility.yul\":12550:12564   */\n      add\n        /* \"#utility.yul\":12543:12593   */\n      mstore\n        /* \"#utility.yul\":12426:12600   */\n      pop\n      jump\t// out\n        /* \"#utility.yul\":12606:12972   */\n    tag_317:\n        /* \"#utility.yul\":12748:12751   */\n      0x00\n        /* \"#utility.yul\":12769:12836   */\n      tag_468\n        /* \"#utility.yul\":12833:12835   */\n      0x18\n        /* \"#utility.yul\":12828:12831   */\n      dup4\n        /* \"#utility.yul\":12769:12836   */\n      tag_310\n      jump\t// in\n    tag_468:\n        /* \"#utility.yul\":12762:12836   */\n      swap2\n      pop\n        /* \"#utility.yul\":12845:12938   */\n      tag_469\n        /* \"#utility.yul\":12934:12937   */\n      dup3\n        /* \"#utility.yul\":12845:12938   */\n      tag_316\n      jump\t// in\n    tag_469:\n        /* \"#utility.yul\":12963:12965   */\n      0x20\n        /* \"#utility.yul\":12958:12961   */\n      dup3\n        /* \"#utility.yul\":12954:12966   */\n      add\n        /* \"#utility.yul\":12947:12966   */\n      swap1\n      pop\n        /* \"#utility.yul\":12606:12972   */\n      swap2\n      swap1\n      pop\n      jump\t// out\n        /* \"#utility.yul\":12978:13397   */\n    tag_83:\n        /* \"#utility.yul\":13144:13148   */\n      0x00\n        /* \"#utility.yul\":13182:13184   */\n      0x20\n        /* \"#utility.yul\":13171:13180   */\n      dup3\n        /* \"#utility.yul\":13167:13185   */\n      add\n        /* \"#utility.yul\":13159:13185   */\n      swap1\n      pop\n        /* \"#utility.yul\":13231:13240   */\n      dup2\n        /* \"#utility.yul\":13225:13229   */\n      dup2\n        /* \"#utility.yul\":13221:13241   */\n      sub\n        /* \"#utility.yul\":13217:13218   */\n      0x00\n        /* \"#utility.yul\":13206:13215   */\n      dup4\n        /* \"#utility.yul\":13202:13219   */\n      add\n        /* \"#utility.yul\":13195:13242   */\n      mstore\n        /* \"#utility.yul\":13259:13390   */\n      tag_471\n        /* \"#utility.yul\":13385:13389   */\n      dup2\n        /* \"#utility.yul\":13259:13390   */\n      tag_317\n      jump\t// in\n    tag_471:\n        /* \"#utility.yul\":13251:13390   */\n      swap1\n      pop\n        /* \"#utility.yul\":12978:13397   */\n      swap2\n      swap1\n      pop\n      jump\t// out\n        /* \"#utility.yul\":13403:13573   */\n    tag_318:\n        /* \"#utility.yul\":13543:13565   */\n      0x566f74696e67206973206e6f7420616374697665000000000000000000000000\n        /* \"#utility.yul\":13539:13540   */\n      0x00\n        /* \"#utility.yul\":13531:13537   */\n      dup3\n        /* \"#utility.yul\":13527:13541   */\n      add\n        /* \"#utility.yul\":13520:13566   */\n      mstore\n        /* \"#utility.yul\":13403:13573   */\n      pop\n      jump\t// out\n        /* \"#utility.yul\":13579:13945   */\n    tag_319:\n        /* \"#utility.yul\":13721:13724   */\n      0x00\n        /* \"#utility.yul\":13742:13809   */\n      tag_474\n        /* \"#utility.yul\":13806:13808   */\n      0x14\n        /* \"#utility.yul\":13801:13804   */\n      dup4\n        /* \"#utility.yul\":13742:13809   */\n      tag_310\n      jump\t// in\n    tag_474:\n        /* \"#utility.yul\":13735:13809   */\n      swap2\n      pop\n        /* \"#utility.yul\":13818:13911   */\n      tag_475\n        /* \"#utility.yul\":13907:13910   */\n      dup3\n        /* \"#utility.yul\":13818:13911   */\n      tag_318\n      jump\t// in\n    tag_475:\n        /* \"#utility.yul\":13936:13938   */\n      0x20\n        /* \"#utility.yul\":13931:13934   */\n      dup3\n        /* \"#utility.yul\":13927:13939   */\n      add\n        /* \"#utility.yul\":13920:13939   */\n      swap1\n      pop\n        /* \"#utility.yul\":13579:13945   */\n      swap2\n      swap1\n      pop\n      jump\t// out\n        /* \"#utility.yul\":13951:14370   */\n    tag_87:\n        /* \"#utility.yul\":14117:14121   */\n      0x00\n        /* \"#utility.yul\":14155:14157   */\n      0x20\n        /* \"#utility.yul\":14144:14153   */\n      dup3\n        /* \"#utility.yul\":14140:14158   */\n      add\n        /* \"#utility.yul\":14132:14158   */\n      swap1\n      pop\n        /* \"#utility.yul\":14204:14213   */\n      dup2\n        /* \"#utility.yul\":14198:14202   */\n      dup2\n        /* \"#utility.yul\":14194:14214   */\n      sub\n        /* \"#utility.yul\":14190:14191   */\n      0x00\n        /* \"#utility.yul\":14179:14188   */\n      dup4\n        /* \"#utility.yul\":14175:14192   */\n      add\n        /* \"#utility.yul\":14168:14215   */\n      mstore\n        /* \"#utility.yul\":14232:14363   */\n      tag_477\n        /* \"#utility.yul\":14358:14362   */\n      dup2\n        /* \"#utility.yul\":14232:14363   */\n      tag_319\n      jump\t// in\n    tag_477:\n        /* \"#utility.yul\":14224:14363   */\n      swap1\n      pop\n        /* \"#utility.yul\":13951:14370   */\n      swap2\n      swap1\n      pop\n      jump\t// out\n        /* \"#utility.yul\":14376:14567   */\n    tag_102:\n        /* \"#utility.yul\":14416:14419   */\n      0x00\n        /* \"#utility.yul\":14435:14455   */\n      tag_479\n        /* \"#utility.yul\":14453:14454   */\n      dup3\n        /* \"#utility.yul\":14435:14455   */\n      tag_280\n      jump\t// in\n    tag_479:\n        /* \"#utility.yul\":14430:14455   */\n      swap2\n      pop\n        /* \"#utility.yul\":14469:14489   */\n      tag_480\n        /* \"#utility.yul\":14487:14488   */\n      dup4\n        /* \"#utility.yul\":14469:14489   */\n      tag_280\n      jump\t// in\n    tag_480:\n        /* \"#utility.yul\":14464:14489   */\n      swap3\n      pop\n        /* \"#utility.yul\":14512:14513   */\n      dup3\n        /* \"#utility.yul\":14509:14510   */\n      dup3\n        /* \"#utility.yul\":14505:14514   */\n      add\n        /* \"#utility.yul\":14498:14514   */\n      swap1\n      pop\n        /* \"#utility.yul\":14533:14536   */\n      dup1\n        /* \"#utility.yul\":14530:14531   */\n      dup3\n        /* \"#utility.yul\":14527:14537   */\n      gt\n        /* \"#utility.yul\":14524:14560   */\n      iszero\n      tag_481\n      jumpi\n        /* \"#utility.yul\":14540:14558   */\n      tag_482\n      tag_313\n      jump\t// in\n    tag_482:\n        /* \"#utility.yul\":14524:14560   */\n    tag_481:\n        /* \"#utility.yul\":14376:14567   */\n      swap3\n      swap2\n      pop\n      pop\n      jump\t// out\n        /* \"#utility.yul\":14573:14753   */\n    tag_110:\n        /* \"#utility.yul\":14621:14698   */\n      0x4e487b7100000000000000000000000000000000000000000000000000000000\n        /* \"#utility.yul\":14618:14619   */\n      0x00\n        /* \"#utility.yul\":14611:14699   */\n      mstore\n        /* \"#utility.yul\":14718:14722   */\n      0x41\n        /* \"#utility.yul\":14715:14716   */\n      0x04\n        /* \"#utility.yul\":14708:14723   */\n      mstore\n        /* \"#utility.yul\":14742:14746   */\n      0x24\n        /* \"#utility.yul\":14739:14740   */\n      0x00\n        /* \"#utility.yul\":14732:14747   */\n      revert\n        /* \"#utility.yul\":14759:14939   */\n    tag_320:\n        /* \"#utility.yul\":14807:14884   */\n      0x4e487b7100000000000000000000000000000000000000000000000000000000\n        /* \"#utility.yul\":14804:14805   */\n      0x00\n        /* \"#utility.yul\":14797:14885   */\n      mstore\n        /* \"#utility.yul\":14904:14908   */\n      0x12\n        /* \"#utility.yul\":14901:14902   */\n      0x04\n        /* \"#utility.yul\":14894:14909   */\n      mstore\n        /* \"#utility.yul\":14928:14932   */\n      0x24\n        /* \"#utility.yul\":14925:14926   */\n      0x00\n        /* \"#utility.yul\":14918:14933   */\n      revert\n        /* \"#utility.yul\":14945:15130   */\n    tag_125:\n        /* \"#utility.yul\":14985:14986   */\n      0x00\n        /* \"#utility.yul\":15002:15022   */\n      tag_486\n        /* \"#utility.yul\":15020:15021   */\n      dup3\n        /* \"#utility.yul\":15002:15022   */\n      tag_280\n      jump\t// in\n    tag_486:\n        /* \"#utility.yul\":14997:15022   */\n      swap2\n      pop\n        /* \"#utility.yul\":15036:15056   */\n      tag_487\n        /* \"#utility.yul\":15054:15055   */\n      dup4\n        /* \"#utility.yul\":15036:15056   */\n      tag_280\n      jump\t// in\n    tag_487:\n        /* \"#utility.yul\":15031:15056   */\n      swap3\n      pop\n        /* \"#utility.yul\":15075:15076   */\n      dup3\n        /* \"#utility.yul\":15065:15100   */\n      tag_488\n      jumpi\n        /* \"#utility.yul\":15080:15098   */\n      tag_489\n      tag_320\n      jump\t// in\n    tag_489:\n        /* \"#utility.yul\":15065:15100   */\n    tag_488:\n        /* \"#utility.yul\":15122:15123   */\n      dup3\n        /* \"#utility.yul\":15119:15120   */\n      dup3\n        /* \"#utility.yul\":15115:15124   */\n      div\n        /* \"#utility.yul\":15110:15124   */\n      swap1\n      pop\n        /* \"#utility.yul\":14945:15130   */\n      swap3\n      swap2\n      pop\n      pop\n      jump\t// out\n        /* \"#utility.yul\":15136:15310   */\n    tag_321:\n        /* \"#utility.yul\":15276:15302   */\n      0x5265636f6d6d656e646174696f6e206973206163746976650000000000000000\n        /* \"#utility.yul\":15272:15273   */\n      0x00\n        /* \"#utility.yul\":15264:15270   */\n      dup3\n        /* \"#utility.yul\":15260:15274   */\n      add\n        /* \"#utility.yul\":15253:15303   */\n      mstore\n        /* \"#utility.yul\":15136:15310   */\n      pop\n      jump\t// out\n        /* \"#utility.yul\":15316:15682   */\n    tag_322:\n        /* \"#utility.yul\":15458:15461   */\n      0x00\n        /* \"#utility.yul\":15479:15546   */\n      tag_492\n        /* \"#utility.yul\":15543:15545   */\n      0x18\n        /* \"#utility.yul\":15538:15541   */\n      dup4\n        /* \"#utility.yul\":15479:15546   */\n      tag_310\n      jump\t// in\n    tag_492:\n        /* \"#utility.yul\":15472:15546   */\n      swap2\n      pop\n        /* \"#utility.yul\":15555:15648   */\n      tag_493\n        /* \"#utility.yul\":15644:15647   */\n      dup3\n        /* \"#utility.yul\":15555:15648   */\n      tag_321\n      jump\t// in\n    tag_493:\n        /* \"#utility.yul\":15673:15675   */\n      0x20\n        /* \"#utility.yul\":15668:15671   */\n      dup3\n        /* \"#utility.yul\":15664:15676   */\n      add\n        /* \"#utility.yul\":15657:15676   */\n      swap1\n      pop\n        /* \"#utility.yul\":15316:15682   */\n      swap2\n      swap1\n      pop\n      jump\t// out\n        /* \"#utility.yul\":15688:16107   */\n    tag_139:\n        /* \"#utility.yul\":15854:15858   */\n      0x00\n        /* \"#utility.yul\":15892:15894   */\n      0x20\n        /* \"#utility.yul\":15881:15890   */\n      dup3\n        /* \"#utility.yul\":15877:15895   */\n      add\n        /* \"#utility.yul\":15869:15895   */\n      swap1\n      pop\n        /* \"#utility.yul\":15941:15950   */\n      dup2\n        /* \"#utility.yul\":15935:15939   */\n      dup2\n        /* \"#utility.yul\":15931:15951   */\n      sub\n        /* \"#utility.yul\":15927:15928   */\n      0x00\n        /* \"#utility.yul\":15916:15925   */\n      dup4\n        /* \"#utility.yul\":15912:15929   */\n      add\n        /* \"#utility.yul\":15905:15952   */\n      mstore\n        /* \"#utility.yul\":15969:16100   */\n      tag_495\n        /* \"#utility.yul\":16095:16099   */\n      dup2\n        /* \"#utility.yul\":15969:16100   */\n      tag_322\n      jump\t// in\n    tag_495:\n        /* \"#utility.yul\":15961:16100   */\n      swap1\n      pop\n        /* \"#utility.yul\":15688:16107   */\n      swap2\n      swap1\n      pop\n      jump\t// out\n        /* \"#utility.yul\":16113:16293   */\n    tag_323:\n        /* \"#utility.yul\":16161:16238   */\n      0x4e487b7100000000000000000000000000000000000000000000000000000000\n        /* \"#utility.yul\":16158:16159   */\n      0x00\n        /* \"#utility.yul\":16151:16239   */\n      mstore\n        /* \"#utility.yul\":16258:16262   */\n      0x22\n        /* \"#utility.yul\":16255:16256   */\n      0x04\n        /* \"#utility.yul\":16248:16263   */\n      mstore\n        /* \"#utility.yul\":16282:16286   */\n      0x24\n        /* \"#utility.yul\":16279:16280   */\n      0x00\n        /* \"#utility.yul\":16272:16287   */\n      revert\n        /* \"#utility.yul\":16299:16619   */\n    tag_175:\n        /* \"#utility.yul\":16343:16349   */\n      0x00\n        /* \"#utility.yul\":16380:16381   */\n      0x02\n        /* \"#utility.yul\":16374:16378   */\n      dup3\n        /* \"#utility.yul\":16370:16382   */\n      div\n        /* \"#utility.yul\":16360:16382   */\n      swap1\n      pop\n        /* \"#utility.yul\":16427:16428   */\n      0x01\n        /* \"#utility.yul\":16421:16425   */\n      dup3\n        /* \"#utility.yul\":16417:16429   */\n      and\n        /* \"#utility.yul\":16448:16466   */\n      dup1\n        /* \"#utility.yul\":16438:16519   */\n      tag_498\n      jumpi\n        /* \"#utility.yul\":16504:16508   */\n      0x7f\n        /* \"#utility.yul\":16496:16502   */\n      dup3\n        /* \"#utility.yul\":16492:16509   */\n      and\n        /* \"#utility.yul\":16482:16509   */\n      swap2\n      pop\n        /* \"#utility.yul\":16438:16519   */\n    tag_498:\n        /* \"#utility.yul\":16566:16568   */\n      0x20\n        /* \"#utility.yul\":16558:16564   */\n      dup3\n        /* \"#utility.yul\":16555:16569   */\n      lt\n        /* \"#utility.yul\":16535:16553   */\n      dup2\n        /* \"#utility.yul\":16532:16570   */\n      sub\n        /* \"#utility.yul\":16529:16613   */\n      tag_499\n      jumpi\n        /* \"#utility.yul\":16585:16603   */\n      tag_500\n      tag_323\n      jump\t// in\n    tag_500:\n        /* \"#utility.yul\":16529:16613   */\n    tag_499:\n        /* \"#utility.yul\":16350:16619   */\n      pop\n        /* \"#utility.yul\":16299:16619   */\n      swap2\n      swap1\n      pop\n      jump\t// out\n        /* \"#utility.yul\":16625:16766   */\n    tag_324:\n        /* \"#utility.yul\":16674:16678   */\n      0x00\n        /* \"#utility.yul\":16697:16700   */\n      dup2\n        /* \"#utility.yul\":16689:16700   */\n      swap1\n      pop\n        /* \"#utility.yul\":16720:16723   */\n      dup2\n        /* \"#utility.yul\":16717:16718   */\n      0x00\n        /* \"#utility.yul\":16710:16724   */\n      mstore\n        /* \"#utility.yul\":16754:16758   */\n      0x20\n        /* \"#utility.yul\":16751:16752   */\n      0x00\n        /* \"#utility.yul\":16741:16759   */\n      keccak256\n        /* \"#utility.yul\":16733:16759   */\n      swap1\n      pop\n        /* \"#utility.yul\":16625:16766   */\n      swap2\n      swap1\n      pop\n      jump\t// out\n        /* \"#utility.yul\":16772:16865   */\n    tag_325:\n        /* \"#utility.yul\":16809:16815   */\n      0x00\n        /* \"#utility.yul\":16856:16858   */\n      0x20\n        /* \"#utility.yul\":16851:16853   */\n      0x1f\n        /* \"#utility.yul\":16844:16849   */\n      dup4\n        /* \"#utility.yul\":16840:16854   */\n      add\n        /* \"#utility.yul\":16836:16859   */\n      div\n        /* \"#utility.yul\":16826:16859   */\n      swap1\n      pop\n        /* \"#utility.yul\":16772:16865   */\n      swap2\n      swap1\n      pop\n      jump\t// out\n        /* \"#utility.yul\":16871:16978   */\n    tag_326:\n        /* \"#utility.yul\":16915:16923   */\n      0x00\n        /* \"#utility.yul\":16965:16970   */\n      dup3\n        /* \"#utility.yul\":16959:16963   */\n      dup3\n        /* \"#utility.yul\":16955:16971   */\n      shl\n        /* \"#utility.yul\":16934:16971   */\n      swap1\n      pop\n        /* \"#utility.yul\":16871:16978   */\n      swap3\n      swap2\n      pop\n      pop\n      jump\t// out\n        /* \"#utility.yul\":16984:17377   */\n    tag_327:\n        /* \"#utility.yul\":17053:17059   */\n      0x00\n        /* \"#utility.yul\":17103:17104   */\n      0x08\n        /* \"#utility.yul\":17091:17101   */\n      dup4\n        /* \"#utility.yul\":17087:17105   */\n      mul\n        /* \"#utility.yul\":17126:17223   */\n      tag_505\n        /* \"#utility.yul\":17156:17222   */\n      0xffffffffffffffffffffffffffffffffffffffffffffffffffffffffffffffff\n        /* \"#utility.yul\":17145:17154   */\n      dup3\n        /* \"#utility.yul\":17126:17223   */\n      tag_326\n      jump\t// in\n    tag_505:\n        /* \"#utility.yul\":17244:17283   */\n      tag_506\n        /* \"#utility.yul\":17274:17282   */\n      dup7\n        /* \"#utility.yul\":17263:17272   */\n      dup4\n        /* \"#utility.yul\":17244:17283   */\n      tag_326\n      jump\t// in\n    tag_506:\n        /* \"#utility.yul\":17232:17283   */\n      swap6\n      pop\n        /* \"#utility.yul\":17316:17320   */\n      dup1\n        /* \"#utility.yul\":17312:17321   */\n      not\n        /* \"#utility.yul\":17305:17310   */\n      dup5\n        /* \"#utility.yul\":17301:17322   */\n      and\n        /* \"#utility.yul\":17292:17322   */\n      swap4\n      pop\n        /* \"#utility.yul\":17365:17369   */\n      dup1\n        /* \"#utility.yul\":17355:17363   */\n      dup7\n        /* \"#utility.yul\":17351:17370   */\n      and\n        /* \"#utility.yul\":17344:17349   */\n      dup5\n        /* \"#utility.yul\":17341:17371   */\n      or\n        /* \"#utility.yul\":17331:17371   */\n      swap3\n      pop\n        /* \"#utility.yul\":17060:17377   */\n      pop\n      pop\n        /* \"#utility.yul\":16984:17377   */\n      swap4\n      swap3\n      pop\n      pop\n      pop\n      jump\t// out\n        /* \"#utility.yul\":17383:17443   */\n    tag_328:\n        /* \"#utility.yul\":17411:17414   */\n      0x00\n        /* \"#utility.yul\":17432:17437   */\n      dup2\n        /* \"#utility.yul\":17425:17437   */\n      swap1\n      pop\n        /* \"#utility.yul\":17383:17443   */\n      swap2\n      swap1\n      pop\n      jump\t// out\n        /* \"#utility.yul\":17449:17591   */\n    tag_329:\n        /* \"#utility.yul\":17499:17508   */\n      0x00\n        /* \"#utility.yul\":17532:17585   */\n      tag_509\n        /* \"#utility.yul\":17550:17584   */\n      tag_510\n        /* \"#utility.yul\":17559:17583   */\n      tag_511\n        /* \"#utility.yul\":17577:17582   */\n      dup5\n        /* \"#utility.yul\":17559:17583   */\n      tag_280\n      jump\t// in\n    tag_511:\n        /* \"#utility.yul\":17550:17584   */\n      tag_328\n      jump\t// in\n    tag_510:\n        /* \"#utility.yul\":17532:17585   */\n      tag_280\n      jump\t// in\n    tag_509:\n        /* \"#utility.yul\":17519:17585   */\n      swap1\n      pop\n        /* \"#utility.yul\":17449:17591   */\n      swap2\n      swap1\n      pop\n      jump\t// out\n        /* \"#utility.yul\":17597:17672   */\n    tag_330:\n        /* \"#utility.yul\":17640:17643   */\n      0x00\n        /* \"#utility.yul\":17661:17666   */\n      dup2\n        /* \"#utility.yul\":17654:17666   */\n      swap1\n      pop\n        /* \"#utility.yul\":17597:17672   */\n      swap2\n      swap1\n      pop\n      jump\t// out\n        /* \"#utility.yul\":17678:17947   */\n    tag_331:\n        /* \"#utility.yul\":17788:17827   */\n      tag_514\n        /* \"#utility.yul\":17819:17826   */\n      dup4\n        /* \"#utility.yul\":17788:17827   */\n      tag_329\n      jump\t// in\n    tag_514:\n        /* \"#utility.yul\":17849:17940   */\n      tag_515\n        /* \"#utility.yul\":17898:17939   */\n      tag_516\n        /* \"#utility.yul\":17922:17938   */\n      dup3\n        /* \"#utility.yul\":17898:17939   */\n      tag_330\n      jump\t// in\n    tag_516:\n        /* \"#utility.yul\":17890:17896   */\n      dup5\n        /* \"#utility.yul\":17883:17887   */\n      dup5\n        /* \"#utility.yul\":17877:17888   */\n      sload\n        /* \"#utility.yul\":17849:17940   */\n      tag_327\n      jump\t// in\n    tag_515:\n        /* \"#utility.yul\":17843:17847   */\n      dup3\n        /* \"#utility.yul\":17836:17941   */\n      sstore\n        /* \"#utility.yul\":17754:17947   */\n      pop\n        /* \"#utility.yul\":17678:17947   */\n      pop\n      pop\n      pop\n      jump\t// out\n        /* \"#utility.yul\":17953:18026   */\n    tag_332:\n        /* \"#utility.yul\":17998:18001   */\n      0x00\n        /* \"#utility.yul\":17953:18026   */\n      swap1\n      jump\t// out\n        /* \"#utility.yul\":18032:18221   */\n    tag_333:\n        /* \"#utility.yul\":18109:18141   */\n      tag_519\n      tag_332\n      jump\t// in\n    tag_519:\n        /* \"#utility.yul\":18150:18215   */\n      tag_520\n        /* \"#utility.yul\":18208:18214   */\n      dup2\n        /* \"#utility.yul\":18200:18206   */\n      dup5\n        /* \"#utility.yul\":18194:18198   */\n      dup5\n        /* \"#utility.yul\":18150:18215   */\n      tag_331\n      jump\t// in\n    tag_520:\n        /* \"#utility.yul\":18085:18221   */\n      pop\n        /* \"#utility.yul\":18032:18221   */\n      pop\n      pop\n      jump\t// out\n        /* \"#utility.yul\":18227:18413   */\n    tag_334:\n        /* \"#utility.yul\":18287:18407   */\n    tag_522:\n        /* \"#utility.yul\":18304:18307   */\n      dup2\n        /* \"#utility.yul\":18297:18302   */\n      dup2\n        /* \"#utility.yul\":18294:18308   */\n      lt\n        /* \"#utility.yul\":18287:18407   */\n      iszero\n      tag_524\n      jumpi\n        /* \"#utility.yul\":18358:18397   */\n      tag_525\n        /* \"#utility.yul\":18395:18396   */\n      0x00\n        /* \"#utility.yul\":18388:18393   */\n      dup3\n        /* \"#utility.yul\":18358:18397   */\n      tag_333\n      jump\t// in\n    tag_525:\n        /* \"#utility.yul\":18331:18332   */\n      0x01\n        /* \"#utility.yul\":18324:18329   */\n      dup2\n        /* \"#utility.yul\":18320:18333   */\n      add\n        /* \"#utility.yul\":18311:18333   */\n      swap1\n      pop\n        /* \"#utility.yul\":18287:18407   */\n      jump(tag_522)\n    tag_524:\n        /* \"#utility.yul\":18227:18413   */\n      pop\n      pop\n      jump\t// out\n        /* \"#utility.yul\":18419:18962   */\n    tag_335:\n        /* \"#utility.yul\":18520:18522   */\n      0x1f\n        /* \"#utility.yul\":18515:18518   */\n      dup3\n        /* \"#utility.yul\":18512:18523   */\n      gt\n        /* \"#utility.yul\":18509:18955   */\n      iszero\n      tag_527\n      jumpi\n        /* \"#utility.yul\":18554:18592   */\n      tag_528\n        /* \"#utility.yul\":18586:18591   */\n      dup2\n        /* \"#utility.yul\":18554:18592   */\n      tag_324\n      jump\t// in\n    tag_528:\n        /* \"#utility.yul\":18638:18667   */\n      tag_529\n        /* \"#utility.yul\":18656:18666   */\n      dup5\n        /* \"#utility.yul\":18638:18667   */\n      tag_325\n      jump\t// in\n    tag_529:\n        /* \"#utility.yul\":18628:18636   */\n      dup2\n        /* \"#utility.yul\":18624:18668   */\n      add\n        /* \"#utility.yul\":18821:18823   */\n      0x20\n        /* \"#utility.yul\":18809:18819   */\n      dup6\n        /* \"#utility.yul\":18806:18824   */\n      lt\n        /* \"#utility.yul\":18803:18852   */\n      iszero\n      tag_530\n      jumpi\n        /* \"#utility.yul\":18842:18850   */\n      dup2\n        /* \"#utility.yul\":18827:18850   */\n      swap1\n      pop\n        /* \"#utility.yul\":18803:18852   */\n    tag_530:\n        /* \"#utility.yul\":18865:18945   */\n      tag_531\n        /* \"#utility.yul\":18921:18943   */\n      tag_532\n        /* \"#utility.yul\":18939:18942   */\n      dup6\n        /* \"#utility.yul\":18921:18943   */\n      tag_325\n      jump\t// in\n    tag_532:\n        /* \"#utility.yul\":18911:18919   */\n      dup4\n        /* \"#utility.yul\":18907:18944   */\n      add\n        /* \"#utility.yul\":18894:18905   */\n      dup3\n        /* \"#utility.yul\":18865:18945   */\n      tag_334\n      jump\t// in\n    tag_531:\n        /* \"#utility.yul\":18524:18955   */\n      pop\n      pop\n        /* \"#utility.yul\":18509:18955   */\n    tag_527:\n        /* \"#utility.yul\":18419:18962   */\n      pop\n      pop\n      pop\n      jump\t// out\n        /* \"#utility.yul\":18968:19085   */\n    tag_336:\n        /* \"#utility.yul\":19022:19030   */\n      0x00\n        /* \"#utility.yul\":19072:19077   */\n      dup3\n        /* \"#utility.yul\":19066:19070   */\n      dup3\n        /* \"#utility.yul\":19062:19078   */\n      shr\n        /* \"#utility.yul\":19041:19078   */\n      swap1\n      pop\n        /* \"#utility.yul\":18968:19085   */\n      swap3\n      swap2\n      pop\n      pop\n      jump\t// out\n        /* \"#utility.yul\":19091:19260   */\n    tag_337:\n        /* \"#utility.yul\":19135:19141   */\n      0x00\n        /* \"#utility.yul\":19168:19219   */\n      tag_535\n        /* \"#utility.yul\":19216:19217   */\n      0x00\n        /* \"#utility.yul\":19212:19218   */\n      not\n        /* \"#utility.yul\":19204:19209   */\n      dup5\n        /* \"#utility.yul\":19201:19202   */\n      0x08\n        /* \"#utility.yul\":19197:19210   */\n      mul\n        /* \"#utility.yul\":19168:19219   */\n      tag_336\n      jump\t// in\n    tag_535:\n        /* \"#utility.yul\":19164:19220   */\n      not\n        /* \"#utility.yul\":19249:19253   */\n      dup1\n        /* \"#utility.yul\":19243:19247   */\n      dup4\n        /* \"#utility.yul\":19239:19254   */\n      and\n        /* \"#utility.yul\":19229:19254   */\n      swap2\n      pop\n        /* \"#utility.yul\":19142:19260   */\n      pop\n        /* \"#utility.yul\":19091:19260   */\n      swap3\n      swap2\n      pop\n      pop\n      jump\t// out\n        /* \"#utility.yul\":19265:19560   */\n    tag_338:\n        /* \"#utility.yul\":19341:19345   */\n      0x00\n        /* \"#utility.yul\":19487:19516   */\n      tag_537\n        /* \"#utility.yul\":19512:19515   */\n      dup4\n        /* \"#utility.yul\":19506:19510   */\n      dup4\n        /* \"#utility.yul\":19487:19516   */\n      tag_337\n      jump\t// in\n    tag_537:\n        /* \"#utility.yul\":19479:19516   */\n      swap2\n      pop\n        /* \"#utility.yul\":19549:19552   */\n      dup3\n        /* \"#utility.yul\":19546:19547   */\n      0x02\n        /* \"#utility.yul\":19542:19553   */\n      mul\n        /* \"#utility.yul\":19536:19540   */\n      dup3\n        /* \"#utility.yul\":19533:19554   */\n      or\n        /* \"#utility.yul\":19525:19554   */\n      swap1\n      pop\n        /* \"#utility.yul\":19265:19560   */\n      swap3\n      swap2\n      pop\n      pop\n      jump\t// out\n        /* \"#utility.yul\":19565:20960   */\n    tag_150:\n        /* \"#utility.yul\":19682:19719   */\n      tag_539\n        /* \"#utility.yul\":19715:19718   */\n      dup3\n        /* \"#utility.yul\":19682:19719   */\n      tag_296\n      jump\t// in\n    tag_539:\n        /* \"#utility.yul\":19784:19802   */\n      0xffffffffffffffff\n        /* \"#utility.yul\":19776:19782   */\n      dup2\n        /* \"#utility.yul\":19773:19803   */\n      gt\n        /* \"#utility.yul\":19770:19826   */\n      iszero\n      tag_540\n      jumpi\n        /* \"#utility.yul\":19806:19824   */\n      tag_541\n      tag_110\n      jump\t// in\n    tag_541:\n        /* \"#utility.yul\":19770:19826   */\n    tag_540:\n        /* \"#utility.yul\":19850:19888   */\n      tag_542\n        /* \"#utility.yul\":19882:19886   */\n      dup3\n        /* \"#utility.yul\":19876:19887   */\n      sload\n        /* \"#utility.yul\":19850:19888   */\n      tag_175\n      jump\t// in\n    tag_542:\n        /* \"#utility.yul\":19935:20002   */\n      tag_543\n        /* \"#utility.yul\":19995:20001   */\n      dup3\n        /* \"#utility.yul\":19987:19993   */\n      dup3\n        /* \"#utility.yul\":19981:19985   */\n      dup6\n        /* \"#utility.yul\":19935:20002   */\n      tag_335\n      jump\t// in\n    tag_543:\n        /* \"#utility.yul\":20029:20030   */\n      0x00\n        /* \"#utility.yul\":20053:20057   */\n      0x20\n        /* \"#utility.yul\":20040:20057   */\n      swap1\n      pop\n        /* \"#utility.yul\":20085:20087   */\n      0x1f\n        /* \"#utility.yul\":20077:20083   */\n      dup4\n        /* \"#utility.yul\":20074:20088   */\n      gt\n        /* \"#utility.yul\":20102:20103   */\n      0x01\n        /* \"#utility.yul\":20097:20715   */\n      dup2\n      eq\n      tag_545\n      jumpi\n        /* \"#utility.yul\":20759:20760   */\n      0x00\n        /* \"#utility.yul\":20776:20782   */\n      dup5\n        /* \"#utility.yul\":20773:20850   */\n      iszero\n      tag_546\n      jumpi\n        /* \"#utility.yul\":20825:20834   */\n      dup3\n        /* \"#utility.yul\":20820:20823   */\n      dup8\n        /* \"#utility.yul\":20816:20835   */\n      add\n        /* \"#utility.yul\":20810:20836   */\n      mload\n        /* \"#utility.yul\":20801:20836   */\n      swap1\n      pop\n        /* \"#utility.yul\":20773:20850   */\n    tag_546:\n        /* \"#utility.yul\":20876:20943   */\n      tag_547\n        /* \"#utility.yul\":20936:20942   */\n      dup6\n        /* \"#utility.yul\":20929:20934   */\n      dup3\n        /* \"#utility.yul\":20876:20943   */\n      tag_338\n      jump\t// in\n    tag_547:\n        /* \"#utility.yul\":20870:20874   */\n      dup7\n        /* \"#utility.yul\":20863:20944   */\n      sstore\n        /* \"#utility.yul\":20732:20954   */\n      pop\n        /* \"#utility.yul\":20067:20954   */\n      jump(tag_544)\n        /* \"#utility.yul\":20097:20715   */\n    tag_545:\n        /* \"#utility.yul\":20149:20153   */\n      0x1f\n        /* \"#utility.yul\":20145:20154   */\n      not\n        /* \"#utility.yul\":20137:20143   */\n      dup5\n        /* \"#utility.yul\":20133:20155   */\n      and\n        /* \"#utility.yul\":20183:20220   */\n      tag_548\n        /* \"#utility.yul\":20215:20219   */\n      dup7\n        /* \"#utility.yul\":20183:20220   */\n      tag_324\n      jump\t// in\n    tag_548:\n        /* \"#utility.yul\":20242:20243   */\n      0x00\n        /* \"#utility.yul\":20256:20464   */\n    tag_549:\n        /* \"#utility.yul\":20270:20277   */\n      dup3\n        /* \"#utility.yul\":20267:20268   */\n      dup2\n        /* \"#utility.yul\":20264:20278   */\n      lt\n        /* \"#utility.yul\":20256:20464   */\n      iszero\n      tag_551\n      jumpi\n        /* \"#utility.yul\":20349:20358   */\n      dup5\n        /* \"#utility.yul\":20344:20347   */\n      dup10\n        /* \"#utility.yul\":20340:20359   */\n      add\n        /* \"#utility.yul\":20334:20360   */\n      mload\n        /* \"#utility.yul\":20326:20332   */\n      dup3\n        /* \"#utility.yul\":20319:20361   */\n      sstore\n        /* \"#utility.yul\":20400:20401   */\n      0x01\n        /* \"#utility.yul\":20392:20398   */\n      dup3\n        /* \"#utility.yul\":20388:20402   */\n      add\n        /* \"#utility.yul\":20378:20402   */\n      swap2\n      pop\n        /* \"#utility.yul\":20447:20449   */\n      0x20\n        /* \"#utility.yul\":20436:20445   */\n      dup6\n        /* \"#utility.yul\":20432:20450   */\n      add\n        /* \"#utility.yul\":20419:20450   */\n      swap5\n      pop\n        /* \"#utility.yul\":20293:20297   */\n      0x20\n        /* \"#utility.yul\":20290:20291   */\n      dup2\n        /* \"#utility.yul\":20286:20298   */\n      add\n        /* \"#utility.yul\":20281:20298   */\n      swap1\n      pop\n        /* \"#utility.yul\":20256:20464   */\n      jump(tag_549)\n    tag_551:\n        /* \"#utility.yul\":20492:20498   */\n      dup7\n        /* \"#utility.yul\":20483:20490   */\n      dup4\n        /* \"#utility.yul\":20480:20499   */\n      lt\n        /* \"#utility.yul\":20477:20656   */\n      iszero\n      tag_552\n      jumpi\n        /* \"#utility.yul\":20550:20559   */\n      dup5\n        /* \"#utility.yul\":20545:20548   */\n      dup10\n        /* \"#utility.yul\":20541:20560   */\n      add\n        /* \"#utility.yul\":20535:20561   */\n      mload\n        /* \"#utility.yul\":20593:20641   */\n      tag_553\n        /* \"#utility.yul\":20635:20639   */\n      0x1f\n        /* \"#utility.yul\":20627:20633   */\n      dup10\n        /* \"#utility.yul\":20623:20640   */\n      and\n        /* \"#utility.yul\":20612:20621   */\n      dup3\n        /* \"#utility.yul\":20593:20641   */\n      tag_337\n      jump\t// in\n    tag_553:\n        /* \"#utility.yul\":20585:20591   */\n      dup4\n        /* \"#utility.yul\":20578:20642   */\n      sstore\n        /* \"#utility.yul\":20500:20656   */\n      pop\n        /* \"#utility.yul\":20477:20656   */\n    tag_552:\n        /* \"#utility.yul\":20702:20703   */\n      0x01\n        /* \"#utility.yul\":20698:20699   */\n      0x02\n        /* \"#utility.yul\":20690:20696   */\n      dup9\n        /* \"#utility.yul\":20686:20700   */\n      mul\n        /* \"#utility.yul\":20682:20704   */\n      add\n        /* \"#utility.yul\":20676:20680   */\n      dup9\n        /* \"#utility.yul\":20669:20705   */\n      sstore\n        /* \"#utility.yul\":20104:20715   */\n      pop\n      pop\n      pop\n        /* \"#utility.yul\":20067:20954   */\n    tag_544:\n      pop\n        /* \"#utility.yul\":19657:20960   */\n      pop\n      pop\n      pop\n        /* \"#utility.yul\":19565:20960   */\n      pop\n      pop\n      jump\t// out\n        /* \"#utility.yul\":20966:21137   */\n    tag_339:\n        /* \"#utility.yul\":21106:21129   */\n      0x4e6f7420656e6f7567682063616e646964617465730000000000000000000000\n        /* \"#utility.yul\":21102:21103   */\n      0x00\n        /* \"#utility.yul\":21094:21100   */\n      dup3\n        /* \"#utility.yul\":21090:21104   */\n      add\n        /* \"#utility.yul\":21083:21130   */\n      mstore\n        /* \"#utility.yul\":20966:21137   */\n      pop\n      jump\t// out\n        /* \"#utility.yul\":21143:21509   */\n    tag_340:\n        /* \"#utility.yul\":21285:21288   */\n      0x00\n        /* \"#utility.yul\":21306:21373   */\n      tag_556\n        /* \"#utility.yul\":21370:21372   */\n      0x15\n        /* \"#utility.yul\":21365:21368   */\n      dup4\n        /* \"#utility.yul\":21306:21373   */\n      tag_310\n      jump\t// in\n    tag_556:\n        /* \"#utility.yul\":21299:21373   */\n      swap2\n      pop\n        /* \"#utility.yul\":21382:21475   */\n      tag_557\n        /* \"#utility.yul\":21471:21474   */\n      dup3\n        /* \"#utility.yul\":21382:21475   */\n      tag_339\n      jump\t// in\n    tag_557:\n        /* \"#utility.yul\":21500:21502   */\n      0x20\n        /* \"#utility.yul\":21495:21498   */\n      dup3\n        /* \"#utility.yul\":21491:21503   */\n      add\n        /* \"#utility.yul\":21484:21503   */\n      swap1\n      pop\n        /* \"#utility.yul\":21143:21509   */\n      swap2\n      swap1\n      pop\n      jump\t// out\n        /* \"#utility.yul\":21515:21934   */\n    tag_157:\n        /* \"#utility.yul\":21681:21685   */\n      0x00\n        /* \"#utility.yul\":21719:21721   */\n      0x20\n        /* \"#utility.yul\":21708:21717   */\n      dup3\n        /* \"#utility.yul\":21704:21722   */\n      add\n        /* \"#utility.yul\":21696:21722   */\n      swap1\n      pop\n        /* \"#utility.yul\":21768:21777   */\n      dup2\n        /* \"#utility.yul\":21762:21766   */\n      dup2\n        /* \"#utility.yul\":21758:21778   */\n      sub\n        /* \"#utility.yul\":21754:21755   */\n      0x00\n        /* \"#utility.yul\":21743:21752   */\n      dup4\n        /* \"#utility.yul\":21739:21756   */\n      add\n        /* \"#utility.yul\":21732:21779   */\n      mstore\n        /* \"#utility.yul\":21796:21927   */\n      tag_559\n        /* \"#utility.yul\":21922:21926   */\n      dup2\n        /* \"#utility.yul\":21796:21927   */\n      tag_340\n      jump\t// in\n    tag_559:\n        /* \"#utility.yul\":21788:21927   */\n      swap1\n      pop\n        /* \"#utility.yul\":21515:21934   */\n      swap2\n      swap1\n      pop\n      jump\t// out\n        /* \"#utility.yul\":21940:22162   */\n    tag_341:\n        /* \"#utility.yul\":22080:22114   */\n      0x55736572206d61646520746865207265636f6d6d656e646174696f6e20626566\n        /* \"#utility.yul\":22076:22077   */\n      0x00\n        /* \"#utility.yul\":22068:22074   */\n      dup3\n        /* \"#utility.yul\":22064:22078   */\n      add\n        /* \"#utility.yul\":22057:22115   */\n      mstore\n        /* \"#utility.yul\":22149:22154   */\n      0x6f72650000000000000000000000000000000000000000000000000000000000\n        /* \"#utility.yul\":22144:22146   */\n      0x20\n        /* \"#utility.yul\":22136:22142   */\n      dup3\n        /* \"#utility.yul\":22132:22147   */\n      add\n        /* \"#utility.yul\":22125:22155   */\n      mstore\n        /* \"#utility.yul\":21940:22162   */\n      pop\n      jump\t// out\n        /* \"#utility.yul\":22168:22534   */\n    tag_342:\n        /* \"#utility.yul\":22310:22313   */\n      0x00\n        /* \"#utility.yul\":22331:22398   */\n      tag_562\n        /* \"#utility.yul\":22395:22397   */\n      0x23\n        /* \"#utility.yul\":22390:22393   */\n      dup4\n        /* \"#utility.yul\":22331:22398   */\n      tag_310\n      jump\t// in\n    tag_562:\n        /* \"#utility.yul\":22324:22398   */\n      swap2\n      pop\n        /* \"#utility.yul\":22407:22500   */\n      tag_563\n        /* \"#utility.yul\":22496:22499   */\n      dup3\n        /* \"#utility.yul\":22407:22500   */\n      tag_341\n      jump\t// in\n    tag_563:\n        /* \"#utility.yul\":22525:22527   */\n      0x40\n        /* \"#utility.yul\":22520:22523   */\n      dup3\n        /* \"#utility.yul\":22516:22528   */\n      add\n        /* \"#utility.yul\":22509:22528   */\n      swap1\n      pop\n        /* \"#utility.yul\":22168:22534   */\n      swap2\n      swap1\n      pop\n      jump\t// out\n        /* \"#utility.yul\":22540:22959   */\n    tag_233:\n        /* \"#utility.yul\":22706:22710   */\n      0x00\n        /* \"#utility.yul\":22744:22746   */\n      0x20\n        /* \"#utility.yul\":22733:22742   */\n      dup3\n        /* \"#utility.yul\":22729:22747   */\n      add\n        /* \"#utility.yul\":22721:22747   */\n      swap1\n      pop\n        /* \"#utility.yul\":22793:22802   */\n      dup2\n        /* \"#utility.yul\":22787:22791   */\n      dup2\n        /* \"#utility.yul\":22783:22803   */\n      sub\n        /* \"#utility.yul\":22779:22780   */\n      0x00\n        /* \"#utility.yul\":22768:22777   */\n      dup4\n        /* \"#utility.yul\":22764:22781   */\n      add\n        /* \"#utility.yul\":22757:22804   */\n      mstore\n        /* \"#utility.yul\":22821:22952   */\n      tag_565\n        /* \"#utility.yul\":22947:22951   */\n      dup2\n        /* \"#utility.yul\":22821:22952   */\n      tag_342\n      jump\t// in\n    tag_565:\n        /* \"#utility.yul\":22813:22952   */\n      swap1\n      pop\n        /* \"#utility.yul\":22540:22959   */\n      swap2\n      swap1\n      pop\n      jump\t// out\n        /* \"#utility.yul\":22965:23132   */\n    tag_343:\n        /* \"#utility.yul\":23105:23124   */\n      0x4e6f206d6f72652063616e646964617465000000000000000000000000000000\n        /* \"#utility.yul\":23101:23102   */\n      0x00\n        /* \"#utility.yul\":23093:23099   */\n      dup3\n        /* \"#utility.yul\":23089:23103   */\n      add\n        /* \"#utility.yul\":23082:23125   */\n      mstore\n        /* \"#utility.yul\":22965:23132   */\n      pop\n      jump\t// out\n        /* \"#utility.yul\":23138:23504   */\n    tag_344:\n        /* \"#utility.yul\":23280:23283   */\n      0x00\n        /* \"#utility.yul\":23301:23368   */\n      tag_568\n        /* \"#utility.yul\":23365:23367   */\n      0x11\n        /* \"#utility.yul\":23360:23363   */\n      dup4\n        /* \"#utility.yul\":23301:23368   */\n      tag_310\n      jump\t// in\n    tag_568:\n        /* \"#utility.yul\":23294:23368   */\n      swap2\n      pop\n        /* \"#utility.yul\":23377:23470   */\n      tag_569\n        /* \"#utility.yul\":23466:23469   */\n      dup3\n        /* \"#utility.yul\":23377:23470   */\n      tag_343\n      jump\t// in\n    tag_569:\n        /* \"#utility.yul\":23495:23497   */\n      0x20\n        /* \"#utility.yul\":23490:23493   */\n      dup3\n        /* \"#utility.yul\":23486:23498   */\n      add\n        /* \"#utility.yul\":23479:23498   */\n      swap1\n      pop\n        /* \"#utility.yul\":23138:23504   */\n      swap2\n      swap1\n      pop\n      jump\t// out\n        /* \"#utility.yul\":23510:23929   */\n    tag_237:\n        /* \"#utility.yul\":23676:23680   */\n      0x00\n        /* \"#utility.yul\":23714:23716   */\n      0x20\n        /* \"#utility.yul\":23703:23712   */\n      dup3\n        /* \"#utility.yul\":23699:23717   */\n      add\n        /* \"#utility.yul\":23691:23717   */\n      swap1\n      pop\n        /* \"#utility.yul\":23763:23772   */\n      dup2\n        /* \"#utility.yul\":23757:23761   */\n      dup2\n        /* \"#utility.yul\":23753:23773   */\n      sub\n        /* \"#utility.yul\":23749:23750   */\n      0x00\n        /* \"#utility.yul\":23738:23747   */\n      dup4\n        /* \"#utility.yul\":23734:23751   */\n      add\n        /* \"#utility.yul\":23727:23774   */\n      mstore\n        /* \"#utility.yul\":23791:23922   */\n      tag_571\n        /* \"#utility.yul\":23917:23921   */\n      dup2\n        /* \"#utility.yul\":23791:23922   */\n      tag_344\n      jump\t// in\n    tag_571:\n        /* \"#utility.yul\":23783:23922   */\n      swap1\n      pop\n        /* \"#utility.yul\":23510:23929   */\n      swap2\n      swap1\n      pop\n      jump\t// out\n        /* \"#utility.yul\":23935:24113   */\n    tag_345:\n        /* \"#utility.yul\":24075:24105   */\n      0x5265636f6d6d656e646174696f6e206973206e6f742061637469766500000000\n        /* \"#utility.yul\":24071:24072   */\n      0x00\n        /* \"#utility.yul\":24063:24069   */\n      dup3\n        /* \"#utility.yul\":24059:24073   */\n      add\n        /* \"#utility.yul\":24052:24106   */\n      mstore\n        /* \"#utility.yul\":23935:24113   */\n      pop\n      jump\t// out\n        /* \"#utility.yul\":24119:24485   */\n    tag_346:\n        /* \"#utility.yul\":24261:24264   */\n      0x00\n        /* \"#utility.yul\":24282:24349   */\n      tag_574\n        /* \"#utility.yul\":24346:24348   */\n      0x1c\n        /* \"#utility.yul\":24341:24344   */\n      dup4\n        /* \"#utility.yul\":24282:24349   */\n      tag_310\n      jump\t// in\n    tag_574:\n        /* \"#utility.yul\":24275:24349   */\n      swap2\n      pop\n        /* \"#utility.yul\":24358:24451   */\n      tag_575\n        /* \"#utility.yul\":24447:24450   */\n      dup3\n        /* \"#utility.yul\":24358:24451   */\n      tag_345\n      jump\t// in\n    tag_575:\n        /* \"#utility.yul\":24476:24478   */\n      0x20\n        /* \"#utility.yul\":24471:24474   */\n      dup3\n        /* \"#utility.yul\":24467:24479   */\n      add\n        /* \"#utility.yul\":24460:24479   */\n      swap1\n      pop\n        /* \"#utility.yul\":24119:24485   */\n      swap2\n      swap1\n      pop\n      jump\t// out\n        /* \"#utility.yul\":24491:24910   */\n    tag_241:\n        /* \"#utility.yul\":24657:24661   */\n      0x00\n        /* \"#utility.yul\":24695:24697   */\n      0x20\n        /* \"#utility.yul\":24684:24693   */\n      dup3\n        /* \"#utility.yul\":24680:24698   */\n      add\n        /* \"#utility.yul\":24672:24698   */\n      swap1\n      pop\n        /* \"#utility.yul\":24744:24753   */\n      dup2\n        /* \"#utility.yul\":24738:24742   */\n      dup2\n        /* \"#utility.yul\":24734:24754   */\n      sub\n        /* \"#utility.yul\":24730:24731   */\n      0x00\n        /* \"#utility.yul\":24719:24728   */\n      dup4\n        /* \"#utility.yul\":24715:24732   */\n      add\n        /* \"#utility.yul\":24708:24755   */\n      mstore\n        /* \"#utility.yul\":24772:24903   */\n      tag_577\n        /* \"#utility.yul\":24898:24902   */\n      dup2\n        /* \"#utility.yul\":24772:24903   */\n      tag_346\n      jump\t// in\n    tag_577:\n        /* \"#utility.yul\":24764:24903   */\n      swap1\n      pop\n        /* \"#utility.yul\":24491:24910   */\n      swap2\n      swap1\n      pop\n      jump\t// out\n        /* \"#utility.yul\":24916:24995   */\n    tag_347:\n        /* \"#utility.yul\":24955:24962   */\n      0x00\n        /* \"#utility.yul\":24984:24989   */\n      dup2\n        /* \"#utility.yul\":24973:24989   */\n      swap1\n      pop\n        /* \"#utility.yul\":24916:24995   */\n      swap2\n      swap1\n      pop\n      jump\t// out\n        /* \"#utility.yul\":25001:25158   */\n    tag_348:\n        /* \"#utility.yul\":25106:25151   */\n      tag_580\n        /* \"#utility.yul\":25126:25150   */\n      tag_581\n        /* \"#utility.yul\":25144:25149   */\n      dup3\n        /* \"#utility.yul\":25126:25150   */\n      tag_280\n      jump\t// in\n    tag_581:\n        /* \"#utility.yul\":25106:25151   */\n      tag_347\n      jump\t// in\n    tag_580:\n        /* \"#utility.yul\":25101:25104   */\n      dup3\n        /* \"#utility.yul\":25094:25152   */\n      mstore\n        /* \"#utility.yul\":25001:25158   */\n      pop\n      pop\n      jump\t// out\n        /* \"#utility.yul\":25164:25258   */\n    tag_349:\n        /* \"#utility.yul\":25197:25205   */\n      0x00\n        /* \"#utility.yul\":25245:25250   */\n      dup2\n        /* \"#utility.yul\":25241:25243   */\n      0x60\n        /* \"#utility.yul\":25237:25251   */\n      shl\n        /* \"#utility.yul\":25216:25251   */\n      swap1\n      pop\n        /* \"#utility.yul\":25164:25258   */\n      swap2\n      swap1\n      pop\n      jump\t// out\n        /* \"#utility.yul\":25264:25358   */\n    tag_350:\n        /* \"#utility.yul\":25303:25310   */\n      0x00\n        /* \"#utility.yul\":25332:25352   */\n      tag_584\n        /* \"#utility.yul\":25346:25351   */\n      dup3\n        /* \"#utility.yul\":25332:25352   */\n      tag_349\n      jump\t// in\n    tag_584:\n        /* \"#utility.yul\":25321:25352   */\n      swap1\n      pop\n        /* \"#utility.yul\":25264:25358   */\n      swap2\n      swap1\n      pop\n      jump\t// out\n        /* \"#utility.yul\":25364:25464   */\n    tag_351:\n        /* \"#utility.yul\":25403:25410   */\n      0x00\n        /* \"#utility.yul\":25432:25458   */\n      tag_586\n        /* \"#utility.yul\":25452:25457   */\n      dup3\n        /* \"#utility.yul\":25432:25458   */\n      tag_350\n      jump\t// in\n    tag_586:\n        /* \"#utility.yul\":25421:25458   */\n      swap1\n      pop\n        /* \"#utility.yul\":25364:25464   */\n      swap2\n      swap1\n      pop\n      jump\t// out\n        /* \"#utility.yul\":25470:25627   */\n    tag_352:\n        /* \"#utility.yul\":25575:25620   */\n      tag_588\n        /* \"#utility.yul\":25595:25619   */\n      tag_589\n        /* \"#utility.yul\":25613:25618   */\n      dup3\n        /* \"#utility.yul\":25595:25619   */\n      tag_287\n      jump\t// in\n    tag_589:\n        /* \"#utility.yul\":25575:25620   */\n      tag_351\n      jump\t// in\n    tag_588:\n        /* \"#utility.yul\":25570:25573   */\n      dup3\n        /* \"#utility.yul\":25563:25621   */\n      mstore\n        /* \"#utility.yul\":25470:25627   */\n      pop\n      pop\n      jump\t// out\n        /* \"#utility.yul\":25633:26171   */\n    tag_253:\n        /* \"#utility.yul\":25801:25804   */\n      0x00\n        /* \"#utility.yul\":25816:25891   */\n      tag_591\n        /* \"#utility.yul\":25887:25890   */\n      dup3\n        /* \"#utility.yul\":25878:25884   */\n      dup7\n        /* \"#utility.yul\":25816:25891   */\n      tag_348\n      jump\t// in\n    tag_591:\n        /* \"#utility.yul\":25916:25918   */\n      0x20\n        /* \"#utility.yul\":25911:25914   */\n      dup3\n        /* \"#utility.yul\":25907:25919   */\n      add\n        /* \"#utility.yul\":25900:25919   */\n      swap2\n      pop\n        /* \"#utility.yul\":25929:26004   */\n      tag_592\n        /* \"#utility.yul\":26000:26003   */\n      dup3\n        /* \"#utility.yul\":25991:25997   */\n      dup6\n        /* \"#utility.yul\":25929:26004   */\n      tag_348\n      jump\t// in\n    tag_592:\n        /* \"#utility.yul\":26029:26031   */\n      0x20\n        /* \"#utility.yul\":26024:26027   */\n      dup3\n        /* \"#utility.yul\":26020:26032   */\n      add\n        /* \"#utility.yul\":26013:26032   */\n      swap2\n      pop\n        /* \"#utility.yul\":26042:26117   */\n      tag_593\n        /* \"#utility.yul\":26113:26116   */\n      dup3\n        /* \"#utility.yul\":26104:26110   */\n      dup5\n        /* \"#utility.yul\":26042:26117   */\n      tag_352\n      jump\t// in\n    tag_593:\n        /* \"#utility.yul\":26142:26144   */\n      0x14\n        /* \"#utility.yul\":26137:26140   */\n      dup3\n        /* \"#utility.yul\":26133:26145   */\n      add\n        /* \"#utility.yul\":26126:26145   */\n      swap2\n      pop\n        /* \"#utility.yul\":26162:26165   */\n      dup2\n        /* \"#utility.yul\":26155:26165   */\n      swap1\n      pop\n        /* \"#utility.yul\":25633:26171   */\n      swap5\n      swap4\n      pop\n      pop\n      pop\n      pop\n      jump\t// out\n        /* \"#utility.yul\":26177:26353   */\n    tag_255:\n        /* \"#utility.yul\":26209:26210   */\n      0x00\n        /* \"#utility.yul\":26226:26246   */\n      tag_595\n        /* \"#utility.yul\":26244:26245   */\n      dup3\n        /* \"#utility.yul\":26226:26246   */\n      tag_280\n      jump\t// in\n    tag_595:\n        /* \"#utility.yul\":26221:26246   */\n      swap2\n      pop\n        /* \"#utility.yul\":26260:26280   */\n      tag_596\n        /* \"#utility.yul\":26278:26279   */\n      dup4\n        /* \"#utility.yul\":26260:26280   */\n      tag_280\n      jump\t// in\n    tag_596:\n        /* \"#utility.yul\":26255:26280   */\n      swap3\n      pop\n        /* \"#utility.yul\":26299:26300   */\n      dup3\n        /* \"#utility.yul\":26289:26324   */\n      tag_597\n      jumpi\n        /* \"#utility.yul\":26304:26322   */\n      tag_598\n      tag_320\n      jump\t// in\n    tag_598:\n        /* \"#utility.yul\":26289:26324   */\n    tag_597:\n        /* \"#utility.yul\":26345:26346   */\n      dup3\n        /* \"#utility.yul\":26342:26343   */\n      dup3\n        /* \"#utility.yul\":26338:26347   */\n      mod\n        /* \"#utility.yul\":26333:26347   */\n      swap1\n      pop\n        /* \"#utility.yul\":26177:26353   */\n      swap3\n      swap2\n      pop\n      pop\n      jump\t// out\n        /* \"#utility.yul\":26359:26457   */\n    tag_353:\n        /* \"#utility.yul\":26410:26416   */\n      0x00\n        /* \"#utility.yul\":26444:26449   */\n      dup2\n        /* \"#utility.yul\":26438:26450   */\n      mload\n        /* \"#utility.yul\":26428:26450   */\n      swap1\n      pop\n        /* \"#utility.yul\":26359:26457   */\n      swap2\n      swap1\n      pop\n      jump\t// out\n        /* \"#utility.yul\":26463:26610   */\n    tag_354:\n        /* \"#utility.yul\":26564:26575   */\n      0x00\n        /* \"#utility.yul\":26601:26604   */\n      dup2\n        /* \"#utility.yul\":26586:26604   */\n      swap1\n      pop\n        /* \"#utility.yul\":26463:26610   */\n      swap3\n      swap2\n      pop\n      pop\n      jump\t// out\n        /* \"#utility.yul\":26616:27002   */\n    tag_355:\n        /* \"#utility.yul\":26720:26723   */\n      0x00\n        /* \"#utility.yul\":26748:26786   */\n      tag_602\n        /* \"#utility.yul\":26780:26785   */\n      dup3\n        /* \"#utility.yul\":26748:26786   */\n      tag_353\n      jump\t// in\n    tag_602:\n        /* \"#utility.yul\":26802:26890   */\n      tag_603\n        /* \"#utility.yul\":26883:26889   */\n      dup2\n        /* \"#utility.yul\":26878:26881   */\n      dup6\n        /* \"#utility.yul\":26802:26890   */\n      tag_354\n      jump\t// in\n    tag_603:\n        /* \"#utility.yul\":26795:26890   */\n      swap4\n      pop\n        /* \"#utility.yul\":26899:26964   */\n      tag_604\n        /* \"#utility.yul\":26957:26963   */\n      dup2\n        /* \"#utility.yul\":26952:26955   */\n      dup6\n        /* \"#utility.yul\":26945:26949   */\n      0x20\n        /* \"#utility.yul\":26938:26943   */\n      dup7\n        /* \"#utility.yul\":26934:26950   */\n      add\n        /* \"#utility.yul\":26899:26964   */\n      tag_298\n      jump\t// in\n    tag_604:\n        /* \"#utility.yul\":26989:26995   */\n      dup1\n        /* \"#utility.yul\":26984:26987   */\n      dup5\n        /* \"#utility.yul\":26980:26996   */\n      add\n        /* \"#utility.yul\":26973:26996   */\n      swap2\n      pop\n        /* \"#utility.yul\":26724:27002   */\n      pop\n        /* \"#utility.yul\":26616:27002   */\n      swap3\n      swap2\n      pop\n      pop\n      jump\t// out\n        /* \"#utility.yul\":27008:27279   */\n    tag_271:\n        /* \"#utility.yul\":27138:27141   */\n      0x00\n        /* \"#utility.yul\":27160:27253   */\n      tag_606\n        /* \"#utility.yul\":27249:27252   */\n      dup3\n        /* \"#utility.yul\":27240:27246   */\n      dup5\n        /* \"#utility.yul\":27160:27253   */\n      tag_355\n      jump\t// in\n    tag_606:\n        /* \"#utility.yul\":27153:27253   */\n      swap2\n      pop\n        /* \"#utility.yul\":27270:27273   */\n      dup2\n        /* \"#utility.yul\":27263:27273   */\n      swap1\n      pop\n        /* \"#utility.yul\":27008:27279   */\n      swap3\n      swap2\n      pop\n      pop\n      jump\t// out\n\n    auxdata: 0xa2646970667358221220f4620aa01da074f267b9c4eb2879bc2034243ae557133582c84da76d6d46b7e764736f6c63430008130033\n}\n",
				"bytecode": {
					"linkReferences": {},
					"object": "608060405260008055600a6001553480156200001a57600080fd5b506040516200242a3803806200242a8339818101604052810190620000409190620000fa565b600060038190555080600460006101000a81548173ffffffffffffffffffffffffffffffffffffffff021916908373ffffffffffffffffffffffffffffffffffffffff160217905550506200012c565b600080fd5b600073ffffffffffffffffffffffffffffffffffffffff82169050919050565b6000620000c28262000095565b9050919050565b620000d481620000b5565b8114620000e057600080fd5b50565b600081519050620000f481620000c9565b92915050565b60006020828403121562000113576200011262000090565b5b60006200012384828501620000e3565b91505092915050565b6122ee806200013c6000396000f3fe6080604052600436106100915760003560e01c80638aa9b98c116100595780638aa9b98c14610134578063a815a06f1461014b578063b7bc7f1c14610176578063f2ad54ca146101a1578063f9094303146101ca57610091565b80631ec6b60a146100965780633eb76b9c146100ad5780635a627dbc146100d65780636019aef1146100e0578063801d570d1461010b575b600080fd5b3480156100a257600080fd5b506100ab6101e1565b005b3480156100b957600080fd5b506100d460048036038101906100cf9190611525565b61024e565b005b6100de61054b565b005b3480156100ec57600080fd5b506100f561063f565b6040516101029190611642565b60405180910390f35b34801561011757600080fd5b50610132600480360381019061012d9190611525565b610847565b005b34801561014057600080fd5b506101496108a1565b005b34801561015757600080fd5b506101606109ac565b60405161016d9190611673565b60405180910390f35b34801561018257600080fd5b5061018b6109b6565b604051610198919061183f565b60405180910390f35b3480156101ad57600080fd5b506101c860048036038101906101c391906118c6565b610f4f565b005b3480156101d657600080fd5b506101df611221565b005b600260009054906101000a900460ff1615610231576040517f08c379a000000000000000000000000000000000000000000000000000000000815260040161022890611970565b60405180910390fd5b6001600260006101000a81548160ff021916908315150217905550565b6000805b6005805490508110156102ef573373ffffffffffffffffffffffffffffffffffffffff166005828154811061028a57610289611990565b5b906000526020600020906002020160000160009054906101000a900473ffffffffffffffffffffffffffffffffffffffff1673ffffffffffffffffffffffffffffffffffffffff16036102dc57600191505b80806102e7906119ee565b915050610252565b5080610330576040517f08c379a000000000000000000000000000000000000000000000000000000000815260040161032790611aa8565b60405180910390fd5b60006001905060005b6006600080548152602001908152602001600020805490508110156103fa573373ffffffffffffffffffffffffffffffffffffffff166006600080548152602001908152602001600020828154811061039557610394611990565b5b906000526020600020906002020160000160009054906101000a900473ffffffffffffffffffffffffffffffffffffffff1673ffffffffffffffffffffffffffffffffffffffff16036103e757600091505b80806103f2906119ee565b915050610339565b50801561043c576040517f08c379a000000000000000000000000000000000000000000000000000000000815260040161043390611b14565b60405180910390fd5b600260009054906101000a900460ff1661048b576040517f08c379a000000000000000000000000000000000000000000000000000000000815260040161048290611b80565b60405180910390fd5b600660008054815260200190815260200160002060405180604001604052803373ffffffffffffffffffffffffffffffffffffffff16815260200185815250908060018154018082558091505060019003906000526020600020906002020160009091909190915060008201518160000160006101000a81548173ffffffffffffffffffffffffffffffffffffffff021916908373ffffffffffffffffffffffffffffffffffffffff160217905550602082015181600101555050505050565b60005b60058054905081101561063c576005818154811061056f5761056e611990565b5b906000526020600020906002020160000160009054906101000a900473ffffffffffffffffffffffffffffffffffffffff1673ffffffffffffffffffffffffffffffffffffffff163373ffffffffffffffffffffffffffffffffffffffff16036106295734600582815481106105e8576105e7611990565b5b906000526020600020906002020160010160008282546106089190611ba0565b9250508190555034600360008282546106219190611ba0565b925050819055505b8080610634906119ee565b91505061054e565b50565b6060600061064b611295565b905060008060058054905067ffffffffffffffff81111561066f5761066e611bd4565b5b60405190808252806020026020018201604052801561069d5781602001602082028036833780820191505090505b509050600060058054905067ffffffffffffffff8111156106c1576106c0611bd4565b5b6040519080825280602002602001820160405280156106ef5781602001602082028036833780820191505090505b50905060005b60058054905081101561083c5781818151811061071557610714611990565b5b6020026020010151610829576003546005828154811061073857610737611990565b5b9060005260206000209060020201600101546107549190611c32565b8461075f9190611ba0565b935083851015610828576005818154811061077d5761077c611990565b5b906000526020600020906002020160000160009054906101000a900473ffffffffffffffffffffffffffffffffffffffff168382815181106107c2576107c1611990565b5b602002602001019073ffffffffffffffffffffffffffffffffffffffff16908173ffffffffffffffffffffffffffffffffffffffff1681525050600182828151811061081157610810611990565b5b60200260200101901515908115158152505061083c565b5b8080610834906119ee565b9150506106f5565b508194505050505090565b600260019054906101000a900460ff1615610897576040517f08c379a000000000000000000000000000000000000000000000000000000000815260040161088e90611caf565b60405180910390fd5b8060018190555050565b6000600260016101000a81548160ff02191690831515021790555060006108c66109b6565b905060005b81518110156109a85760076000805481526020019081526020016000208282815181106108fb576108fa611990565b5b6020026020010151908060018154018082558091505060019003906000526020600020906003020160009091909190915060008201518160000190816109419190611edb565b5060208201518160010160006101000a81548173ffffffffffffffffffffffffffffffffffffffff021916908373ffffffffffffffffffffffffffffffffffffffff16021790555060408201518160020155505080806109a0906119ee565b9150506108cb565b5050565b6000600154905090565b606060026001546109c79190611c32565b6008600080548152602001908152602001600020805490501015610a20576040517f08c379a0000000000000000000000000000000000000000000000000000000008152600401610a1790611ff9565b60405180910390fd5b60006002600154610a319190611c32565b905060008167ffffffffffffffff811115610a4f57610a4e611bd4565b5b604051908082528060200260200182016040528015610a8857816020015b610a756114ae565b815260200190600190039081610a6d5790505b50905060008267ffffffffffffffff811115610aa757610aa6611bd4565b5b604051908082528060200260200182016040528015610ad55781602001602082028036833780820191505090505b50905060005b83811015610c9c5760086000805481526020019081526020016000208181548110610b0957610b08611990565b5b9060005260206000209060030201604051806060016040529081600082018054610b3290611cfe565b80601f0160208091040260200160405190810160405280929190818152602001828054610b5e90611cfe565b8015610bab5780601f10610b8057610100808354040283529160200191610bab565b820191906000526020600020905b815481529060010190602001808311610b8e57829003601f168201915b505050505081526020016001820160009054906101000a900473ffffffffffffffffffffffffffffffffffffffff1673ffffffffffffffffffffffffffffffffffffffff1673ffffffffffffffffffffffffffffffffffffffff168152602001600282015481525050838281518110610c2757610c26611990565b5b602002602001018190525060086000805481526020019081526020016000208181548110610c5857610c57611990565b5b906000526020600020906003020160020154828281518110610c7d57610c7c611990565b5b6020026020010181815250508080610c94906119ee565b915050610adb565b5060008390505b600860008054815260200190815260200160002080549050811015610f455760008083600081518110610cd957610cd8611990565b5b602002602001015190506000600190505b6005811015610d495781858281518110610d0757610d06611990565b5b60200260200101511015610d3657848181518110610d2857610d27611990565b5b602002602001015191508092505b8080610d41906119ee565b915050610cea565b508060086000805481526020019081526020016000208481548110610d7157610d70611990565b5b9060005260206000209060030201600201541115610f305760086000805481526020019081526020016000208381548110610daf57610dae611990565b5b906000526020600020906003020160020154848381518110610dd457610dd3611990565b5b60200260200101818152505060086000805481526020019081526020016000208381548110610e0657610e05611990565b5b9060005260206000209060030201604051806060016040529081600082018054610e2f90611cfe565b80601f0160208091040260200160405190810160405280929190818152602001828054610e5b90611cfe565b8015610ea85780601f10610e7d57610100808354040283529160200191610ea8565b820191906000526020600020905b815481529060010190602001808311610e8b57829003601f168201915b505050505081526020016001820160009054906101000a900473ffffffffffffffffffffffffffffffffffffffff1673ffffffffffffffffffffffffffffffffffffffff1673ffffffffffffffffffffffffffffffffffffffff168152602001600282015481525050858381518110610f2457610f23611990565b5b60200260200101819052505b50508080610f3d906119ee565b915050610ca3565b5081935050505090565b6000805b600860008054815260200190815260200160002080549050811015611014573373ffffffffffffffffffffffffffffffffffffffff1660086000805481526020019081526020016000208281548110610faf57610fae611990565b5b906000526020600020906003020160010160009054906101000a900473ffffffffffffffffffffffffffffffffffffffff1673ffffffffffffffffffffffffffffffffffffffff160361100157600191505b808061100c906119ee565b915050610f53565b508015611056576040517f08c379a000000000000000000000000000000000000000000000000000000000815260040161104d9061208b565b60405180910390fd5b600154600860008054815260200190815260200160002080549050106110b1576040517f08c379a00000000000000000000000000000000000000000000000000000000081526004016110a8906120f7565b60405180910390fd5b600260019054906101000a900460ff16611100576040517f08c379a00000000000000000000000000000000000000000000000000000000081526004016110f790612163565b60405180910390fd5b6008600080548152602001908152602001600020604051806060016040528085858080601f016020809104026020016040519081016040528093929190818152602001838380828437600081840152601f19601f8201169050808301925050505050505081526020013373ffffffffffffffffffffffffffffffffffffffff1681526020016000815250908060018154018082558091505060019003906000526020600020906003020160009091909190915060008201518160000190816111c89190611edb565b5060208201518160010160006101000a81548173ffffffffffffffffffffffffffffffffffffffff021916908373ffffffffffffffffffffffffffffffffffffffff160217905550604082015181600201555050505050565b600260009054906101000a900460ff16611270576040517f08c379a000000000000000000000000000000000000000000000000000000000815260040161126790611b80565b60405180910390fd5b6000600260006101000a81548160ff0219169083151502179055506112936112d7565b565b60006001544244336040516020016112af939291906121ec565b6040516020818303038152906040528051906020012060001c6112d29190612229565b905090565b60016000808282546112e99190611ba0565b925050819055506001600260016101000a81548160ff021916908315150217905550611313611315565b565b600260009054906101000a900460ff1615611365576040517f08c379a000000000000000000000000000000000000000000000000000000000815260040161135c90611970565b60405180910390fd5b600061136f61063f565b905060005b81518110156114aa5760006040516024016040516020818303038152906040527f802b8526000000000000000000000000000000000000000000000000000000007bffffffffffffffffffffffffffffffffffffffffffffffffffffffff19166020820180517bffffffffffffffffffffffffffffffffffffffffffffffffffffffff83818316178352505050509050600083838151811061141957611418611990565b5b602002602001015173ffffffffffffffffffffffffffffffffffffffff168260405161144591906122a1565b6000604051808303816000865af19150503d8060008114611482576040519150601f19603f3d011682016040523d82523d6000602084013e611487565b606091505b505090508061149557600080fd5b505080806114a2906119ee565b915050611374565b5050565b604051806060016040528060608152602001600073ffffffffffffffffffffffffffffffffffffffff168152602001600081525090565b600080fd5b600080fd5b6000819050919050565b611502816114ef565b811461150d57600080fd5b50565b60008135905061151f816114f9565b92915050565b60006020828403121561153b5761153a6114e5565b5b600061154984828501611510565b91505092915050565b600081519050919050565b600082825260208201905092915050565b6000819050602082019050919050565b600073ffffffffffffffffffffffffffffffffffffffff82169050919050565b60006115a98261157e565b9050919050565b6115b98161159e565b82525050565b60006115cb83836115b0565b60208301905092915050565b6000602082019050919050565b60006115ef82611552565b6115f9818561155d565b93506116048361156e565b8060005b8381101561163557815161161c88826115bf565b9750611627836115d7565b925050600181019050611608565b5085935050505092915050565b6000602082019050818103600083015261165c81846115e4565b905092915050565b61166d816114ef565b82525050565b60006020820190506116886000830184611664565b92915050565b600081519050919050565b600082825260208201905092915050565b6000819050602082019050919050565b600081519050919050565b600082825260208201905092915050565b60005b838110156116f45780820151818401526020810190506116d9565b60008484015250505050565b6000601f19601f8301169050919050565b600061171c826116ba565b61172681856116c5565b93506117368185602086016116d6565b61173f81611700565b840191505092915050565b611753816114ef565b82525050565b600060608301600083015184820360008601526117768282611711565b915050602083015161178b60208601826115b0565b50604083015161179e604086018261174a565b508091505092915050565b60006117b58383611759565b905092915050565b6000602082019050919050565b60006117d58261168e565b6117df8185611699565b9350836020820285016117f1856116aa565b8060005b8581101561182d578484038952815161180e85826117a9565b9450611819836117bd565b925060208a019950506001810190506117f5565b50829750879550505050505092915050565b6000602082019050818103600083015261185981846117ca565b905092915050565b600080fd5b600080fd5b600080fd5b60008083601f84011261188657611885611861565b5b8235905067ffffffffffffffff8111156118a3576118a2611866565b5b6020830191508360018202830111156118bf576118be61186b565b5b9250929050565b600080602083850312156118dd576118dc6114e5565b5b600083013567ffffffffffffffff8111156118fb576118fa6114ea565b5b61190785828601611870565b92509250509250929050565b600082825260208201905092915050565b7f566f74696e672069732061637469766500000000000000000000000000000000600082015250565b600061195a601083611913565b915061196582611924565b602082019050919050565b600060208201905081810360008301526119898161194d565b9050919050565b7f4e487b7100000000000000000000000000000000000000000000000000000000600052603260045260246000fd5b7f4e487b7100000000000000000000000000000000000000000000000000000000600052601160045260246000fd5b60006119f9826114ef565b91507fffffffffffffffffffffffffffffffffffffffffffffffffffffffffffffffff8203611a2b57611a2a6119bf565b5b600182019050919050565b7f546869732066756e6374696f6e20697320616c6c6f77656420666f72206f6e6c60008201527f79206d696e657300000000000000000000000000000000000000000000000000602082015250565b6000611a92602783611913565b9150611a9d82611a36565b604082019050919050565b60006020820190508181036000830152611ac181611a85565b9050919050565b7f596f7520636173746564206120766f7465206265666f72650000000000000000600082015250565b6000611afe601883611913565b9150611b0982611ac8565b602082019050919050565b60006020820190508181036000830152611b2d81611af1565b9050919050565b7f566f74696e67206973206e6f7420616374697665000000000000000000000000600082015250565b6000611b6a601483611913565b9150611b7582611b34565b602082019050919050565b60006020820190508181036000830152611b9981611b5d565b9050919050565b6000611bab826114ef565b9150611bb6836114ef565b9250828201905080821115611bce57611bcd6119bf565b5b92915050565b7f4e487b7100000000000000000000000000000000000000000000000000000000600052604160045260246000fd5b7f4e487b7100000000000000000000000000000000000000000000000000000000600052601260045260246000fd5b6000611c3d826114ef565b9150611c48836114ef565b925082611c5857611c57611c03565b5b828204905092915050565b7f5265636f6d6d656e646174696f6e206973206163746976650000000000000000600082015250565b6000611c99601883611913565b9150611ca482611c63565b602082019050919050565b60006020820190508181036000830152611cc881611c8c565b9050919050565b7f4e487b7100000000000000000000000000000000000000000000000000000000600052602260045260246000fd5b60006002820490506001821680611d1657607f821691505b602082108103611d2957611d28611ccf565b5b50919050565b60008190508160005260206000209050919050565b60006020601f8301049050919050565b600082821b905092915050565b600060088302611d917fffffffffffffffffffffffffffffffffffffffffffffffffffffffffffffffff82611d54565b611d9b8683611d54565b95508019841693508086168417925050509392505050565b6000819050919050565b6000611dd8611dd3611dce846114ef565b611db3565b6114ef565b9050919050565b6000819050919050565b611df283611dbd565b611e06611dfe82611ddf565b848454611d61565b825550505050565b600090565b611e1b611e0e565b611e26818484611de9565b505050565b5b81811015611e4a57611e3f600082611e13565b600181019050611e2c565b5050565b601f821115611e8f57611e6081611d2f565b611e6984611d44565b81016020851015611e78578190505b611e8c611e8485611d44565b830182611e2b565b50505b505050565b600082821c905092915050565b6000611eb260001984600802611e94565b1980831691505092915050565b6000611ecb8383611ea1565b9150826002028217905092915050565b611ee4826116ba565b67ffffffffffffffff811115611efd57611efc611bd4565b5b611f078254611cfe565b611f12828285611e4e565b600060209050601f831160018114611f455760008415611f33578287015190505b611f3d8582611ebf565b865550611fa5565b601f198416611f5386611d2f565b60005b82811015611f7b57848901518255600182019150602085019450602081019050611f56565b86831015611f985784890151611f94601f891682611ea1565b8355505b6001600288020188555050505b505050505050565b7f4e6f7420656e6f7567682063616e646964617465730000000000000000000000600082015250565b6000611fe3601583611913565b9150611fee82611fad565b602082019050919050565b6000602082019050818103600083015261201281611fd6565b9050919050565b7f55736572206d61646520746865207265636f6d6d656e646174696f6e2062656660008201527f6f72650000000000000000000000000000000000000000000000000000000000602082015250565b6000612075602383611913565b915061208082612019565b604082019050919050565b600060208201905081810360008301526120a481612068565b9050919050565b7f4e6f206d6f72652063616e646964617465000000000000000000000000000000600082015250565b60006120e1601183611913565b91506120ec826120ab565b602082019050919050565b60006020820190508181036000830152612110816120d4565b9050919050565b7f5265636f6d6d656e646174696f6e206973206e6f742061637469766500000000600082015250565b600061214d601c83611913565b915061215882612117565b602082019050919050565b6000602082019050818103600083015261217c81612140565b9050919050565b6000819050919050565b61219e612199826114ef565b612183565b82525050565b60008160601b9050919050565b60006121bc826121a4565b9050919050565b60006121ce826121b1565b9050919050565b6121e66121e18261159e565b6121c3565b82525050565b60006121f8828661218d565b602082019150612208828561218d565b60208201915061221882846121d5565b601482019150819050949350505050565b6000612234826114ef565b915061223f836114ef565b92508261224f5761224e611c03565b5b828206905092915050565b600081519050919050565b600081905092915050565b600061227b8261225a565b6122858185612265565b93506122958185602086016116d6565b80840191505092915050565b60006122ad8284612270565b91508190509291505056fea2646970667358221220f4620aa01da074f267b9c4eb2879bc2034243ae557133582c84da76d6d46b7e764736f6c63430008130033",
					"opcodes": "PUSH1 0x80 PUSH1 0x40 MSTORE PUSH1 0x0 DUP1 SSTORE PUSH1 0xA PUSH1 0x1 SSTORE CALLVALUE DUP1 ISZERO PUSH3 0x1A JUMPI PUSH1 0x0 DUP1 REVERT JUMPDEST POP PUSH1 0x40 MLOAD PUSH3 0x242A CODESIZE SUB DUP1 PUSH3 0x242A DUP4 CODECOPY DUP2 DUP2 ADD PUSH1 0x40 MSTORE DUP2 ADD SWAP1 PUSH3 0x40 SWAP2 SWAP1 PUSH3 0xFA JUMP JUMPDEST PUSH1 0x0 PUSH1 0x3 DUP2 SWAP1 SSTORE POP DUP1 PUSH1 0x4 PUSH1 0x0 PUSH2 0x100 EXP DUP2 SLOAD DUP2 PUSH20 0xFFFFFFFFFFFFFFFFFFFFFFFFFFFFFFFFFFFFFFFF MUL NOT AND SWAP1 DUP4 PUSH20 0xFFFFFFFFFFFFFFFFFFFFFFFFFFFFFFFFFFFFFFFF AND MUL OR SWAP1 SSTORE POP POP PUSH3 0x12C JUMP JUMPDEST PUSH1 0x0 DUP1 REVERT JUMPDEST PUSH1 0x0 PUSH20 0xFFFFFFFFFFFFFFFFFFFFFFFFFFFFFFFFFFFFFFFF DUP3 AND SWAP1 POP SWAP2 SWAP1 POP JUMP JUMPDEST PUSH1 0x0 PUSH3 0xC2 DUP3 PUSH3 0x95 JUMP JUMPDEST SWAP1 POP SWAP2 SWAP1 POP JUMP JUMPDEST PUSH3 0xD4 DUP2 PUSH3 0xB5 JUMP JUMPDEST DUP2 EQ PUSH3 0xE0 JUMPI PUSH1 0x0 DUP1 REVERT JUMPDEST POP JUMP JUMPDEST PUSH1 0x0 DUP2 MLOAD SWAP1 POP PUSH3 0xF4 DUP2 PUSH3 0xC9 JUMP JUMPDEST SWAP3 SWAP2 POP POP JUMP JUMPDEST PUSH1 0x0 PUSH1 0x20 DUP3 DUP5 SUB SLT ISZERO PUSH3 0x113 JUMPI PUSH3 0x112 PUSH3 0x90 JUMP JUMPDEST JUMPDEST PUSH1 0x0 PUSH3 0x123 DUP5 DUP3 DUP6 ADD PUSH3 0xE3 JUMP JUMPDEST SWAP2 POP POP SWAP3 SWAP2 POP POP JUMP JUMPDEST PUSH2 0x22EE DUP1 PUSH3 0x13C PUSH1 0x0 CODECOPY PUSH1 0x0 RETURN INVALID PUSH1 0x80 PUSH1 0x40 MSTORE PUSH1 0x4 CALLDATASIZE LT PUSH2 0x91 JUMPI PUSH1 0x0 CALLDATALOAD PUSH1 0xE0 SHR DUP1 PUSH4 0x8AA9B98C GT PUSH2 0x59 JUMPI DUP1 PUSH4 0x8AA9B98C EQ PUSH2 0x134 JUMPI DUP1 PUSH4 0xA815A06F EQ PUSH2 0x14B JUMPI DUP1 PUSH4 0xB7BC7F1C EQ PUSH2 0x176 JUMPI DUP1 PUSH4 0xF2AD54CA EQ PUSH2 0x1A1 JUMPI DUP1 PUSH4 0xF9094303 EQ PUSH2 0x1CA JUMPI PUSH2 0x91 JUMP JUMPDEST DUP1 PUSH4 0x1EC6B60A EQ PUSH2 0x96 JUMPI DUP1 PUSH4 0x3EB76B9C EQ PUSH2 0xAD JUMPI DUP1 PUSH4 0x5A627DBC EQ PUSH2 0xD6 JUMPI DUP1 PUSH4 0x6019AEF1 EQ PUSH2 0xE0 JUMPI DUP1 PUSH4 0x801D570D EQ PUSH2 0x10B JUMPI JUMPDEST PUSH1 0x0 DUP1 REVERT JUMPDEST CALLVALUE DUP1 ISZERO PUSH2 0xA2 JUMPI PUSH1 0x0 DUP1 REVERT JUMPDEST POP PUSH2 0xAB PUSH2 0x1E1 JUMP JUMPDEST STOP JUMPDEST CALLVALUE DUP1 ISZERO PUSH2 0xB9 JUMPI PUSH1 0x0 DUP1 REVERT JUMPDEST POP PUSH2 0xD4 PUSH1 0x4 DUP1 CALLDATASIZE SUB DUP2 ADD SWAP1 PUSH2 0xCF SWAP2 SWAP1 PUSH2 0x1525 JUMP JUMPDEST PUSH2 0x24E JUMP JUMPDEST STOP JUMPDEST PUSH2 0xDE PUSH2 0x54B JUMP JUMPDEST STOP JUMPDEST CALLVALUE DUP1 ISZERO PUSH2 0xEC JUMPI PUSH1 0x0 DUP1 REVERT JUMPDEST POP PUSH2 0xF5 PUSH2 0x63F JUMP JUMPDEST PUSH1 0x40 MLOAD PUSH2 0x102 SWAP2 SWAP1 PUSH2 0x1642 JUMP JUMPDEST PUSH1 0x40 MLOAD DUP1 SWAP2 SUB SWAP1 RETURN JUMPDEST CALLVALUE DUP1 ISZERO PUSH2 0x117 JUMPI PUSH1 0x0 DUP1 REVERT JUMPDEST POP PUSH2 0x132 PUSH1 0x4 DUP1 CALLDATASIZE SUB DUP2 ADD SWAP1 PUSH2 0x12D SWAP2 SWAP1 PUSH2 0x1525 JUMP JUMPDEST PUSH2 0x847 JUMP JUMPDEST STOP JUMPDEST CALLVALUE DUP1 ISZERO PUSH2 0x140 JUMPI PUSH1 0x0 DUP1 REVERT JUMPDEST POP PUSH2 0x149 PUSH2 0x8A1 JUMP JUMPDEST STOP JUMPDEST CALLVALUE DUP1 ISZERO PUSH2 0x157 JUMPI PUSH1 0x0 DUP1 REVERT JUMPDEST POP PUSH2 0x160 PUSH2 0x9AC JUMP JUMPDEST PUSH1 0x40 MLOAD PUSH2 0x16D SWAP2 SWAP1 PUSH2 0x1673 JUMP JUMPDEST PUSH1 0x40 MLOAD DUP1 SWAP2 SUB SWAP1 RETURN JUMPDEST CALLVALUE DUP1 ISZERO PUSH2 0x182 JUMPI PUSH1 0x0 DUP1 REVERT JUMPDEST POP PUSH2 0x18B PUSH2 0x9B6 JUMP JUMPDEST PUSH1 0x40 MLOAD PUSH2 0x198 SWAP2 SWAP1 PUSH2 0x183F JUMP JUMPDEST PUSH1 0x40 MLOAD DUP1 SWAP2 SUB SWAP1 RETURN JUMPDEST CALLVALUE DUP1 ISZERO PUSH2 0x1AD JUMPI PUSH1 0x0 DUP1 REVERT JUMPDEST POP PUSH2 0x1C8 PUSH1 0x4 DUP1 CALLDATASIZE SUB DUP2 ADD SWAP1 PUSH2 0x1C3 SWAP2 SWAP1 PUSH2 0x18C6 JUMP JUMPDEST PUSH2 0xF4F JUMP JUMPDEST STOP JUMPDEST CALLVALUE DUP1 ISZERO PUSH2 0x1D6 JUMPI PUSH1 0x0 DUP1 REVERT JUMPDEST POP PUSH2 0x1DF PUSH2 0x1221 JUMP JUMPDEST STOP JUMPDEST PUSH1 0x2 PUSH1 0x0 SWAP1 SLOAD SWAP1 PUSH2 0x100 EXP SWAP1 DIV PUSH1 0xFF AND ISZERO PUSH2 0x231 JUMPI PUSH1 0x40 MLOAD PUSH32 0x8C379A000000000000000000000000000000000000000000000000000000000 DUP2 MSTORE PUSH1 0x4 ADD PUSH2 0x228 SWAP1 PUSH2 0x1970 JUMP JUMPDEST PUSH1 0x40 MLOAD DUP1 SWAP2 SUB SWAP1 REVERT JUMPDEST PUSH1 0x1 PUSH1 0x2 PUSH1 0x0 PUSH2 0x100 EXP DUP2 SLOAD DUP2 PUSH1 0xFF MUL NOT AND SWAP1 DUP4 ISZERO ISZERO MUL OR SWAP1 SSTORE POP JUMP JUMPDEST PUSH1 0x0 DUP1 JUMPDEST PUSH1 0x5 DUP1 SLOAD SWAP1 POP DUP2 LT ISZERO PUSH2 0x2EF JUMPI CALLER PUSH20 0xFFFFFFFFFFFFFFFFFFFFFFFFFFFFFFFFFFFFFFFF AND PUSH1 0x5 DUP3 DUP2 SLOAD DUP2 LT PUSH2 0x28A JUMPI PUSH2 0x289 PUSH2 0x1990 JUMP JUMPDEST JUMPDEST SWAP1 PUSH1 0x0 MSTORE PUSH1 0x20 PUSH1 0x0 KECCAK256 SWAP1 PUSH1 0x2 MUL ADD PUSH1 0x0 ADD PUSH1 0x0 SWAP1 SLOAD SWAP1 PUSH2 0x100 EXP SWAP1 DIV PUSH20 0xFFFFFFFFFFFFFFFFFFFFFFFFFFFFFFFFFFFFFFFF AND PUSH20 0xFFFFFFFFFFFFFFFFFFFFFFFFFFFFFFFFFFFFFFFF AND SUB PUSH2 0x2DC JUMPI PUSH1 0x1 SWAP2 POP JUMPDEST DUP1 DUP1 PUSH2 0x2E7 SWAP1 PUSH2 0x19EE JUMP JUMPDEST SWAP2 POP POP PUSH2 0x252 JUMP JUMPDEST POP DUP1 PUSH2 0x330 JUMPI PUSH1 0x40 MLOAD PUSH32 0x8C379A000000000000000000000000000000000000000000000000000000000 DUP2 MSTORE PUSH1 0x4 ADD PUSH2 0x327 SWAP1 PUSH2 0x1AA8 JUMP JUMPDEST PUSH1 0x40 MLOAD DUP1 SWAP2 SUB SWAP1 REVERT JUMPDEST PUSH1 0x0 PUSH1 0x1 SWAP1 POP PUSH1 0x0 JUMPDEST PUSH1 0x6 PUSH1 0x0 DUP1 SLOAD DUP2 MSTORE PUSH1 0x20 ADD SWAP1 DUP2 MSTORE PUSH1 0x20 ADD PUSH1 0x0 KECCAK256 DUP1 SLOAD SWAP1 POP DUP2 LT ISZERO PUSH2 0x3FA JUMPI CALLER PUSH20 0xFFFFFFFFFFFFFFFFFFFFFFFFFFFFFFFFFFFFFFFF AND PUSH1 0x6 PUSH1 0x0 DUP1 SLOAD DUP2 MSTORE PUSH1 0x20 ADD SWAP1 DUP2 MSTORE PUSH1 0x20 ADD PUSH1 0x0 KECCAK256 DUP3 DUP2 SLOAD DUP2 LT PUSH2 0x395 JUMPI PUSH2 0x394 PUSH2 0x1990 JUMP JUMPDEST JUMPDEST SWAP1 PUSH1 0x0 MSTORE PUSH1 0x20 PUSH1 0x0 KECCAK256 SWAP1 PUSH1 0x2 MUL ADD PUSH1 0x0 ADD PUSH1 0x0 SWAP1 SLOAD SWAP1 PUSH2 0x100 EXP SWAP1 DIV PUSH20 0xFFFFFFFFFFFFFFFFFFFFFFFFFFFFFFFFFFFFFFFF AND PUSH20 0xFFFFFFFFFFFFFFFFFFFFFFFFFFFFFFFFFFFFFFFF AND SUB PUSH2 0x3E7 JUMPI PUSH1 0x0 SWAP2 POP JUMPDEST DUP1 DUP1 PUSH2 0x3F2 SWAP1 PUSH2 0x19EE JUMP JUMPDEST SWAP2 POP POP PUSH2 0x339 JUMP JUMPDEST POP DUP1 ISZERO PUSH2 0x43C JUMPI PUSH1 0x40 MLOAD PUSH32 0x8C379A000000000000000000000000000000000000000000000000000000000 DUP2 MSTORE PUSH1 0x4 ADD PUSH2 0x433 SWAP1 PUSH2 0x1B14 JUMP JUMPDEST PUSH1 0x40 MLOAD DUP1 SWAP2 SUB SWAP1 REVERT JUMPDEST PUSH1 0x2 PUSH1 0x0 SWAP1 SLOAD SWAP1 PUSH2 0x100 EXP SWAP1 DIV PUSH1 0xFF AND PUSH2 0x48B JUMPI PUSH1 0x40 MLOAD PUSH32 0x8C379A000000000000000000000000000000000000000000000000000000000 DUP2 MSTORE PUSH1 0x4 ADD PUSH2 0x482 SWAP1 PUSH2 0x1B80 JUMP JUMPDEST PUSH1 0x40 MLOAD DUP1 SWAP2 SUB SWAP1 REVERT JUMPDEST PUSH1 0x6 PUSH1 0x0 DUP1 SLOAD DUP2 MSTORE PUSH1 0x20 ADD SWAP1 DUP2 MSTORE PUSH1 0x20 ADD PUSH1 0x0 KECCAK256 PUSH1 0x40 MLOAD DUP1 PUSH1 0x40 ADD PUSH1 0x40 MSTORE DUP1 CALLER PUSH20 0xFFFFFFFFFFFFFFFFFFFFFFFFFFFFFFFFFFFFFFFF AND DUP2 MSTORE PUSH1 0x20 ADD DUP6 DUP2 MSTORE POP SWAP1 DUP1 PUSH1 0x1 DUP2 SLOAD ADD DUP1 DUP3 SSTORE DUP1 SWAP2 POP POP PUSH1 0x1 SWAP1 SUB SWAP1 PUSH1 0x0 MSTORE PUSH1 0x20 PUSH1 0x0 KECCAK256 SWAP1 PUSH1 0x2 MUL ADD PUSH1 0x0 SWAP1 SWAP2 SWAP1 SWAP2 SWAP1 SWAP2 POP PUSH1 0x0 DUP3 ADD MLOAD DUP2 PUSH1 0x0 ADD PUSH1 0x0 PUSH2 0x100 EXP DUP2 SLOAD DUP2 PUSH20 0xFFFFFFFFFFFFFFFFFFFFFFFFFFFFFFFFFFFFFFFF MUL NOT AND SWAP1 DUP4 PUSH20 0xFFFFFFFFFFFFFFFFFFFFFFFFFFFFFFFFFFFFFFFF AND MUL OR SWAP1 SSTORE POP PUSH1 0x20 DUP3 ADD MLOAD DUP2 PUSH1 0x1 ADD SSTORE POP POP POP POP POP JUMP JUMPDEST PUSH1 0x0 JUMPDEST PUSH1 0x5 DUP1 SLOAD SWAP1 POP DUP2 LT ISZERO PUSH2 0x63C JUMPI PUSH1 0x5 DUP2 DUP2 SLOAD DUP2 LT PUSH2 0x56F JUMPI PUSH2 0x56E PUSH2 0x1990 JUMP JUMPDEST JUMPDEST SWAP1 PUSH1 0x0 MSTORE PUSH1 0x20 PUSH1 0x0 KECCAK256 SWAP1 PUSH1 0x2 MUL ADD PUSH1 0x0 ADD PUSH1 0x0 SWAP1 SLOAD SWAP1 PUSH2 0x100 EXP SWAP1 DIV PUSH20 0xFFFFFFFFFFFFFFFFFFFFFFFFFFFFFFFFFFFFFFFF AND PUSH20 0xFFFFFFFFFFFFFFFFFFFFFFFFFFFFFFFFFFFFFFFF AND CALLER PUSH20 0xFFFFFFFFFFFFFFFFFFFFFFFFFFFFFFFFFFFFFFFF AND SUB PUSH2 0x629 JUMPI CALLVALUE PUSH1 0x5 DUP3 DUP2 SLOAD DUP2 LT PUSH2 0x5E8 JUMPI PUSH2 0x5E7 PUSH2 0x1990 JUMP JUMPDEST JUMPDEST SWAP1 PUSH1 0x0 MSTORE PUSH1 0x20 PUSH1 0x0 KECCAK256 SWAP1 PUSH1 0x2 MUL ADD PUSH1 0x1 ADD PUSH1 0x0 DUP3 DUP3 SLOAD PUSH2 0x608 SWAP2 SWAP1 PUSH2 0x1BA0 JUMP JUMPDEST SWAP3 POP POP DUP2 SWAP1 SSTORE POP CALLVALUE PUSH1 0x3 PUSH1 0x0 DUP3 DUP3 SLOAD PUSH2 0x621 SWAP2 SWAP1 PUSH2 0x1BA0 JUMP JUMPDEST SWAP3 POP POP DUP2 SWAP1 SSTORE POP JUMPDEST DUP1 DUP1 PUSH2 0x634 SWAP1 PUSH2 0x19EE JUMP JUMPDEST SWAP2 POP POP PUSH2 0x54E JUMP JUMPDEST POP JUMP JUMPDEST PUSH1 0x60 PUSH1 0x0 PUSH2 0x64B PUSH2 0x1295 JUMP JUMPDEST SWAP1 POP PUSH1 0x0 DUP1 PUSH1 0x5 DUP1 SLOAD SWAP1 POP PUSH8 0xFFFFFFFFFFFFFFFF DUP2 GT ISZERO PUSH2 0x66F JUMPI PUSH2 0x66E PUSH2 0x1BD4 JUMP JUMPDEST JUMPDEST PUSH1 0x40 MLOAD SWAP1 DUP1 DUP3 MSTORE DUP1 PUSH1 0x20 MUL PUSH1 0x20 ADD DUP3 ADD PUSH1 0x40 MSTORE DUP1 ISZERO PUSH2 0x69D JUMPI DUP2 PUSH1 0x20 ADD PUSH1 0x20 DUP3 MUL DUP1 CALLDATASIZE DUP4 CALLDATACOPY DUP1 DUP3 ADD SWAP2 POP POP SWAP1 POP JUMPDEST POP SWAP1 POP PUSH1 0x0 PUSH1 0x5 DUP1 SLOAD SWAP1 POP PUSH8 0xFFFFFFFFFFFFFFFF DUP2 GT ISZERO PUSH2 0x6C1 JUMPI PUSH2 0x6C0 PUSH2 0x1BD4 JUMP JUMPDEST JUMPDEST PUSH1 0x40 MLOAD SWAP1 DUP1 DUP3 MSTORE DUP1 PUSH1 0x20 MUL PUSH1 0x20 ADD DUP3 ADD PUSH1 0x40 MSTORE DUP1 ISZERO PUSH2 0x6EF JUMPI DUP2 PUSH1 0x20 ADD PUSH1 0x20 DUP3 MUL DUP1 CALLDATASIZE DUP4 CALLDATACOPY DUP1 DUP3 ADD SWAP2 POP POP SWAP1 POP JUMPDEST POP SWAP1 POP PUSH1 0x0 JUMPDEST PUSH1 0x5 DUP1 SLOAD SWAP1 POP DUP2 LT ISZERO PUSH2 0x83C JUMPI DUP2 DUP2 DUP2 MLOAD DUP2 LT PUSH2 0x715 JUMPI PUSH2 0x714 PUSH2 0x1990 JUMP JUMPDEST JUMPDEST PUSH1 0x20 MUL PUSH1 0x20 ADD ADD MLOAD PUSH2 0x829 JUMPI PUSH1 0x3 SLOAD PUSH1 0x5 DUP3 DUP2 SLOAD DUP2 LT PUSH2 0x738 JUMPI PUSH2 0x737 PUSH2 0x1990 JUMP JUMPDEST JUMPDEST SWAP1 PUSH1 0x0 MSTORE PUSH1 0x20 PUSH1 0x0 KECCAK256 SWAP1 PUSH1 0x2 MUL ADD PUSH1 0x1 ADD SLOAD PUSH2 0x754 SWAP2 SWAP1 PUSH2 0x1C32 JUMP JUMPDEST DUP5 PUSH2 0x75F SWAP2 SWAP1 PUSH2 0x1BA0 JUMP JUMPDEST SWAP4 POP DUP4 DUP6 LT ISZERO PUSH2 0x828 JUMPI PUSH1 0x5 DUP2 DUP2 SLOAD DUP2 LT PUSH2 0x77D JUMPI PUSH2 0x77C PUSH2 0x1990 JUMP JUMPDEST JUMPDEST SWAP1 PUSH1 0x0 MSTORE PUSH1 0x20 PUSH1 0x0 KECCAK256 SWAP1 PUSH1 0x2 MUL ADD PUSH1 0x0 ADD PUSH1 0x0 SWAP1 SLOAD SWAP1 PUSH2 0x100 EXP SWAP1 DIV PUSH20 0xFFFFFFFFFFFFFFFFFFFFFFFFFFFFFFFFFFFFFFFF AND DUP4 DUP3 DUP2 MLOAD DUP2 LT PUSH2 0x7C2 JUMPI PUSH2 0x7C1 PUSH2 0x1990 JUMP JUMPDEST JUMPDEST PUSH1 0x20 MUL PUSH1 0x20 ADD ADD SWAP1 PUSH20 0xFFFFFFFFFFFFFFFFFFFFFFFFFFFFFFFFFFFFFFFF AND SWAP1 DUP2 PUSH20 0xFFFFFFFFFFFFFFFFFFFFFFFFFFFFFFFFFFFFFFFF AND DUP2 MSTORE POP POP PUSH1 0x1 DUP3 DUP3 DUP2 MLOAD DUP2 LT PUSH2 0x811 JUMPI PUSH2 0x810 PUSH2 0x1990 JUMP JUMPDEST JUMPDEST PUSH1 0x20 MUL PUSH1 0x20 ADD ADD SWAP1 ISZERO ISZERO SWAP1 DUP2 ISZERO ISZERO DUP2 MSTORE POP POP PUSH2 0x83C JUMP JUMPDEST JUMPDEST DUP1 DUP1 PUSH2 0x834 SWAP1 PUSH2 0x19EE JUMP JUMPDEST SWAP2 POP POP PUSH2 0x6F5 JUMP JUMPDEST POP DUP2 SWAP5 POP POP POP POP POP SWAP1 JUMP JUMPDEST PUSH1 0x2 PUSH1 0x1 SWAP1 SLOAD SWAP1 PUSH2 0x100 EXP SWAP1 DIV PUSH1 0xFF AND ISZERO PUSH2 0x897 JUMPI PUSH1 0x40 MLOAD PUSH32 0x8C379A000000000000000000000000000000000000000000000000000000000 DUP2 MSTORE PUSH1 0x4 ADD PUSH2 0x88E SWAP1 PUSH2 0x1CAF JUMP JUMPDEST PUSH1 0x40 MLOAD DUP1 SWAP2 SUB SWAP1 REVERT JUMPDEST DUP1 PUSH1 0x1 DUP2 SWAP1 SSTORE POP POP JUMP JUMPDEST PUSH1 0x0 PUSH1 0x2 PUSH1 0x1 PUSH2 0x100 EXP DUP2 SLOAD DUP2 PUSH1 0xFF MUL NOT AND SWAP1 DUP4 ISZERO ISZERO MUL OR SWAP1 SSTORE POP PUSH1 0x0 PUSH2 0x8C6 PUSH2 0x9B6 JUMP JUMPDEST SWAP1 POP PUSH1 0x0 JUMPDEST DUP2 MLOAD DUP2 LT ISZERO PUSH2 0x9A8 JUMPI PUSH1 0x7 PUSH1 0x0 DUP1 SLOAD DUP2 MSTORE PUSH1 0x20 ADD SWAP1 DUP2 MSTORE PUSH1 0x20 ADD PUSH1 0x0 KECCAK256 DUP3 DUP3 DUP2 MLOAD DUP2 LT PUSH2 0x8FB JUMPI PUSH2 0x8FA PUSH2 0x1990 JUMP JUMPDEST JUMPDEST PUSH1 0x20 MUL PUSH1 0x20 ADD ADD MLOAD SWAP1 DUP1 PUSH1 0x1 DUP2 SLOAD ADD DUP1 DUP3 SSTORE DUP1 SWAP2 POP POP PUSH1 0x1 SWAP1 SUB SWAP1 PUSH1 0x0 MSTORE PUSH1 0x20 PUSH1 0x0 KECCAK256 SWAP1 PUSH1 0x3 MUL ADD PUSH1 0x0 SWAP1 SWAP2 SWAP1 SWAP2 SWAP1 SWAP2 POP PUSH1 0x0 DUP3 ADD MLOAD DUP2 PUSH1 0x0 ADD SWAP1 DUP2 PUSH2 0x941 SWAP2 SWAP1 PUSH2 0x1EDB JUMP JUMPDEST POP PUSH1 0x20 DUP3 ADD MLOAD DUP2 PUSH1 0x1 ADD PUSH1 0x0 PUSH2 0x100 EXP DUP2 SLOAD DUP2 PUSH20 0xFFFFFFFFFFFFFFFFFFFFFFFFFFFFFFFFFFFFFFFF MUL NOT AND SWAP1 DUP4 PUSH20 0xFFFFFFFFFFFFFFFFFFFFFFFFFFFFFFFFFFFFFFFF AND MUL OR SWAP1 SSTORE POP PUSH1 0x40 DUP3 ADD MLOAD DUP2 PUSH1 0x2 ADD SSTORE POP POP DUP1 DUP1 PUSH2 0x9A0 SWAP1 PUSH2 0x19EE JUMP JUMPDEST SWAP2 POP POP PUSH2 0x8CB JUMP JUMPDEST POP POP JUMP JUMPDEST PUSH1 0x0 PUSH1 0x1 SLOAD SWAP1 POP SWAP1 JUMP JUMPDEST PUSH1 0x60 PUSH1 0x2 PUSH1 0x1 SLOAD PUSH2 0x9C7 SWAP2 SWAP1 PUSH2 0x1C32 JUMP JUMPDEST PUSH1 0x8 PUSH1 0x0 DUP1 SLOAD DUP2 MSTORE PUSH1 0x20 ADD SWAP1 DUP2 MSTORE PUSH1 0x20 ADD PUSH1 0x0 KECCAK256 DUP1 SLOAD SWAP1 POP LT ISZERO PUSH2 0xA20 JUMPI PUSH1 0x40 MLOAD PUSH32 0x8C379A000000000000000000000000000000000000000000000000000000000 DUP2 MSTORE PUSH1 0x4 ADD PUSH2 0xA17 SWAP1 PUSH2 0x1FF9 JUMP JUMPDEST PUSH1 0x40 MLOAD DUP1 SWAP2 SUB SWAP1 REVERT JUMPDEST PUSH1 0x0 PUSH1 0x2 PUSH1 0x1 SLOAD PUSH2 0xA31 SWAP2 SWAP1 PUSH2 0x1C32 JUMP JUMPDEST SWAP1 POP PUSH1 0x0 DUP2 PUSH8 0xFFFFFFFFFFFFFFFF DUP2 GT ISZERO PUSH2 0xA4F JUMPI PUSH2 0xA4E PUSH2 0x1BD4 JUMP JUMPDEST JUMPDEST PUSH1 0x40 MLOAD SWAP1 DUP1 DUP3 MSTORE DUP1 PUSH1 0x20 MUL PUSH1 0x20 ADD DUP3 ADD PUSH1 0x40 MSTORE DUP1 ISZERO PUSH2 0xA88 JUMPI DUP2 PUSH1 0x20 ADD JUMPDEST PUSH2 0xA75 PUSH2 0x14AE JUMP JUMPDEST DUP2 MSTORE PUSH1 0x20 ADD SWAP1 PUSH1 0x1 SWAP1 SUB SWAP1 DUP2 PUSH2 0xA6D JUMPI SWAP1 POP JUMPDEST POP SWAP1 POP PUSH1 0x0 DUP3 PUSH8 0xFFFFFFFFFFFFFFFF DUP2 GT ISZERO PUSH2 0xAA7 JUMPI PUSH2 0xAA6 PUSH2 0x1BD4 JUMP JUMPDEST JUMPDEST PUSH1 0x40 MLOAD SWAP1 DUP1 DUP3 MSTORE DUP1 PUSH1 0x20 MUL PUSH1 0x20 ADD DUP3 ADD PUSH1 0x40 MSTORE DUP1 ISZERO PUSH2 0xAD5 JUMPI DUP2 PUSH1 0x20 ADD PUSH1 0x20 DUP3 MUL DUP1 CALLDATASIZE DUP4 CALLDATACOPY DUP1 DUP3 ADD SWAP2 POP POP SWAP1 POP JUMPDEST POP SWAP1 POP PUSH1 0x0 JUMPDEST DUP4 DUP2 LT ISZERO PUSH2 0xC9C JUMPI PUSH1 0x8 PUSH1 0x0 DUP1 SLOAD DUP2 MSTORE PUSH1 0x20 ADD SWAP1 DUP2 MSTORE PUSH1 0x20 ADD PUSH1 0x0 KECCAK256 DUP2 DUP2 SLOAD DUP2 LT PUSH2 0xB09 JUMPI PUSH2 0xB08 PUSH2 0x1990 JUMP JUMPDEST JUMPDEST SWAP1 PUSH1 0x0 MSTORE PUSH1 0x20 PUSH1 0x0 KECCAK256 SWAP1 PUSH1 0x3 MUL ADD PUSH1 0x40 MLOAD DUP1 PUSH1 0x60 ADD PUSH1 0x40 MSTORE SWAP1 DUP2 PUSH1 0x0 DUP3 ADD DUP1 SLOAD PUSH2 0xB32 SWAP1 PUSH2 0x1CFE JUMP JUMPDEST DUP1 PUSH1 0x1F ADD PUSH1 0x20 DUP1 SWAP2 DIV MUL PUSH1 0x20 ADD PUSH1 0x40 MLOAD SWAP1 DUP2 ADD PUSH1 0x40 MSTORE DUP1 SWAP3 SWAP2 SWAP1 DUP2 DUP2 MSTORE PUSH1 0x20 ADD DUP3 DUP1 SLOAD PUSH2 0xB5E SWAP1 PUSH2 0x1CFE JUMP JUMPDEST DUP1 ISZERO PUSH2 0xBAB JUMPI DUP1 PUSH1 0x1F LT PUSH2 0xB80 JUMPI PUSH2 0x100 DUP1 DUP4 SLOAD DIV MUL DUP4 MSTORE SWAP2 PUSH1 0x20 ADD SWAP2 PUSH2 0xBAB JUMP JUMPDEST DUP3 ADD SWAP2 SWAP1 PUSH1 0x0 MSTORE PUSH1 0x20 PUSH1 0x0 KECCAK256 SWAP1 JUMPDEST DUP2 SLOAD DUP2 MSTORE SWAP1 PUSH1 0x1 ADD SWAP1 PUSH1 0x20 ADD DUP1 DUP4 GT PUSH2 0xB8E JUMPI DUP3 SWAP1 SUB PUSH1 0x1F AND DUP3 ADD SWAP2 JUMPDEST POP POP POP POP POP DUP2 MSTORE PUSH1 0x20 ADD PUSH1 0x1 DUP3 ADD PUSH1 0x0 SWAP1 SLOAD SWAP1 PUSH2 0x100 EXP SWAP1 DIV PUSH20 0xFFFFFFFFFFFFFFFFFFFFFFFFFFFFFFFFFFFFFFFF AND PUSH20 0xFFFFFFFFFFFFFFFFFFFFFFFFFFFFFFFFFFFFFFFF AND PUSH20 0xFFFFFFFFFFFFFFFFFFFFFFFFFFFFFFFFFFFFFFFF AND DUP2 MSTORE PUSH1 0x20 ADD PUSH1 0x2 DUP3 ADD SLOAD DUP2 MSTORE POP POP DUP4 DUP3 DUP2 MLOAD DUP2 LT PUSH2 0xC27 JUMPI PUSH2 0xC26 PUSH2 0x1990 JUMP JUMPDEST JUMPDEST PUSH1 0x20 MUL PUSH1 0x20 ADD ADD DUP2 SWAP1 MSTORE POP PUSH1 0x8 PUSH1 0x0 DUP1 SLOAD DUP2 MSTORE PUSH1 0x20 ADD SWAP1 DUP2 MSTORE PUSH1 0x20 ADD PUSH1 0x0 KECCAK256 DUP2 DUP2 SLOAD DUP2 LT PUSH2 0xC58 JUMPI PUSH2 0xC57 PUSH2 0x1990 JUMP JUMPDEST JUMPDEST SWAP1 PUSH1 0x0 MSTORE PUSH1 0x20 PUSH1 0x0 KECCAK256 SWAP1 PUSH1 0x3 MUL ADD PUSH1 0x2 ADD SLOAD DUP3 DUP3 DUP2 MLOAD DUP2 LT PUSH2 0xC7D JUMPI PUSH2 0xC7C PUSH2 0x1990 JUMP JUMPDEST JUMPDEST PUSH1 0x20 MUL PUSH1 0x20 ADD ADD DUP2 DUP2 MSTORE POP POP DUP1 DUP1 PUSH2 0xC94 SWAP1 PUSH2 0x19EE JUMP JUMPDEST SWAP2 POP POP PUSH2 0xADB JUMP JUMPDEST POP PUSH1 0x0 DUP4 SWAP1 POP JUMPDEST PUSH1 0x8 PUSH1 0x0 DUP1 SLOAD DUP2 MSTORE PUSH1 0x20 ADD SWAP1 DUP2 MSTORE PUSH1 0x20 ADD PUSH1 0x0 KECCAK256 DUP1 SLOAD SWAP1 POP DUP2 LT ISZERO PUSH2 0xF45 JUMPI PUSH1 0x0 DUP1 DUP4 PUSH1 0x0 DUP2 MLOAD DUP2 LT PUSH2 0xCD9 JUMPI PUSH2 0xCD8 PUSH2 0x1990 JUMP JUMPDEST JUMPDEST PUSH1 0x20 MUL PUSH1 0x20 ADD ADD MLOAD SWAP1 POP PUSH1 0x0 PUSH1 0x1 SWAP1 POP JUMPDEST PUSH1 0x5 DUP2 LT ISZERO PUSH2 0xD49 JUMPI DUP2 DUP6 DUP3 DUP2 MLOAD DUP2 LT PUSH2 0xD07 JUMPI PUSH2 0xD06 PUSH2 0x1990 JUMP JUMPDEST JUMPDEST PUSH1 0x20 MUL PUSH1 0x20 ADD ADD MLOAD LT ISZERO PUSH2 0xD36 JUMPI DUP5 DUP2 DUP2 MLOAD DUP2 LT PUSH2 0xD28 JUMPI PUSH2 0xD27 PUSH2 0x1990 JUMP JUMPDEST JUMPDEST PUSH1 0x20 MUL PUSH1 0x20 ADD ADD MLOAD SWAP2 POP DUP1 SWAP3 POP JUMPDEST DUP1 DUP1 PUSH2 0xD41 SWAP1 PUSH2 0x19EE JUMP JUMPDEST SWAP2 POP POP PUSH2 0xCEA JUMP JUMPDEST POP DUP1 PUSH1 0x8 PUSH1 0x0 DUP1 SLOAD DUP2 MSTORE PUSH1 0x20 ADD SWAP1 DUP2 MSTORE PUSH1 0x20 ADD PUSH1 0x0 KECCAK256 DUP5 DUP2 SLOAD DUP2 LT PUSH2 0xD71 JUMPI PUSH2 0xD70 PUSH2 0x1990 JUMP JUMPDEST JUMPDEST SWAP1 PUSH1 0x0 MSTORE PUSH1 0x20 PUSH1 0x0 KECCAK256 SWAP1 PUSH1 0x3 MUL ADD PUSH1 0x2 ADD SLOAD GT ISZERO PUSH2 0xF30 JUMPI PUSH1 0x8 PUSH1 0x0 DUP1 SLOAD DUP2 MSTORE PUSH1 0x20 ADD SWAP1 DUP2 MSTORE PUSH1 0x20 ADD PUSH1 0x0 KECCAK256 DUP4 DUP2 SLOAD DUP2 LT PUSH2 0xDAF JUMPI PUSH2 0xDAE PUSH2 0x1990 JUMP JUMPDEST JUMPDEST SWAP1 PUSH1 0x0 MSTORE PUSH1 0x20 PUSH1 0x0 KECCAK256 SWAP1 PUSH1 0x3 MUL ADD PUSH1 0x2 ADD SLOAD DUP5 DUP4 DUP2 MLOAD DUP2 LT PUSH2 0xDD4 JUMPI PUSH2 0xDD3 PUSH2 0x1990 JUMP JUMPDEST JUMPDEST PUSH1 0x20 MUL PUSH1 0x20 ADD ADD DUP2 DUP2 MSTORE POP POP PUSH1 0x8 PUSH1 0x0 DUP1 SLOAD DUP2 MSTORE PUSH1 0x20 ADD SWAP1 DUP2 MSTORE PUSH1 0x20 ADD PUSH1 0x0 KECCAK256 DUP4 DUP2 SLOAD DUP2 LT PUSH2 0xE06 JUMPI PUSH2 0xE05 PUSH2 0x1990 JUMP JUMPDEST JUMPDEST SWAP1 PUSH1 0x0 MSTORE PUSH1 0x20 PUSH1 0x0 KECCAK256 SWAP1 PUSH1 0x3 MUL ADD PUSH1 0x40 MLOAD DUP1 PUSH1 0x60 ADD PUSH1 0x40 MSTORE SWAP1 DUP2 PUSH1 0x0 DUP3 ADD DUP1 SLOAD PUSH2 0xE2F SWAP1 PUSH2 0x1CFE JUMP JUMPDEST DUP1 PUSH1 0x1F ADD PUSH1 0x20 DUP1 SWAP2 DIV MUL PUSH1 0x20 ADD PUSH1 0x40 MLOAD SWAP1 DUP2 ADD PUSH1 0x40 MSTORE DUP1 SWAP3 SWAP2 SWAP1 DUP2 DUP2 MSTORE PUSH1 0x20 ADD DUP3 DUP1 SLOAD PUSH2 0xE5B SWAP1 PUSH2 0x1CFE JUMP JUMPDEST DUP1 ISZERO PUSH2 0xEA8 JUMPI DUP1 PUSH1 0x1F LT PUSH2 0xE7D JUMPI PUSH2 0x100 DUP1 DUP4 SLOAD DIV MUL DUP4 MSTORE SWAP2 PUSH1 0x20 ADD SWAP2 PUSH2 0xEA8 JUMP JUMPDEST DUP3 ADD SWAP2 SWAP1 PUSH1 0x0 MSTORE PUSH1 0x20 PUSH1 0x0 KECCAK256 SWAP1 JUMPDEST DUP2 SLOAD DUP2 MSTORE SWAP1 PUSH1 0x1 ADD SWAP1 PUSH1 0x20 ADD DUP1 DUP4 GT PUSH2 0xE8B JUMPI DUP3 SWAP1 SUB PUSH1 0x1F AND DUP3 ADD SWAP2 JUMPDEST POP POP POP POP POP DUP2 MSTORE PUSH1 0x20 ADD PUSH1 0x1 DUP3 ADD PUSH1 0x0 SWAP1 SLOAD SWAP1 PUSH2 0x100 EXP SWAP1 DIV PUSH20 0xFFFFFFFFFFFFFFFFFFFFFFFFFFFFFFFFFFFFFFFF AND PUSH20 0xFFFFFFFFFFFFFFFFFFFFFFFFFFFFFFFFFFFFFFFF AND PUSH20 0xFFFFFFFFFFFFFFFFFFFFFFFFFFFFFFFFFFFFFFFF AND DUP2 MSTORE PUSH1 0x20 ADD PUSH1 0x2 DUP3 ADD SLOAD DUP2 MSTORE POP POP DUP6 DUP4 DUP2 MLOAD DUP2 LT PUSH2 0xF24 JUMPI PUSH2 0xF23 PUSH2 0x1990 JUMP JUMPDEST JUMPDEST PUSH1 0x20 MUL PUSH1 0x20 ADD ADD DUP2 SWAP1 MSTORE POP JUMPDEST POP POP DUP1 DUP1 PUSH2 0xF3D SWAP1 PUSH2 0x19EE JUMP JUMPDEST SWAP2 POP POP PUSH2 0xCA3 JUMP JUMPDEST POP DUP2 SWAP4 POP POP POP POP SWAP1 JUMP JUMPDEST PUSH1 0x0 DUP1 JUMPDEST PUSH1 0x8 PUSH1 0x0 DUP1 SLOAD DUP2 MSTORE PUSH1 0x20 ADD SWAP1 DUP2 MSTORE PUSH1 0x20 ADD PUSH1 0x0 KECCAK256 DUP1 SLOAD SWAP1 POP DUP2 LT ISZERO PUSH2 0x1014 JUMPI CALLER PUSH20 0xFFFFFFFFFFFFFFFFFFFFFFFFFFFFFFFFFFFFFFFF AND PUSH1 0x8 PUSH1 0x0 DUP1 SLOAD DUP2 MSTORE PUSH1 0x20 ADD SWAP1 DUP2 MSTORE PUSH1 0x20 ADD PUSH1 0x0 KECCAK256 DUP3 DUP2 SLOAD DUP2 LT PUSH2 0xFAF JUMPI PUSH2 0xFAE PUSH2 0x1990 JUMP JUMPDEST JUMPDEST SWAP1 PUSH1 0x0 MSTORE PUSH1 0x20 PUSH1 0x0 KECCAK256 SWAP1 PUSH1 0x3 MUL ADD PUSH1 0x1 ADD PUSH1 0x0 SWAP1 SLOAD SWAP1 PUSH2 0x100 EXP SWAP1 DIV PUSH20 0xFFFFFFFFFFFFFFFFFFFFFFFFFFFFFFFFFFFFFFFF AND PUSH20 0xFFFFFFFFFFFFFFFFFFFFFFFFFFFFFFFFFFFFFFFF AND SUB PUSH2 0x1001 JUMPI PUSH1 0x1 SWAP2 POP JUMPDEST DUP1 DUP1 PUSH2 0x100C SWAP1 PUSH2 0x19EE JUMP JUMPDEST SWAP2 POP POP PUSH2 0xF53 JUMP JUMPDEST POP DUP1 ISZERO PUSH2 0x1056 JUMPI PUSH1 0x40 MLOAD PUSH32 0x8C379A000000000000000000000000000000000000000000000000000000000 DUP2 MSTORE PUSH1 0x4 ADD PUSH2 0x104D SWAP1 PUSH2 0x208B JUMP JUMPDEST PUSH1 0x40 MLOAD DUP1 SWAP2 SUB SWAP1 REVERT JUMPDEST PUSH1 0x1 SLOAD PUSH1 0x8 PUSH1 0x0 DUP1 SLOAD DUP2 MSTORE PUSH1 0x20 ADD SWAP1 DUP2 MSTORE PUSH1 0x20 ADD PUSH1 0x0 KECCAK256 DUP1 SLOAD SWAP1 POP LT PUSH2 0x10B1 JUMPI PUSH1 0x40 MLOAD PUSH32 0x8C379A000000000000000000000000000000000000000000000000000000000 DUP2 MSTORE PUSH1 0x4 ADD PUSH2 0x10A8 SWAP1 PUSH2 0x20F7 JUMP JUMPDEST PUSH1 0x40 MLOAD DUP1 SWAP2 SUB SWAP1 REVERT JUMPDEST PUSH1 0x2 PUSH1 0x1 SWAP1 SLOAD SWAP1 PUSH2 0x100 EXP SWAP1 DIV PUSH1 0xFF AND PUSH2 0x1100 JUMPI PUSH1 0x40 MLOAD PUSH32 0x8C379A000000000000000000000000000000000000000000000000000000000 DUP2 MSTORE PUSH1 0x4 ADD PUSH2 0x10F7 SWAP1 PUSH2 0x2163 JUMP JUMPDEST PUSH1 0x40 MLOAD DUP1 SWAP2 SUB SWAP1 REVERT JUMPDEST PUSH1 0x8 PUSH1 0x0 DUP1 SLOAD DUP2 MSTORE PUSH1 0x20 ADD SWAP1 DUP2 MSTORE PUSH1 0x20 ADD PUSH1 0x0 KECCAK256 PUSH1 0x40 MLOAD DUP1 PUSH1 0x60 ADD PUSH1 0x40 MSTORE DUP1 DUP6 DUP6 DUP1 DUP1 PUSH1 0x1F ADD PUSH1 0x20 DUP1 SWAP2 DIV MUL PUSH1 0x20 ADD PUSH1 0x40 MLOAD SWAP1 DUP2 ADD PUSH1 0x40 MSTORE DUP1 SWAP4 SWAP3 SWAP2 SWAP1 DUP2 DUP2 MSTORE PUSH1 0x20 ADD DUP4 DUP4 DUP1 DUP3 DUP5 CALLDATACOPY PUSH1 0x0 DUP2 DUP5 ADD MSTORE PUSH1 0x1F NOT PUSH1 0x1F DUP3 ADD AND SWAP1 POP DUP1 DUP4 ADD SWAP3 POP POP POP POP POP POP POP DUP2 MSTORE PUSH1 0x20 ADD CALLER PUSH20 0xFFFFFFFFFFFFFFFFFFFFFFFFFFFFFFFFFFFFFFFF AND DUP2 MSTORE PUSH1 0x20 ADD PUSH1 0x0 DUP2 MSTORE POP SWAP1 DUP1 PUSH1 0x1 DUP2 SLOAD ADD DUP1 DUP3 SSTORE DUP1 SWAP2 POP POP PUSH1 0x1 SWAP1 SUB SWAP1 PUSH1 0x0 MSTORE PUSH1 0x20 PUSH1 0x0 KECCAK256 SWAP1 PUSH1 0x3 MUL ADD PUSH1 0x0 SWAP1 SWAP2 SWAP1 SWAP2 SWAP1 SWAP2 POP PUSH1 0x0 DUP3 ADD MLOAD DUP2 PUSH1 0x0 ADD SWAP1 DUP2 PUSH2 0x11C8 SWAP2 SWAP1 PUSH2 0x1EDB JUMP JUMPDEST POP PUSH1 0x20 DUP3 ADD MLOAD DUP2 PUSH1 0x1 ADD PUSH1 0x0 PUSH2 0x100 EXP DUP2 SLOAD DUP2 PUSH20 0xFFFFFFFFFFFFFFFFFFFFFFFFFFFFFFFFFFFFFFFF MUL NOT AND SWAP1 DUP4 PUSH20 0xFFFFFFFFFFFFFFFFFFFFFFFFFFFFFFFFFFFFFFFF AND MUL OR SWAP1 SSTORE POP PUSH1 0x40 DUP3 ADD MLOAD DUP2 PUSH1 0x2 ADD SSTORE POP POP POP POP POP JUMP JUMPDEST PUSH1 0x2 PUSH1 0x0 SWAP1 SLOAD SWAP1 PUSH2 0x100 EXP SWAP1 DIV PUSH1 0xFF AND PUSH2 0x1270 JUMPI PUSH1 0x40 MLOAD PUSH32 0x8C379A000000000000000000000000000000000000000000000000000000000 DUP2 MSTORE PUSH1 0x4 ADD PUSH2 0x1267 SWAP1 PUSH2 0x1B80 JUMP JUMPDEST PUSH1 0x40 MLOAD DUP1 SWAP2 SUB SWAP1 REVERT JUMPDEST PUSH1 0x0 PUSH1 0x2 PUSH1 0x0 PUSH2 0x100 EXP DUP2 SLOAD DUP2 PUSH1 0xFF MUL NOT AND SWAP1 DUP4 ISZERO ISZERO MUL OR SWAP1 SSTORE POP PUSH2 0x1293 PUSH2 0x12D7 JUMP JUMPDEST JUMP JUMPDEST PUSH1 0x0 PUSH1 0x1 SLOAD TIMESTAMP PREVRANDAO CALLER PUSH1 0x40 MLOAD PUSH1 0x20 ADD PUSH2 0x12AF SWAP4 SWAP3 SWAP2 SWAP1 PUSH2 0x21EC JUMP JUMPDEST PUSH1 0x40 MLOAD PUSH1 0x20 DUP2 DUP4 SUB SUB DUP2 MSTORE SWAP1 PUSH1 0x40 MSTORE DUP1 MLOAD SWAP1 PUSH1 0x20 ADD KECCAK256 PUSH1 0x0 SHR PUSH2 0x12D2 SWAP2 SWAP1 PUSH2 0x2229 JUMP JUMPDEST SWAP1 POP SWAP1 JUMP JUMPDEST PUSH1 0x1 PUSH1 0x0 DUP1 DUP3 DUP3 SLOAD PUSH2 0x12E9 SWAP2 SWAP1 PUSH2 0x1BA0 JUMP JUMPDEST SWAP3 POP POP DUP2 SWAP1 SSTORE POP PUSH1 0x1 PUSH1 0x2 PUSH1 0x1 PUSH2 0x100 EXP DUP2 SLOAD DUP2 PUSH1 0xFF MUL NOT AND SWAP1 DUP4 ISZERO ISZERO MUL OR SWAP1 SSTORE POP PUSH2 0x1313 PUSH2 0x1315 JUMP JUMPDEST JUMP JUMPDEST PUSH1 0x2 PUSH1 0x0 SWAP1 SLOAD SWAP1 PUSH2 0x100 EXP SWAP1 DIV PUSH1 0xFF AND ISZERO PUSH2 0x1365 JUMPI PUSH1 0x40 MLOAD PUSH32 0x8C379A000000000000000000000000000000000000000000000000000000000 DUP2 MSTORE PUSH1 0x4 ADD PUSH2 0x135C SWAP1 PUSH2 0x1970 JUMP JUMPDEST PUSH1 0x40 MLOAD DUP1 SWAP2 SUB SWAP1 REVERT JUMPDEST PUSH1 0x0 PUSH2 0x136F PUSH2 0x63F JUMP JUMPDEST SWAP1 POP PUSH1 0x0 JUMPDEST DUP2 MLOAD DUP2 LT ISZERO PUSH2 0x14AA JUMPI PUSH1 0x0 PUSH1 0x40 MLOAD PUSH1 0x24 ADD PUSH1 0x40 MLOAD PUSH1 0x20 DUP2 DUP4 SUB SUB DUP2 MSTORE SWAP1 PUSH1 0x40 MSTORE PUSH32 0x802B852600000000000000000000000000000000000000000000000000000000 PUSH28 0xFFFFFFFFFFFFFFFFFFFFFFFFFFFFFFFFFFFFFFFFFFFFFFFFFFFFFFFF NOT AND PUSH1 0x20 DUP3 ADD DUP1 MLOAD PUSH28 0xFFFFFFFFFFFFFFFFFFFFFFFFFFFFFFFFFFFFFFFFFFFFFFFFFFFFFFFF DUP4 DUP2 DUP4 AND OR DUP4 MSTORE POP POP POP POP SWAP1 POP PUSH1 0x0 DUP4 DUP4 DUP2 MLOAD DUP2 LT PUSH2 0x1419 JUMPI PUSH2 0x1418 PUSH2 0x1990 JUMP JUMPDEST JUMPDEST PUSH1 0x20 MUL PUSH1 0x20 ADD ADD MLOAD PUSH20 0xFFFFFFFFFFFFFFFFFFFFFFFFFFFFFFFFFFFFFFFF AND DUP3 PUSH1 0x40 MLOAD PUSH2 0x1445 SWAP2 SWAP1 PUSH2 0x22A1 JUMP JUMPDEST PUSH1 0x0 PUSH1 0x40 MLOAD DUP1 DUP4 SUB DUP2 PUSH1 0x0 DUP7 GAS CALL SWAP2 POP POP RETURNDATASIZE DUP1 PUSH1 0x0 DUP2 EQ PUSH2 0x1482 JUMPI PUSH1 0x40 MLOAD SWAP2 POP PUSH1 0x1F NOT PUSH1 0x3F RETURNDATASIZE ADD AND DUP3 ADD PUSH1 0x40 MSTORE RETURNDATASIZE DUP3 MSTORE RETURNDATASIZE PUSH1 0x0 PUSH1 0x20 DUP5 ADD RETURNDATACOPY PUSH2 0x1487 JUMP JUMPDEST PUSH1 0x60 SWAP2 POP JUMPDEST POP POP SWAP1 POP DUP1 PUSH2 0x1495 JUMPI PUSH1 0x0 DUP1 REVERT JUMPDEST POP POP DUP1 DUP1 PUSH2 0x14A2 SWAP1 PUSH2 0x19EE JUMP JUMPDEST SWAP2 POP POP PUSH2 0x1374 JUMP JUMPDEST POP POP JUMP JUMPDEST PUSH1 0x40 MLOAD DUP1 PUSH1 0x60 ADD PUSH1 0x40 MSTORE DUP1 PUSH1 0x60 DUP2 MSTORE PUSH1 0x20 ADD PUSH1 0x0 PUSH20 0xFFFFFFFFFFFFFFFFFFFFFFFFFFFFFFFFFFFFFFFF AND DUP2 MSTORE PUSH1 0x20 ADD PUSH1 0x0 DUP2 MSTORE POP SWAP1 JUMP JUMPDEST PUSH1 0x0 DUP1 REVERT JUMPDEST PUSH1 0x0 DUP1 REVERT JUMPDEST PUSH1 0x0 DUP2 SWAP1 POP SWAP2 SWAP1 POP JUMP JUMPDEST PUSH2 0x1502 DUP2 PUSH2 0x14EF JUMP JUMPDEST DUP2 EQ PUSH2 0x150D JUMPI PUSH1 0x0 DUP1 REVERT JUMPDEST POP JUMP JUMPDEST PUSH1 0x0 DUP2 CALLDATALOAD SWAP1 POP PUSH2 0x151F DUP2 PUSH2 0x14F9 JUMP JUMPDEST SWAP3 SWAP2 POP POP JUMP JUMPDEST PUSH1 0x0 PUSH1 0x20 DUP3 DUP5 SUB SLT ISZERO PUSH2 0x153B JUMPI PUSH2 0x153A PUSH2 0x14E5 JUMP JUMPDEST JUMPDEST PUSH1 0x0 PUSH2 0x1549 DUP5 DUP3 DUP6 ADD PUSH2 0x1510 JUMP JUMPDEST SWAP2 POP POP SWAP3 SWAP2 POP POP JUMP JUMPDEST PUSH1 0x0 DUP2 MLOAD SWAP1 POP SWAP2 SWAP1 POP JUMP JUMPDEST PUSH1 0x0 DUP3 DUP3 MSTORE PUSH1 0x20 DUP3 ADD SWAP1 POP SWAP3 SWAP2 POP POP JUMP JUMPDEST PUSH1 0x0 DUP2 SWAP1 POP PUSH1 0x20 DUP3 ADD SWAP1 POP SWAP2 SWAP1 POP JUMP JUMPDEST PUSH1 0x0 PUSH20 0xFFFFFFFFFFFFFFFFFFFFFFFFFFFFFFFFFFFFFFFF DUP3 AND SWAP1 POP SWAP2 SWAP1 POP JUMP JUMPDEST PUSH1 0x0 PUSH2 0x15A9 DUP3 PUSH2 0x157E JUMP JUMPDEST SWAP1 POP SWAP2 SWAP1 POP JUMP JUMPDEST PUSH2 0x15B9 DUP2 PUSH2 0x159E JUMP JUMPDEST DUP3 MSTORE POP POP JUMP JUMPDEST PUSH1 0x0 PUSH2 0x15CB DUP4 DUP4 PUSH2 0x15B0 JUMP JUMPDEST PUSH1 0x20 DUP4 ADD SWAP1 POP SWAP3 SWAP2 POP POP JUMP JUMPDEST PUSH1 0x0 PUSH1 0x20 DUP3 ADD SWAP1 POP SWAP2 SWAP1 POP JUMP JUMPDEST PUSH1 0x0 PUSH2 0x15EF DUP3 PUSH2 0x1552 JUMP JUMPDEST PUSH2 0x15F9 DUP2 DUP6 PUSH2 0x155D JUMP JUMPDEST SWAP4 POP PUSH2 0x1604 DUP4 PUSH2 0x156E JUMP JUMPDEST DUP1 PUSH1 0x0 JUMPDEST DUP4 DUP2 LT ISZERO PUSH2 0x1635 JUMPI DUP2 MLOAD PUSH2 0x161C DUP9 DUP3 PUSH2 0x15BF JUMP JUMPDEST SWAP8 POP PUSH2 0x1627 DUP4 PUSH2 0x15D7 JUMP JUMPDEST SWAP3 POP POP PUSH1 0x1 DUP2 ADD SWAP1 POP PUSH2 0x1608 JUMP JUMPDEST POP DUP6 SWAP4 POP POP POP POP SWAP3 SWAP2 POP POP JUMP JUMPDEST PUSH1 0x0 PUSH1 0x20 DUP3 ADD SWAP1 POP DUP2 DUP2 SUB PUSH1 0x0 DUP4 ADD MSTORE PUSH2 0x165C DUP2 DUP5 PUSH2 0x15E4 JUMP JUMPDEST SWAP1 POP SWAP3 SWAP2 POP POP JUMP JUMPDEST PUSH2 0x166D DUP2 PUSH2 0x14EF JUMP JUMPDEST DUP3 MSTORE POP POP JUMP JUMPDEST PUSH1 0x0 PUSH1 0x20 DUP3 ADD SWAP1 POP PUSH2 0x1688 PUSH1 0x0 DUP4 ADD DUP5 PUSH2 0x1664 JUMP JUMPDEST SWAP3 SWAP2 POP POP JUMP JUMPDEST PUSH1 0x0 DUP2 MLOAD SWAP1 POP SWAP2 SWAP1 POP JUMP JUMPDEST PUSH1 0x0 DUP3 DUP3 MSTORE PUSH1 0x20 DUP3 ADD SWAP1 POP SWAP3 SWAP2 POP POP JUMP JUMPDEST PUSH1 0x0 DUP2 SWAP1 POP PUSH1 0x20 DUP3 ADD SWAP1 POP SWAP2 SWAP1 POP JUMP JUMPDEST PUSH1 0x0 DUP2 MLOAD SWAP1 POP SWAP2 SWAP1 POP JUMP JUMPDEST PUSH1 0x0 DUP3 DUP3 MSTORE PUSH1 0x20 DUP3 ADD SWAP1 POP SWAP3 SWAP2 POP POP JUMP JUMPDEST PUSH1 0x0 JUMPDEST DUP4 DUP2 LT ISZERO PUSH2 0x16F4 JUMPI DUP1 DUP3 ADD MLOAD DUP2 DUP5 ADD MSTORE PUSH1 0x20 DUP2 ADD SWAP1 POP PUSH2 0x16D9 JUMP JUMPDEST PUSH1 0x0 DUP5 DUP5 ADD MSTORE POP POP POP POP JUMP JUMPDEST PUSH1 0x0 PUSH1 0x1F NOT PUSH1 0x1F DUP4 ADD AND SWAP1 POP SWAP2 SWAP1 POP JUMP JUMPDEST PUSH1 0x0 PUSH2 0x171C DUP3 PUSH2 0x16BA JUMP JUMPDEST PUSH2 0x1726 DUP2 DUP6 PUSH2 0x16C5 JUMP JUMPDEST SWAP4 POP PUSH2 0x1736 DUP2 DUP6 PUSH1 0x20 DUP7 ADD PUSH2 0x16D6 JUMP JUMPDEST PUSH2 0x173F DUP2 PUSH2 0x1700 JUMP JUMPDEST DUP5 ADD SWAP2 POP POP SWAP3 SWAP2 POP POP JUMP JUMPDEST PUSH2 0x1753 DUP2 PUSH2 0x14EF JUMP JUMPDEST DUP3 MSTORE POP POP JUMP JUMPDEST PUSH1 0x0 PUSH1 0x60 DUP4 ADD PUSH1 0x0 DUP4 ADD MLOAD DUP5 DUP3 SUB PUSH1 0x0 DUP7 ADD MSTORE PUSH2 0x1776 DUP3 DUP3 PUSH2 0x1711 JUMP JUMPDEST SWAP2 POP POP PUSH1 0x20 DUP4 ADD MLOAD PUSH2 0x178B PUSH1 0x20 DUP7 ADD DUP3 PUSH2 0x15B0 JUMP JUMPDEST POP PUSH1 0x40 DUP4 ADD MLOAD PUSH2 0x179E PUSH1 0x40 DUP7 ADD DUP3 PUSH2 0x174A JUMP JUMPDEST POP DUP1 SWAP2 POP POP SWAP3 SWAP2 POP POP JUMP JUMPDEST PUSH1 0x0 PUSH2 0x17B5 DUP4 DUP4 PUSH2 0x1759 JUMP JUMPDEST SWAP1 POP SWAP3 SWAP2 POP POP JUMP JUMPDEST PUSH1 0x0 PUSH1 0x20 DUP3 ADD SWAP1 POP SWAP2 SWAP1 POP JUMP JUMPDEST PUSH1 0x0 PUSH2 0x17D5 DUP3 PUSH2 0x168E JUMP JUMPDEST PUSH2 0x17DF DUP2 DUP6 PUSH2 0x1699 JUMP JUMPDEST SWAP4 POP DUP4 PUSH1 0x20 DUP3 MUL DUP6 ADD PUSH2 0x17F1 DUP6 PUSH2 0x16AA JUMP JUMPDEST DUP1 PUSH1 0x0 JUMPDEST DUP6 DUP2 LT ISZERO PUSH2 0x182D JUMPI DUP5 DUP5 SUB DUP10 MSTORE DUP2 MLOAD PUSH2 0x180E DUP6 DUP3 PUSH2 0x17A9 JUMP JUMPDEST SWAP5 POP PUSH2 0x1819 DUP4 PUSH2 0x17BD JUMP JUMPDEST SWAP3 POP PUSH1 0x20 DUP11 ADD SWAP10 POP POP PUSH1 0x1 DUP2 ADD SWAP1 POP PUSH2 0x17F5 JUMP JUMPDEST POP DUP3 SWAP8 POP DUP8 SWAP6 POP POP POP POP POP POP SWAP3 SWAP2 POP POP JUMP JUMPDEST PUSH1 0x0 PUSH1 0x20 DUP3 ADD SWAP1 POP DUP2 DUP2 SUB PUSH1 0x0 DUP4 ADD MSTORE PUSH2 0x1859 DUP2 DUP5 PUSH2 0x17CA JUMP JUMPDEST SWAP1 POP SWAP3 SWAP2 POP POP JUMP JUMPDEST PUSH1 0x0 DUP1 REVERT JUMPDEST PUSH1 0x0 DUP1 REVERT JUMPDEST PUSH1 0x0 DUP1 REVERT JUMPDEST PUSH1 0x0 DUP1 DUP4 PUSH1 0x1F DUP5 ADD SLT PUSH2 0x1886 JUMPI PUSH2 0x1885 PUSH2 0x1861 JUMP JUMPDEST JUMPDEST DUP3 CALLDATALOAD SWAP1 POP PUSH8 0xFFFFFFFFFFFFFFFF DUP2 GT ISZERO PUSH2 0x18A3 JUMPI PUSH2 0x18A2 PUSH2 0x1866 JUMP JUMPDEST JUMPDEST PUSH1 0x20 DUP4 ADD SWAP2 POP DUP4 PUSH1 0x1 DUP3 MUL DUP4 ADD GT ISZERO PUSH2 0x18BF JUMPI PUSH2 0x18BE PUSH2 0x186B JUMP JUMPDEST JUMPDEST SWAP3 POP SWAP3 SWAP1 POP JUMP JUMPDEST PUSH1 0x0 DUP1 PUSH1 0x20 DUP4 DUP6 SUB SLT ISZERO PUSH2 0x18DD JUMPI PUSH2 0x18DC PUSH2 0x14E5 JUMP JUMPDEST JUMPDEST PUSH1 0x0 DUP4 ADD CALLDATALOAD PUSH8 0xFFFFFFFFFFFFFFFF DUP2 GT ISZERO PUSH2 0x18FB JUMPI PUSH2 0x18FA PUSH2 0x14EA JUMP JUMPDEST JUMPDEST PUSH2 0x1907 DUP6 DUP3 DUP7 ADD PUSH2 0x1870 JUMP JUMPDEST SWAP3 POP SWAP3 POP POP SWAP3 POP SWAP3 SWAP1 POP JUMP JUMPDEST PUSH1 0x0 DUP3 DUP3 MSTORE PUSH1 0x20 DUP3 ADD SWAP1 POP SWAP3 SWAP2 POP POP JUMP JUMPDEST PUSH32 0x566F74696E672069732061637469766500000000000000000000000000000000 PUSH1 0x0 DUP3 ADD MSTORE POP JUMP JUMPDEST PUSH1 0x0 PUSH2 0x195A PUSH1 0x10 DUP4 PUSH2 0x1913 JUMP JUMPDEST SWAP2 POP PUSH2 0x1965 DUP3 PUSH2 0x1924 JUMP JUMPDEST PUSH1 0x20 DUP3 ADD SWAP1 POP SWAP2 SWAP1 POP JUMP JUMPDEST PUSH1 0x0 PUSH1 0x20 DUP3 ADD SWAP1 POP DUP2 DUP2 SUB PUSH1 0x0 DUP4 ADD MSTORE PUSH2 0x1989 DUP2 PUSH2 0x194D JUMP JUMPDEST SWAP1 POP SWAP2 SWAP1 POP JUMP JUMPDEST PUSH32 0x4E487B7100000000000000000000000000000000000000000000000000000000 PUSH1 0x0 MSTORE PUSH1 0x32 PUSH1 0x4 MSTORE PUSH1 0x24 PUSH1 0x0 REVERT JUMPDEST PUSH32 0x4E487B7100000000000000000000000000000000000000000000000000000000 PUSH1 0x0 MSTORE PUSH1 0x11 PUSH1 0x4 MSTORE PUSH1 0x24 PUSH1 0x0 REVERT JUMPDEST PUSH1 0x0 PUSH2 0x19F9 DUP3 PUSH2 0x14EF JUMP JUMPDEST SWAP2 POP PUSH32 0xFFFFFFFFFFFFFFFFFFFFFFFFFFFFFFFFFFFFFFFFFFFFFFFFFFFFFFFFFFFFFFFF DUP3 SUB PUSH2 0x1A2B JUMPI PUSH2 0x1A2A PUSH2 0x19BF JUMP JUMPDEST JUMPDEST PUSH1 0x1 DUP3 ADD SWAP1 POP SWAP2 SWAP1 POP JUMP JUMPDEST PUSH32 0x546869732066756E6374696F6E20697320616C6C6F77656420666F72206F6E6C PUSH1 0x0 DUP3 ADD MSTORE PUSH32 0x79206D696E657300000000000000000000000000000000000000000000000000 PUSH1 0x20 DUP3 ADD MSTORE POP JUMP JUMPDEST PUSH1 0x0 PUSH2 0x1A92 PUSH1 0x27 DUP4 PUSH2 0x1913 JUMP JUMPDEST SWAP2 POP PUSH2 0x1A9D DUP3 PUSH2 0x1A36 JUMP JUMPDEST PUSH1 0x40 DUP3 ADD SWAP1 POP SWAP2 SWAP1 POP JUMP JUMPDEST PUSH1 0x0 PUSH1 0x20 DUP3 ADD SWAP1 POP DUP2 DUP2 SUB PUSH1 0x0 DUP4 ADD MSTORE PUSH2 0x1AC1 DUP2 PUSH2 0x1A85 JUMP JUMPDEST SWAP1 POP SWAP2 SWAP1 POP JUMP JUMPDEST PUSH32 0x596F7520636173746564206120766F7465206265666F72650000000000000000 PUSH1 0x0 DUP3 ADD MSTORE POP JUMP JUMPDEST PUSH1 0x0 PUSH2 0x1AFE PUSH1 0x18 DUP4 PUSH2 0x1913 JUMP JUMPDEST SWAP2 POP PUSH2 0x1B09 DUP3 PUSH2 0x1AC8 JUMP JUMPDEST PUSH1 0x20 DUP3 ADD SWAP1 POP SWAP2 SWAP1 POP JUMP JUMPDEST PUSH1 0x0 PUSH1 0x20 DUP3 ADD SWAP1 POP DUP2 DUP2 SUB PUSH1 0x0 DUP4 ADD MSTORE PUSH2 0x1B2D DUP2 PUSH2 0x1AF1 JUMP JUMPDEST SWAP1 POP SWAP2 SWAP1 POP JUMP JUMPDEST PUSH32 0x566F74696E67206973206E6F7420616374697665000000000000000000000000 PUSH1 0x0 DUP3 ADD MSTORE POP JUMP JUMPDEST PUSH1 0x0 PUSH2 0x1B6A PUSH1 0x14 DUP4 PUSH2 0x1913 JUMP JUMPDEST SWAP2 POP PUSH2 0x1B75 DUP3 PUSH2 0x1B34 JUMP JUMPDEST PUSH1 0x20 DUP3 ADD SWAP1 POP SWAP2 SWAP1 POP JUMP JUMPDEST PUSH1 0x0 PUSH1 0x20 DUP3 ADD SWAP1 POP DUP2 DUP2 SUB PUSH1 0x0 DUP4 ADD MSTORE PUSH2 0x1B99 DUP2 PUSH2 0x1B5D JUMP JUMPDEST SWAP1 POP SWAP2 SWAP1 POP JUMP JUMPDEST PUSH1 0x0 PUSH2 0x1BAB DUP3 PUSH2 0x14EF JUMP JUMPDEST SWAP2 POP PUSH2 0x1BB6 DUP4 PUSH2 0x14EF JUMP JUMPDEST SWAP3 POP DUP3 DUP3 ADD SWAP1 POP DUP1 DUP3 GT ISZERO PUSH2 0x1BCE JUMPI PUSH2 0x1BCD PUSH2 0x19BF JUMP JUMPDEST JUMPDEST SWAP3 SWAP2 POP POP JUMP JUMPDEST PUSH32 0x4E487B7100000000000000000000000000000000000000000000000000000000 PUSH1 0x0 MSTORE PUSH1 0x41 PUSH1 0x4 MSTORE PUSH1 0x24 PUSH1 0x0 REVERT JUMPDEST PUSH32 0x4E487B7100000000000000000000000000000000000000000000000000000000 PUSH1 0x0 MSTORE PUSH1 0x12 PUSH1 0x4 MSTORE PUSH1 0x24 PUSH1 0x0 REVERT JUMPDEST PUSH1 0x0 PUSH2 0x1C3D DUP3 PUSH2 0x14EF JUMP JUMPDEST SWAP2 POP PUSH2 0x1C48 DUP4 PUSH2 0x14EF JUMP JUMPDEST SWAP3 POP DUP3 PUSH2 0x1C58 JUMPI PUSH2 0x1C57 PUSH2 0x1C03 JUMP JUMPDEST JUMPDEST DUP3 DUP3 DIV SWAP1 POP SWAP3 SWAP2 POP POP JUMP JUMPDEST PUSH32 0x5265636F6D6D656E646174696F6E206973206163746976650000000000000000 PUSH1 0x0 DUP3 ADD MSTORE POP JUMP JUMPDEST PUSH1 0x0 PUSH2 0x1C99 PUSH1 0x18 DUP4 PUSH2 0x1913 JUMP JUMPDEST SWAP2 POP PUSH2 0x1CA4 DUP3 PUSH2 0x1C63 JUMP JUMPDEST PUSH1 0x20 DUP3 ADD SWAP1 POP SWAP2 SWAP1 POP JUMP JUMPDEST PUSH1 0x0 PUSH1 0x20 DUP3 ADD SWAP1 POP DUP2 DUP2 SUB PUSH1 0x0 DUP4 ADD MSTORE PUSH2 0x1CC8 DUP2 PUSH2 0x1C8C JUMP JUMPDEST SWAP1 POP SWAP2 SWAP1 POP JUMP JUMPDEST PUSH32 0x4E487B7100000000000000000000000000000000000000000000000000000000 PUSH1 0x0 MSTORE PUSH1 0x22 PUSH1 0x4 MSTORE PUSH1 0x24 PUSH1 0x0 REVERT JUMPDEST PUSH1 0x0 PUSH1 0x2 DUP3 DIV SWAP1 POP PUSH1 0x1 DUP3 AND DUP1 PUSH2 0x1D16 JUMPI PUSH1 0x7F DUP3 AND SWAP2 POP JUMPDEST PUSH1 0x20 DUP3 LT DUP2 SUB PUSH2 0x1D29 JUMPI PUSH2 0x1D28 PUSH2 0x1CCF JUMP JUMPDEST JUMPDEST POP SWAP2 SWAP1 POP JUMP JUMPDEST PUSH1 0x0 DUP2 SWAP1 POP DUP2 PUSH1 0x0 MSTORE PUSH1 0x20 PUSH1 0x0 KECCAK256 SWAP1 POP SWAP2 SWAP1 POP JUMP JUMPDEST PUSH1 0x0 PUSH1 0x20 PUSH1 0x1F DUP4 ADD DIV SWAP1 POP SWAP2 SWAP1 POP JUMP JUMPDEST PUSH1 0x0 DUP3 DUP3 SHL SWAP1 POP SWAP3 SWAP2 POP POP JUMP JUMPDEST PUSH1 0x0 PUSH1 0x8 DUP4 MUL PUSH2 0x1D91 PUSH32 0xFFFFFFFFFFFFFFFFFFFFFFFFFFFFFFFFFFFFFFFFFFFFFFFFFFFFFFFFFFFFFFFF DUP3 PUSH2 0x1D54 JUMP JUMPDEST PUSH2 0x1D9B DUP7 DUP4 PUSH2 0x1D54 JUMP JUMPDEST SWAP6 POP DUP1 NOT DUP5 AND SWAP4 POP DUP1 DUP7 AND DUP5 OR SWAP3 POP POP POP SWAP4 SWAP3 POP POP POP JUMP JUMPDEST PUSH1 0x0 DUP2 SWAP1 POP SWAP2 SWAP1 POP JUMP JUMPDEST PUSH1 0x0 PUSH2 0x1DD8 PUSH2 0x1DD3 PUSH2 0x1DCE DUP5 PUSH2 0x14EF JUMP JUMPDEST PUSH2 0x1DB3 JUMP JUMPDEST PUSH2 0x14EF JUMP JUMPDEST SWAP1 POP SWAP2 SWAP1 POP JUMP JUMPDEST PUSH1 0x0 DUP2 SWAP1 POP SWAP2 SWAP1 POP JUMP JUMPDEST PUSH2 0x1DF2 DUP4 PUSH2 0x1DBD JUMP JUMPDEST PUSH2 0x1E06 PUSH2 0x1DFE DUP3 PUSH2 0x1DDF JUMP JUMPDEST DUP5 DUP5 SLOAD PUSH2 0x1D61 JUMP JUMPDEST DUP3 SSTORE POP POP POP POP JUMP JUMPDEST PUSH1 0x0 SWAP1 JUMP JUMPDEST PUSH2 0x1E1B PUSH2 0x1E0E JUMP JUMPDEST PUSH2 0x1E26 DUP2 DUP5 DUP5 PUSH2 0x1DE9 JUMP JUMPDEST POP POP POP JUMP JUMPDEST JUMPDEST DUP2 DUP2 LT ISZERO PUSH2 0x1E4A JUMPI PUSH2 0x1E3F PUSH1 0x0 DUP3 PUSH2 0x1E13 JUMP JUMPDEST PUSH1 0x1 DUP2 ADD SWAP1 POP PUSH2 0x1E2C JUMP JUMPDEST POP POP JUMP JUMPDEST PUSH1 0x1F DUP3 GT ISZERO PUSH2 0x1E8F JUMPI PUSH2 0x1E60 DUP2 PUSH2 0x1D2F JUMP JUMPDEST PUSH2 0x1E69 DUP5 PUSH2 0x1D44 JUMP JUMPDEST DUP2 ADD PUSH1 0x20 DUP6 LT ISZERO PUSH2 0x1E78 JUMPI DUP2 SWAP1 POP JUMPDEST PUSH2 0x1E8C PUSH2 0x1E84 DUP6 PUSH2 0x1D44 JUMP JUMPDEST DUP4 ADD DUP3 PUSH2 0x1E2B JUMP JUMPDEST POP POP JUMPDEST POP POP POP JUMP JUMPDEST PUSH1 0x0 DUP3 DUP3 SHR SWAP1 POP SWAP3 SWAP2 POP POP JUMP JUMPDEST PUSH1 0x0 PUSH2 0x1EB2 PUSH1 0x0 NOT DUP5 PUSH1 0x8 MUL PUSH2 0x1E94 JUMP JUMPDEST NOT DUP1 DUP4 AND SWAP2 POP POP SWAP3 SWAP2 POP POP JUMP JUMPDEST PUSH1 0x0 PUSH2 0x1ECB DUP4 DUP4 PUSH2 0x1EA1 JUMP JUMPDEST SWAP2 POP DUP3 PUSH1 0x2 MUL DUP3 OR SWAP1 POP SWAP3 SWAP2 POP POP JUMP JUMPDEST PUSH2 0x1EE4 DUP3 PUSH2 0x16BA JUMP JUMPDEST PUSH8 0xFFFFFFFFFFFFFFFF DUP2 GT ISZERO PUSH2 0x1EFD JUMPI PUSH2 0x1EFC PUSH2 0x1BD4 JUMP JUMPDEST JUMPDEST PUSH2 0x1F07 DUP3 SLOAD PUSH2 0x1CFE JUMP JUMPDEST PUSH2 0x1F12 DUP3 DUP3 DUP6 PUSH2 0x1E4E JUMP JUMPDEST PUSH1 0x0 PUSH1 0x20 SWAP1 POP PUSH1 0x1F DUP4 GT PUSH1 0x1 DUP2 EQ PUSH2 0x1F45 JUMPI PUSH1 0x0 DUP5 ISZERO PUSH2 0x1F33 JUMPI DUP3 DUP8 ADD MLOAD SWAP1 POP JUMPDEST PUSH2 0x1F3D DUP6 DUP3 PUSH2 0x1EBF JUMP JUMPDEST DUP7 SSTORE POP PUSH2 0x1FA5 JUMP JUMPDEST PUSH1 0x1F NOT DUP5 AND PUSH2 0x1F53 DUP7 PUSH2 0x1D2F JUMP JUMPDEST PUSH1 0x0 JUMPDEST DUP3 DUP2 LT ISZERO PUSH2 0x1F7B JUMPI DUP5 DUP10 ADD MLOAD DUP3 SSTORE PUSH1 0x1 DUP3 ADD SWAP2 POP PUSH1 0x20 DUP6 ADD SWAP5 POP PUSH1 0x20 DUP2 ADD SWAP1 POP PUSH2 0x1F56 JUMP JUMPDEST DUP7 DUP4 LT ISZERO PUSH2 0x1F98 JUMPI DUP5 DUP10 ADD MLOAD PUSH2 0x1F94 PUSH1 0x1F DUP10 AND DUP3 PUSH2 0x1EA1 JUMP JUMPDEST DUP4 SSTORE POP JUMPDEST PUSH1 0x1 PUSH1 0x2 DUP9 MUL ADD DUP9 SSTORE POP POP POP JUMPDEST POP POP POP POP POP POP JUMP JUMPDEST PUSH32 0x4E6F7420656E6F7567682063616E646964617465730000000000000000000000 PUSH1 0x0 DUP3 ADD MSTORE POP JUMP JUMPDEST PUSH1 0x0 PUSH2 0x1FE3 PUSH1 0x15 DUP4 PUSH2 0x1913 JUMP JUMPDEST SWAP2 POP PUSH2 0x1FEE DUP3 PUSH2 0x1FAD JUMP JUMPDEST PUSH1 0x20 DUP3 ADD SWAP1 POP SWAP2 SWAP1 POP JUMP JUMPDEST PUSH1 0x0 PUSH1 0x20 DUP3 ADD SWAP1 POP DUP2 DUP2 SUB PUSH1 0x0 DUP4 ADD MSTORE PUSH2 0x2012 DUP2 PUSH2 0x1FD6 JUMP JUMPDEST SWAP1 POP SWAP2 SWAP1 POP JUMP JUMPDEST PUSH32 0x55736572206D61646520746865207265636F6D6D656E646174696F6E20626566 PUSH1 0x0 DUP3 ADD MSTORE PUSH32 0x6F72650000000000000000000000000000000000000000000000000000000000 PUSH1 0x20 DUP3 ADD MSTORE POP JUMP JUMPDEST PUSH1 0x0 PUSH2 0x2075 PUSH1 0x23 DUP4 PUSH2 0x1913 JUMP JUMPDEST SWAP2 POP PUSH2 0x2080 DUP3 PUSH2 0x2019 JUMP JUMPDEST PUSH1 0x40 DUP3 ADD SWAP1 POP SWAP2 SWAP1 POP JUMP JUMPDEST PUSH1 0x0 PUSH1 0x20 DUP3 ADD SWAP1 POP DUP2 DUP2 SUB PUSH1 0x0 DUP4 ADD MSTORE PUSH2 0x20A4 DUP2 PUSH2 0x2068 JUMP JUMPDEST SWAP1 POP SWAP2 SWAP1 POP JUMP JUMPDEST PUSH32 0x4E6F206D6F72652063616E646964617465000000000000000000000000000000 PUSH1 0x0 DUP3 ADD MSTORE POP JUMP JUMPDEST PUSH1 0x0 PUSH2 0x20E1 PUSH1 0x11 DUP4 PUSH2 0x1913 JUMP JUMPDEST SWAP2 POP PUSH2 0x20EC DUP3 PUSH2 0x20AB JUMP JUMPDEST PUSH1 0x20 DUP3 ADD SWAP1 POP SWAP2 SWAP1 POP JUMP JUMPDEST PUSH1 0x0 PUSH1 0x20 DUP3 ADD SWAP1 POP DUP2 DUP2 SUB PUSH1 0x0 DUP4 ADD MSTORE PUSH2 0x2110 DUP2 PUSH2 0x20D4 JUMP JUMPDEST SWAP1 POP SWAP2 SWAP1 POP JUMP JUMPDEST PUSH32 0x5265636F6D6D656E646174696F6E206973206E6F742061637469766500000000 PUSH1 0x0 DUP3 ADD MSTORE POP JUMP JUMPDEST PUSH1 0x0 PUSH2 0x214D PUSH1 0x1C DUP4 PUSH2 0x1913 JUMP JUMPDEST SWAP2 POP PUSH2 0x2158 DUP3 PUSH2 0x2117 JUMP JUMPDEST PUSH1 0x20 DUP3 ADD SWAP1 POP SWAP2 SWAP1 POP JUMP JUMPDEST PUSH1 0x0 PUSH1 0x20 DUP3 ADD SWAP1 POP DUP2 DUP2 SUB PUSH1 0x0 DUP4 ADD MSTORE PUSH2 0x217C DUP2 PUSH2 0x2140 JUMP JUMPDEST SWAP1 POP SWAP2 SWAP1 POP JUMP JUMPDEST PUSH1 0x0 DUP2 SWAP1 POP SWAP2 SWAP1 POP JUMP JUMPDEST PUSH2 0x219E PUSH2 0x2199 DUP3 PUSH2 0x14EF JUMP JUMPDEST PUSH2 0x2183 JUMP JUMPDEST DUP3 MSTORE POP POP JUMP JUMPDEST PUSH1 0x0 DUP2 PUSH1 0x60 SHL SWAP1 POP SWAP2 SWAP1 POP JUMP JUMPDEST PUSH1 0x0 PUSH2 0x21BC DUP3 PUSH2 0x21A4 JUMP JUMPDEST SWAP1 POP SWAP2 SWAP1 POP JUMP JUMPDEST PUSH1 0x0 PUSH2 0x21CE DUP3 PUSH2 0x21B1 JUMP JUMPDEST SWAP1 POP SWAP2 SWAP1 POP JUMP JUMPDEST PUSH2 0x21E6 PUSH2 0x21E1 DUP3 PUSH2 0x159E JUMP JUMPDEST PUSH2 0x21C3 JUMP JUMPDEST DUP3 MSTORE POP POP JUMP JUMPDEST PUSH1 0x0 PUSH2 0x21F8 DUP3 DUP7 PUSH2 0x218D JUMP JUMPDEST PUSH1 0x20 DUP3 ADD SWAP2 POP PUSH2 0x2208 DUP3 DUP6 PUSH2 0x218D JUMP JUMPDEST PUSH1 0x20 DUP3 ADD SWAP2 POP PUSH2 0x2218 DUP3 DUP5 PUSH2 0x21D5 JUMP JUMPDEST PUSH1 0x14 DUP3 ADD SWAP2 POP DUP2 SWAP1 POP SWAP5 SWAP4 POP POP POP POP JUMP JUMPDEST PUSH1 0x0 PUSH2 0x2234 DUP3 PUSH2 0x14EF JUMP JUMPDEST SWAP2 POP PUSH2 0x223F DUP4 PUSH2 0x14EF JUMP JUMPDEST SWAP3 POP DUP3 PUSH2 0x224F JUMPI PUSH2 0x224E PUSH2 0x1C03 JUMP JUMPDEST JUMPDEST DUP3 DUP3 MOD SWAP1 POP SWAP3 SWAP2 POP POP JUMP JUMPDEST PUSH1 0x0 DUP2 MLOAD SWAP1 POP SWAP2 SWAP1 POP JUMP JUMPDEST PUSH1 0x0 DUP2 SWAP1 POP SWAP3 SWAP2 POP POP JUMP JUMPDEST PUSH1 0x0 PUSH2 0x227B DUP3 PUSH2 0x225A JUMP JUMPDEST PUSH2 0x2285 DUP2 DUP6 PUSH2 0x2265 JUMP JUMPDEST SWAP4 POP PUSH2 0x2295 DUP2 DUP6 PUSH1 0x20 DUP7 ADD PUSH2 0x16D6 JUMP JUMPDEST DUP1 DUP5 ADD SWAP2 POP POP SWAP3 SWAP2 POP POP JUMP JUMPDEST PUSH1 0x0 PUSH2 0x22AD DUP3 DUP5 PUSH2 0x2270 JUMP JUMPDEST SWAP2 POP DUP2 SWAP1 POP SWAP3 SWAP2 POP POP JUMP INVALID LOG2 PUSH5 0x6970667358 0x22 SLT KECCAK256 DELEGATECALL PUSH3 0xAA01D LOG0 PUSH21 0xF267B9C4EB2879BC2034243AE557133582C84DA76D PUSH14 0x46B7E764736F6C63430008130033 "
				},
				"gasEstimates": {
					"creation": {
						"codeDepositCost": "1788400",
						"executionCost": "infinite",
						"totalCost": "infinite"
					},
					"external": {
						"addStake()": "infinite",
						"castVote(uint256)": "infinite",
						"finishRecommendation()": "infinite",
						"finishVoting()": "infinite",
						"getMaximumCandidateNumber()": "2459",
						"getTopCandidates()": "infinite",
						"recieveRecommender(string)": "infinite",
						"selectRandomMiner()": "infinite",
						"setMaximumCandidateNumber(uint256)": "24815",
						"startVoting()": "26568"
					},
					"internal": {
						"chooseMinersForRecommendation()": "infinite",
						"pseudoRandom()": "infinite",
						"startRecommendation()": "infinite"
					}
				},
				"methodIdentifiers": {
					"addStake()": "5a627dbc",
					"castVote(uint256)": "3eb76b9c",
					"finishRecommendation()": "8aa9b98c",
					"finishVoting()": "f9094303",
					"getMaximumCandidateNumber()": "a815a06f",
					"getTopCandidates()": "b7bc7f1c",
					"recieveRecommender(string)": "f2ad54ca",
					"selectRandomMiner()": "6019aef1",
					"setMaximumCandidateNumber(uint256)": "801d570d",
					"startVoting()": "1ec6b60a"
				}
			},
			"storageLayout": {
				"storage": [
					{
						"astId": 4,
						"contract": "message/concensus/Leader.sol:Leader",
						"label": "turnNumber",
						"offset": 0,
						"slot": "0",
						"type": "t_uint256"
					},
					{
						"astId": 7,
						"contract": "message/concensus/Leader.sol:Leader",
						"label": "maxCandidateNumber",
						"offset": 0,
						"slot": "1",
						"type": "t_uint256"
					},
					{
						"astId": 9,
						"contract": "message/concensus/Leader.sol:Leader",
						"label": "isVotingOn",
						"offset": 0,
						"slot": "2",
						"type": "t_bool"
					},
					{
						"astId": 11,
						"contract": "message/concensus/Leader.sol:Leader",
						"label": "isRecommendationOn",
						"offset": 1,
						"slot": "2",
						"type": "t_bool"
					},
					{
						"astId": 13,
						"contract": "message/concensus/Leader.sol:Leader",
						"label": "totalStake",
						"offset": 0,
						"slot": "3",
						"type": "t_uint256"
					},
					{
						"astId": 15,
						"contract": "message/concensus/Leader.sol:Leader",
						"label": "messageRouter",
						"offset": 0,
						"slot": "4",
						"type": "t_address"
					},
					{
						"astId": 36,
						"contract": "message/concensus/Leader.sol:Leader",
						"label": "miners",
						"offset": 0,
						"slot": "5",
						"type": "t_array(t_struct(Miners)32_storage)dyn_storage"
					},
					{
						"astId": 42,
						"contract": "message/concensus/Leader.sol:Leader",
						"label": "votesOfTurns",
						"offset": 0,
						"slot": "6",
						"type": "t_mapping(t_uint256,t_array(t_struct(Vote)20_storage)dyn_storage)"
					},
					{
						"astId": 48,
						"contract": "message/concensus/Leader.sol:Leader",
						"label": "topicsForVote",
						"offset": 0,
						"slot": "7",
						"type": "t_mapping(t_uint256,t_array(t_struct(Candidate)27_storage)dyn_storage)"
					},
					{
						"astId": 54,
						"contract": "message/concensus/Leader.sol:Leader",
						"label": "candidates",
						"offset": 0,
						"slot": "8",
						"type": "t_mapping(t_uint256,t_array(t_struct(Candidate)27_storage)dyn_storage)"
					}
				],
				"types": {
					"t_address": {
						"encoding": "inplace",
						"label": "address",
						"numberOfBytes": "20"
					},
					"t_array(t_struct(Candidate)27_storage)dyn_storage": {
						"base": "t_struct(Candidate)27_storage",
						"encoding": "dynamic_array",
						"label": "struct Leader.Candidate[]",
						"numberOfBytes": "32"
					},
					"t_array(t_struct(Miners)32_storage)dyn_storage": {
						"base": "t_struct(Miners)32_storage",
						"encoding": "dynamic_array",
						"label": "struct Leader.Miners[]",
						"numberOfBytes": "32"
					},
					"t_array(t_struct(Vote)20_storage)dyn_storage": {
						"base": "t_struct(Vote)20_storage",
						"encoding": "dynamic_array",
						"label": "struct Leader.Vote[]",
						"numberOfBytes": "32"
					},
					"t_bool": {
						"encoding": "inplace",
						"label": "bool",
						"numberOfBytes": "1"
					},
					"t_mapping(t_uint256,t_array(t_struct(Candidate)27_storage)dyn_storage)": {
						"encoding": "mapping",
						"key": "t_uint256",
						"label": "mapping(uint256 => struct Leader.Candidate[])",
						"numberOfBytes": "32",
						"value": "t_array(t_struct(Candidate)27_storage)dyn_storage"
					},
					"t_mapping(t_uint256,t_array(t_struct(Vote)20_storage)dyn_storage)": {
						"encoding": "mapping",
						"key": "t_uint256",
						"label": "mapping(uint256 => struct Leader.Vote[])",
						"numberOfBytes": "32",
						"value": "t_array(t_struct(Vote)20_storage)dyn_storage"
					},
					"t_string_storage": {
						"encoding": "bytes",
						"label": "string",
						"numberOfBytes": "32"
					},
					"t_struct(Candidate)27_storage": {
						"encoding": "inplace",
						"label": "struct Leader.Candidate",
						"members": [
							{
								"astId": 22,
								"contract": "message/concensus/Leader.sol:Leader",
								"label": "value",
								"offset": 0,
								"slot": "0",
								"type": "t_string_storage"
							},
							{
								"astId": 24,
								"contract": "message/concensus/Leader.sol:Leader",
								"label": "recommender",
								"offset": 0,
								"slot": "1",
								"type": "t_address"
							},
							{
								"astId": 26,
								"contract": "message/concensus/Leader.sol:Leader",
								"label": "totalVote",
								"offset": 0,
								"slot": "2",
								"type": "t_uint256"
							}
						],
						"numberOfBytes": "96"
					},
					"t_struct(Miners)32_storage": {
						"encoding": "inplace",
						"label": "struct Leader.Miners",
						"members": [
							{
								"astId": 29,
								"contract": "message/concensus/Leader.sol:Leader",
								"label": "minerAddress",
								"offset": 0,
								"slot": "0",
								"type": "t_address"
							},
							{
								"astId": 31,
								"contract": "message/concensus/Leader.sol:Leader",
								"label": "stakeAmount",
								"offset": 0,
								"slot": "1",
								"type": "t_uint256"
							}
						],
						"numberOfBytes": "64"
					},
					"t_struct(Vote)20_storage": {
						"encoding": "inplace",
						"label": "struct Leader.Vote",
						"members": [
							{
								"astId": 17,
								"contract": "message/concensus/Leader.sol:Leader",
								"label": "miner",
								"offset": 0,
								"slot": "0",
								"type": "t_address"
							},
							{
								"astId": 19,
								"contract": "message/concensus/Leader.sol:Leader",
								"label": "slotNumber",
								"offset": 0,
								"slot": "1",
								"type": "t_uint256"
							}
						],
						"numberOfBytes": "64"
					},
					"t_uint256": {
						"encoding": "inplace",
						"label": "uint256",
						"numberOfBytes": "32"
					}
				}
			},
			"userdoc": {
				"kind": "user",
				"methods": {},
				"version": 1
			}
		}
	}
}